:020000040800F2
:10000000B8800020316A01087D5F01087F5F010828
:10001000815F0108835F0108855F0108000000001F
:100020000000000000000000000000004D7F0008FC
:10003000875F010800000000F57E0008897800084D
:10004000796B01087D6B0108816B0108856B0108E4
:10005000896B01088D6B0108916B0108956B010894
:10006000996B01089D6B0108A16B0108A56B010844
:10007000A96B0108AD6B0108B16B0108B56B0108F4
:10008000B96B0108BD6B0108C16B0108C56B0108A4
:10009000C96B0108CD6B0108D16B0108D56B010854
:1000A000D96B0108DD6B0108E16B0108E56B010804
:1000B000E96B0108ED6B0108F16B0108F56B0108B4
:1000C000F96B0108FD6B0108016C0108056C010862
:1000D000096C01080D6C0108116C0108156C010810
:1000E000196C01081D6C010800000000216C01085A
:1000F000256C0108296C01082D6C0108316C010880
:10010000356C0108396C01083D6C0108416C01082F
:10011000456C0108496C0108895F01084D6C0108B4
:10012000516C0108556C0108596C01085D6C01089F
:10013000616C0108656C0108696C01086D6C01084F
:1001400000000000000000000000000000000000AF
:10015000716C0108756C0108796C01087D6C0108EF
:10016000816C0108856C0108896C01088D6C01089F
:10017000916C0108956C0108996C01080000000061
:100180009D6C0108A16C0108A56C0108A96C01080F
:10019000AD6C0108B16C0108B56C0108B96C0108BF
:1001A000A15F0108BD6C0108B15F0108C16C0108C5
:1001B000C56C0108C96C0108CD6C0108D16C01083F
:1001C000D56C0108D96C0108DD6C0108E16C0108EF
:1001D000E56C0108E96C0108ED6C0108F16C01089F
:1001E000F56C0108F96C0108FD6C0108016D01084E
:1001F000056D0108096D01080D6D0108116D0108FB
:10020000156D0108196D01081D6D0108216D0108AA
:10021000256D0108296D01082D6D0108316D01085A
:10022000356D0108396D01083D6D010800000000C1
:10023000416D0108456D010800000000496D01088D
:100240004D6D0108516D0108556D0108596D01088A
:100250005D6D0108616D0108656D0108696D01083A
:100260006D6D0108716D0108756D0108796D0108EA
:100270007D6D0108816D0108856D01080000000099
:10028000896D01088D6D0108916D01080000000065
:1002900000000000956D010800F5E07002689142D1
:1002A00003D343681A44914202D380680028F5D1F1
:1002B00070471849086880B94FF4805048604FF47F
:1002C00080324FF0FF30C86008610420124B8A6012
:1002D0004861C3F8BC01114808600120704701F172
:1002E000080313F0070F0EBF0023C3F1080303F048
:1002F00007031944D21A8161C26042F001034B60C6
:10030000091D4FF0280C41F802C0024A1369C3616D
:1003100070470000E46C0020CC6100206859883CE4
:100320002DE9F84F84B00646AFF30080F52E1E4D40
:1003300080F00F820B2E31BF10260B36F608F60028
:100340002868F408E04010F0030F4AD0C04300F0E2
:100350000100041905F1280000EBC408E700D8F8F3
:1003600008607068C008C000B84218BF01F0E2F928
:10037000D6F80890464508BF01F0DCF94E4508BFA5
:1003800001F0D8F97068C008C000B84218BF01F089
:10039000D1F9C8450AD12868012101FA04F420EAFC
:1003A00004042C6010E000BFCC6100202869814566
:1003B00008D3D9F80C10B14204D1C8F80890C9F894
:1003C0000C8001E001F0B6F947F00300311D7060C8
:1003D000301DCA5942F00102C25106F1080800F06E
:1003E00010BFA968B14280F09F83002800F0A2806E
:1003F0004FF0010808FA04F1490000FA04F44842F9
:1004000001430C4060420440641E200B00F01000C9
:10041000C440610901F00801CC40A20802F00402C6
:10042000D440630803F002030818DC401018C4F33A
:10043000400718183818FC40241805F1280000EB74
:10044000C40AE700DAF80890D9F80400C008C00030
:10045000B84218BF01F06EF9D9F808B0D14508BF0D
:1004600001F068F9D94508BF01F064F9D9F8040032
:10047000C008C000B84218BF01F05CF9DA4506D1E7
:10048000286808FA04F420EA04042C600DE02969C5
:100490008B4508D3DBF80C00484504D1CAF808B0F6
:1004A000CBF80CA001E001F045F9BF1B46F00300BA
:1004B00009F10402C9F8040047F00101915109EB68
:1004C00006020192D751AC684FEAD40ABAF11F0F65
:1004D00088BF01F02FF934B3CDF800A005F1280052
:1004E0006E6900EBCA0AD346102C38BF01F022F91E
:1004F0002968009821FA00F2D30704D408FA00F022
:100500000843286007E0DAF80800296988422CBF10
:10051000834601F00FF9CAF80860CBF80C60C6F802
:1005200008B0C6F80CA0AF6009F10808019868612E
:1005300000F067BE6868002800F017834142084059
:10054000401E010B01F01001C840420902F00802F0
:10055000D040830803F00403D840440804F00204A8
:100560005118E0405918C0F34007611805F5987814
:100570007918F840401858F820104868C008C000A2
:100580008A46A0EB060B08E001464868C008C00098
:10059000801B58453CBF83468A4608690028F3D132
:1005A00049690029F1D128698245C0F0CF80DAF885
:1005B0000410C90806EB0B09C900494518BF01F032
:1005C000B9F80AEB06008245019080F0BF80DAF8A6
:1005D0000C40DAF8187054450DD0DAF80800296993
:1005E000884223D3C268524504BFA16851451DD13A
:1005F000C460A0601CE00AF114010C6834B90AF16F
:1006000010010C68A4B101E011460C6804F1140259
:100610001068002802BF04F1100210680028F3D10E
:100620002869814202D300220A6001E001F082F8C9
:10063000002F34D0DAF81C0008EB800001688A45EE
:1006400009D1046094B9DAF81C006968012282407B
:100650009143696023E02869874205D33969514590
:1006600014BF7C613C6101E001F064F8BCB1296910
:100670008C4212D3A761DAF8100028B1884226BF55
:100680002061846101F056F8DAF8140038B1296964
:10069000884202D36061846101E001F04BF8BBF154
:1006A000100F0ED249F003000AF10401CAF8040049
:1006B0000AF1040051F8092042F0010240F8092033
:1006C0003EE046F003010AF10402CAF804104BF0C0
:1006D00001009051019941F80BB0A8680090C4083E
:1006E0001F2C88BF01F026F8009828B305F12800D8
:1006F00000996F6900EBC408C146102938BF01F0AA
:1007000019F8286820FA04F1CA0705D4012101FA72
:1007100004F404432C6007E0D8F8080029698842F3
:100720002CBF814601F006F8C8F80870C9F80C70B3
:10073000C7F80890C7F80C80C5F808B00198686140
:100740001AF1080800F0F08100F05BBD00F0F2FF44
:10075000EAE116F1400F28BF4FF0FF3680F0E48148
:100760000B36F6086B68F600002B00F0DD810027E1
:10077000300AC6F1000908BF002423D0B0F5803F3D
:1007800028BF1F241ED2A0F58071090C01F00801BA
:100790008840A0F58052120C02F004029040A0F5AF
:1007A0008044240CC1F10E0104F00204891A091BD3
:1007B000A04001EBD031C81D26FA00F404F001047A
:1007C00004EB410405F5987858F8240030B31F2C49
:1007D0000FBFB4464FEA540CCCF1190C06FA0CFCCE
:1007E000BE46494601E04FEA4C0C4268D208D200AE
:1007F000921B8A4202D2110007460CD04269103087
:100800004FEADC7950F82900002A1CBF8242964644
:100810000028E8D170468946A8BBB7BB012101FA80
:1008200004F4640060420443234000F07D81584298
:1008300003405B1E180B00F01000C340590901F083
:100840000801CB409A0802F00402D3405C0804F08F
:1008500002040818E3401018C3F3400C2018604449
:1008600023FA0CF31B1858F823000CE008464168E3
:10087000C908C900891B49453CBF8946074601692B
:100880000029F3D140690028F1D1002F00F04C81FC
:10089000A868801B814580F0478129698F42FFF459
:1008A00055AF7868C008C00006EB0901884218BF40
:1008B00000F040FF07EB060B5F45BFF447AFFC6855
:1008C000D7F818A0BC420CD0B8682969884223D355
:1008D000C268BA4204BFA168B9421DD1C460A06019
:1008E0001CE007F114010C6834B907F110010C6821
:1008F000A4B101E011460C6804F11402106800284C
:1009000002BF04F1100210680028F3D12869814267
:1009100002D300220A6001E000F00CFFBAF1000FE0
:1009200034D0F86908EB800001688F4208D1046078
:10093000A4B9F8696968012282409143696025E0A1
:100940002869824508D3DAF81010B94214BFCAF8F2
:100950001440CAF8104001E000F0ECFEB4B129697F
:100960008C4211D3C4F818A0386928B1884226BF38
:100970002061846100F0DEFE786938B1296988421F
:1009800002D36061846101E000F0D4FEB9F1100F80
:100990000CD2B14449F00300391D7860381D51F87C
:1009A000092042F0010240F80920B9E046F00301B5
:1009B0003A1D796049F0010090514FEAD9004BF897
:1009C00009901F2822D805F1280101EBC0042968ED
:1009D00021FA00F2D307A04605D4012202FA00F062
:1009E0000843286006E0A068296988422CBF804639
:1009F00000F0A0FEC4F808B007F10800C8F80CB079
:100A000040F8068007F10C018C5189E05FEA19205B
:100A100008BF002123D0B0F5803F28BF1F211ED280
:100A2000A0F58072120C02F008029040A0F58051EF
:100A3000090C01F004018840A0F580431B0CC2F1B1
:100A40000E0203F00203521AD21A984002EBD0327F
:100A5000D01D29FA00F101F0010101EB420107F17B
:100A60001403CBF81C1000229A5107F1100308EB75
:100A700081009A516A6822FA01F3DC0711D401233C
:100A800003FA01F111436960C0F800B0CBF8180017
:100A900007F1080107F10C0040F806B041F806B074
:100AA0003EE002681F291DBF4908C1F1190109FA7A
:100AB00001F1494600E002465068C008C0004845C0
:100AC00018D002F11003C80F03EB80034900186827
:100AD0000028F0D12869834220D3C3F800B007F181
:100AE0000C01CBF8182041F806B007F1080040F8D7
:100AF00006B015E0296990688A4228BF88420DD364
:100B0000C0F80CB007F10801C2F808B0885107F12D
:100B10000C0082510022CBF8182001E000F00AFE00
:100B200017F1080840F06D83A868B0421DD3811BFF
:100B30006A6910290AD390196861A96041F001031C
:100B40004360415046F0030656600BE00021A96067
:100B50006961131D40F003015160111D1C5844F0E0
:100B600001040C5002F108084BE3E8688642C0F02B
:100B70003883DFF8B89BD9F8000008B9FFF799FB74
:100B8000D9F8081088192F30491E20EA01018E4239
:100B900080F0358305F5D877B86838B13A68891898
:100BA0008A4280F02C838842C0F0298300F0ECFD5B
:100BB00000281CBFD0F8008010F1010F00F01F8347
:100BC00039687A68414439608A4238BF7960AC69D3
:100BD00004BB296909B1884200D22861002138612B
:100BE000C7F81480F9614FF0FF31D9F800206A622C
:100BF000296205F128020021D260926002F1080406
:100C000054611461891C10321F29F5D9A8F12802FA
:100C100001461DE005F5E0710A46814600E0926854
:100C2000D2B11068536803449945F8D1107B03078B
:100C300012D413689C420FD3D2F804C063449C4280
:100C40000AD2C444C2F804C02146E86808EB000296
:100C50002846FFF744FBC1E22869814538BFC5F843
:100C6000109009EB080000E08968002900F0BD81C0
:100C70000A688242F8D1087B020700F1B681086851
:100C8000C1F800904A6842444A6009F1080111F035
:100C9000070F08BFCDF8049006D0C1F1080101F09C
:100CA000070109EB0102019200F1080111F0070FA1
:100CB00004D0C1F1080101F0070108448046019801
:100CC000A8EB00018419A1EB060B274646F00306AA
:100CD0004660474528BF00F02DFD98F80400C10785
:100CE00058BF00F027FDBBF1100F38BF00F022FD08
:100CF000A869804508D1E9688B44C5F80CB0AF619C
:100D00004BF0010078606CE1686980450AD1A96800
:100D10008B44C5F808B06F614BF00100786047F86C
:100D20000BB05EE1D8F8040000F00301012940F0A7
:100D3000B880C008C000C1081F29039040D8D8F867
:100D400008200092D8F80C600291B04508BF00F06E
:100D5000F1FC0098804508BF00F0ECFCD8F80400D6
:100D60000299C008C000B0EBC10F18BF00F0E2FC50
:100D70000299009A05F1280000EBC100824208D0D8
:100D800011462A699142C0F08780CA68424540F006
:100D9000838000998E4206D102982A6801238340FD
:100DA0009A432A607AE0864205D029698E4273D33D
:100DB000B068404570D10098C6600099B1606DE0A0
:100DC000D8F818000090D8F80C6046450DD0D8F837
:100DD00008002969884223D3C268424504BFB1682C
:100DE00041451DD1C660B0601CE008F114010E68D9
:100DF00036B908F110010E68A6B101E011460E687F
:100E000006F114021068002802BF06F110021068F3
:100E10000028F3D12869814202D300220A6001E050
:100E200000F088FC0098002838D0D8F81C0005F5A0
:100E3000987101EB80000168884509D106609EB970
:100E4000D8F81C006968012282409143696025E05E
:100E500000982969884205D30169414514BF46615C
:100E6000066101E000F066FCC6B129698E4213D329
:100E70000098B061D8F8100028B1884226BF3061D0
:100E8000866100F057FCD8F8140038B1296988420F
:100E900002D37061866101E000F04CFC0399884444
:100EA0008B44D8F8041049084900C8F804104BF0E6
:100EB000010078604FEADB0647F80BB01F2E22D8FE
:100EC00005F1280000EBC604A146BBF1100F38BFA6
:100ED00000F030FC286820FA06F1CA0705D4012189
:100EE00001FA06F606432E6006E0A06829698842EA
:100EF0002CBF814600F01EFCA760C9F80C70C7F833
:100F00000890FC606DE05FEA1B2008BF002123D041
:100F1000B0F5803F28BF1F211ED2A0F58072120CB1
:100F200002F008029040A0F58051090C01F0040184
:100F30008840A0F580431B0CC2F10E0203F00203AF
:100F4000521AD21A984002EBD032D01D2BFA00F17F
:100F500001F0010101EB4201F961002305F59872EE
:100F60007B6102EB81003B616A6822FA01F3DE07D4
:100F700007D4012303FA01F1114369600760B861E6
:100F80001DE002681F291DBF4908C1F119010BFAB4
:100F900001F1594600E002465068C008C0005845BB
:100FA00010D002F11003C80F03EB8003490018684A
:100FB0000028F0D12869834211D31F60BA61FF6015
:100FC000BC600EE0296990688A4228BF884206D337
:100FD000C7609460B860FA600020B86101E000F07A
:100FE000A9FB019800F108080BE121462846FFF70C
:100FF00053F90168406808440090A0F1270111F0FE
:10100000070000980EBF0021C1F1080101F007019F
:101010000844A0F12F0B04F110018B4538BFA34603
:101020000BF11802002102920191A8F12802494611
:101030002846FFF754F90BF1080010F0070F18BF0E
:1010400000F078FB1B20CBF8040005F5E07292E875
:1010500009500BF1080181E8095000210BF108004B
:10106000F961B861009A02980199C7F81090C7F821
:101070001480072300E0001D491C00F10807974277
:101080004360F8D30129D8BF00F054FBA34500F01A
:10109000A580ABEB040B201D221D50F80B10490856
:1010A000490042F80B104BF0010060604FEADB0989
:1010B00044F80BB0B9F11F0F22D805F1280000EB5E
:1010C000C907B846BBF1100F38BF00F033FB2868E2
:1010D00020FA09F1CA0705D4012101FA09F10843F0
:1010E000286006E0B868296988422CBF804600F075
:1010F00021FBBC60C8F80C40C4F80880E7606DE0D4
:101100005FEA1B2008BF002123D0B0F5803F28BF35
:101110001F211ED2A0F58072120C02F0080290402E
:10112000A0F58051090C01F004018840A0F580432E
:101130001B0CC2F10E0203F00203521AD21A98409D
:1011400002EBD032D01D2BFA00F101F0010101EBCE
:10115000420105F59872002302EB8100E1616361B1
:1011600023616A6822FA01F3DF0707D4012303FA37
:1011700001F1114369600460A0611DE002681F294C
:101180001DBF4908C1F119010BFA01F1594600E0F0
:1011900002465068C008C000584510D002F1100344
:1011A000C80F03EB8003490018680028F0D12869B4
:1011B000834211D31C60A261E460A4600EE029693F
:1011C00090688A4228BF884206D3C4609460A060B9
:1011D000E2600020A06101E000F0ACFAE86886421D
:1011E0000DD2801BA969E8608A19AA6140F001004C
:1011F000506046F003064E6001F1080801E04FF030
:101200000008AFF30080404605B0BDE8F08F00282D
:1012100000D170472DE9F047A0F10805AFF3008039
:10122000DFF80C6531698D42C0F07A82686800F0A1
:101230000302012A00F07482C2084FEAC209C20701
:1012400005EB090839D42C6810F0030F00F06A820E
:10125000604205448D42A144C0F0628270698542BB
:1012600000F0DA80E408202C72D2D5F80CA0AF6828
:10127000554508BF00F05EFABD4208BF00F05AFABB
:101280006868C008C000B0EBC40F18BF00F052FA85
:1012900006F1280000EBC400874205D031698F4277
:1012A00053D3FA68AA4250D1BA4540D130680121DF
:1012B00001FA04F420EA04043460454580F03082E9
:1012C000D8F80440E00740F12B82A10700F17C81AF
:1012D000B069804540F0B380F168B5618944C6F8D3
:1012E0000C9049F00100686071698D4202D10020C4
:1012F0007061B060F169494580F01482DFF82C24F8
:10130000106808B9FEF7D5FFB169002900F00A821C
:10131000F068292824BF3046FEF7BEFFF069F16867
:10132000884280F0FF814FF0FF30F061FAE18245A2
:1013300006D03069824508D3DAF80810A94204D1F2
:10134000C7F80CA0CAF80870B7E700F0F3F9B4E7E3
:10135000EC68AF69AC420BD0A868884222D3C16860
:10136000A94204BFA268AA421CD1C460A0601BE0CD
:1013700005F11402146834B905F1100214689CB127
:1013800001E01A46146804F114031868002802BF2B
:1013900004F1100318680028F3D18A4202D3002117
:1013A000116001E000F0C6F9002F86D0E96906F56A
:1013B000987000EB81000268954209D1046020001A
:1013C00011D1E8697168012282409143716074E72C
:1013D0003069874205D33969A94214BF7C613C61F9
:1013E00001E000F0A7F9002C3FF467AF31698C42AF
:1013F000ABD3A761286928B1884226BF20618461E8
:1014000000F098F9686900283FF457AF31698842C5
:101410009BD36061846150E798F8040000F00300FA
:1014200003287FF44AAFC6F8089049F00101D8F8C4
:10143000040040084000C8F8040069600AE07069D0
:1014400080450AD1B16875618944C6F8089049F0B1
:101450000100686045F8099064E1E408E400A144F3
:10146000E408202C3AD2D8F80CA0D8F80870D0455F
:1014700008BF00F05FF9B84508BF00F05BF9D8F885
:101480000400C008C000B0EBC40F18BF00F052F950
:1014900006F1280000EBC400874207D031698F4273
:1014A000C0F08580FA68424540F08180BA4507D196
:1014B0003068012101FA04F420EA0404346078E081
:1014C000824506D03069824571D3DAF8081041456B
:1014D0006DD1C7F80CA0CAF808706AE0D8F80C40C3
:1014E000D8F8187044450DD0D8F808003169884202
:1014F00023D3C268424504BFA16841451DD1C460E1
:10150000A0601CE008F114010C6834B908F1100166
:101510000C68A4B101E011460C6804F114021068D3
:10152000002802BF04F1100210680028F3D13069CE
:10153000814202D300220A6001E000F0FBF8002F94
:1015400037D0D8F81C1006F5987000EB81000268BF
:1015500090450AD10460200012D1D8F81C007168AF
:10156000012282409143716023E03069874205D3B4
:101570003969414514BF7C613C6101E000F0DAF853
:10158000BCB131698C4212D3A761D8F8100028B1E0
:10159000884226BF2061846100F0CCF8D8F814009E
:1015A00038B13169884202D36061846101E000F0A2
:1015B000C1F849F00100686045F8099071698D42F1
:1015C0000BD1C6F80890ADE064086400C8F8044088
:1015D00049F00100686045F809904FEAD907202FCB
:1015E00022D206F1280000EBC704A046B9F1100F83
:1015F00038BF00F09FF8306820FA07F1CA0705D419
:10160000012101FA07F70743376006E0A068316956
:1016100088422CBF804600F08DF8A560C8F80C50B9
:10162000C5F80880EC607DE05FEA192008BF002162
:1016300023D0B0F5803F28BF1F211ED2A0F58072B5
:10164000120C02F008029040A0F58051090C01F044
:1016500004018840A0F580431B0CC2F10E0203F088
:101660000203521AD21A984002EBD032D01D29FA46
:1016700000F101F0010101EB420106F5987200232F
:1016800002EB8100E9616B612B61726822FA01F360
:10169000DC0707D4012303FA01F1114371600560EF
:1016A000A8611DE002681F291DBF4908C1F1190189
:1016B00009FA01F1494600E002465068C008C0003E
:1016C000484510D002F11003C80F03EB8003490016
:1016D00018680028F0D13069834211D31D60AA61D7
:1016E000ED60AD600EE0316990688A4228BF8842A3
:1016F00006D3C5609560A860EA600020A86101E09B
:1017000000F018F8306A401E30620BD1D6F8C801DC
:1017100000E080680028FCD14FF0FF30306201E02B
:1017200000F008F8AFF30080BDE8F087E46C00201B
:10173000CC610020012000F03DB870B50E46054692
:10174000307995F82C40401E8041C00F85F82C0060
:1017500095F82C0008B12CB900E0A4B129682846FE
:101760004A6990477CB1307901280CD1A86A50B100
:101770000168CA68904730B1A86A29460268936830
:10178000BDE87040184770BD0749086808B10020DF
:1017900070470648C008C00008600549C908C9006C
:1017A000091A0160704700BFC06E0020BF80002092
:1017B000B890002080B500F007F8024A1100182008
:1017C000ABBEFBE72600020010B500F052F80200A5
:1017D0000023DB4300241068984203D0110002204C
:1017E000ABBE14605068984203D0111D0220ABBEFE
:1017F000546010BDF0B583B0040000F03AF8A100C9
:1018000047183D680026F643B54216D100F01AF895
:101810003D68B5420FD100BF09A00090002C01D156
:10182000002000E00420019003200290694601207E
:10183000ABBE05003D6000F014F8280003B0F0BD19
:101840003A7474000C480121BFF35F8FD0E84F3F1A
:10185000C0E8421F002AF9D1BFF35F8F002BF3D1FC
:1018600070470548BFF35F8F00210170BFF35F8FA2
:101870007047024870470000DD6E00200C01002018
:1018800010B504460822002101F032F9DFF85C3D72
:10189000002223602046A260E26022616261A261B0
:1018A000E26122626262A262E26222636263A26316
:1018B000E26322646264A264E26422656265A265F6
:1018C000E26522666266A266E2662267626710BD12
:1018D0002DE9F84F88B00546139C1746984620001E
:1018E00000F01E810E46304601F09AF981463046DE
:1018F00001F06EF9ADF814003046ADF81070ADF897
:101900001280ADF8169001F031FA8046304601F0B1
:101910004FFA8146129F304601F096FA022806D10E
:1019200023463A4604A9404600F0FEF8FEE1304660
:1019300001F08AFA0B2807D100943B4604AA4946D5
:10194000404600F0F6F9F1E1304601F0D6F948B929
:1019500000943B4601902C68284604AA4146E5685D
:10196000A847E3E13146684601F07FF9B7F9001076
:10197000B888BDF90060BDF90430BDF90220BDF999
:1019800006E040180FFA80FA5645BEBF9B190FFAC1
:1019900083FA514514DAB7F902A0B7F806B0D34478
:1019A000ADF800B0BDF900B05A45BEBF0EEB020B5A
:1019B0000FFA8BFBDA4503DAB142A8BF0E4604E00A
:1019C0000026B2460023002219E0B7F90210924621
:1019D00072440FFA80FCB7F802E012B28A45B8BF31
:1019E0008A4619B26145A8BF0346F8889B1B864406
:1019F0000FFA8EFE7245C8BF7246A2EB0A02ADF81E
:101A00000C30BDF90C10ADF80860ADF80AA0ADF8C7
:101A10000E200129A4BFBDF90E000128C0F281806B
:101A200000942846002102AB01912D6804AA41468A
:101A3000EE68B047BDF90A20B7F90200904213DA08
:101A4000B7F90010B7F90430121AADF81A00ADF862
:101A500018104946ADF81C3006ABADF81E2004AA9C
:101A60000094404600F07CFCB7F90000BDF9081076
:101A7000884215DABDF80830BDF90E20BDF90A50CC
:101A8000ADF81800ADF81E2004AAADF81A5049466A
:101A90001B1A0094ADF81C3006AB404600F060FC09
:101AA0003A88B988BDF80830BDF80C008A1812B21F
:101AB000C31818B2904213DABDF90A00BDF90E50EE
:101AC000D21AADF81830ADF81A0006ABADF81C20EC
:101AD00004AAADF81E5049460094404600F040FC70
:101AE0007A88F888BDF80A308218BDF80E0012B264
:101AF000C31818B2904213DAB7F90000B7F90450CE
:101B0000ADF81A30D21AADF8180006ABADF81C507B
:101B1000ADF81E20009404AA4946404600F020FC7F
:101B200004E100943B46F6E72DE9F84F88B00546FE
:101B300091460E46984606A8082201F0C9F904A865
:101B40004946082201F0C4F906A801F05CFA3146C2
:101B500004A801F06DFABDF91230BDF91C10BDF9F1
:101B60001000BDF81820BDF91470BDF9169011FBD6
:101B700003F1091805EB8104BDF81050BDF81A10E7
:101B80005519ADF81050DFF8605C2868CB18ADF837
:101B9000123001680A6B9047B8F1FF0F3DD1800603
:101BA0003DD42868DFF8446C01680A6A9047B6F8AB
:101BB00000C0BDF91210BDF91030B9F1000F01FBE2
:101BC0000CFC0CEB030100EB410640F3AB80DFF8AB
:101BD0001C2C4B460192224600970099002940F3A5
:101BE00090800846D2F800E05FEA1E6100F0848031
:101BF000FF2908BFB8F1FF0F26D14FEA1E214FEA97
:101C00005E1C01F478410CF4FC6C4CEA0101CEF34B
:101C1000C40C4CEA010131806EE04006C1D5BDF82C
:101C20001C101FFA89F92868CDF80C800291BFB208
:101C3000CDF80490214600970568BDF81230BDF834
:101C40001020EE6BB04771E018FB01F1B6F800C050
:101C50000C04240E14FA81F77F1C3F043F0EC7F1D9
:101C6000FF014FEA1C2AC9B20AF0F80A11FB0AFA6E
:101C70004FEA0E244FEADC0B240E0BF0FC0B4FEA6C
:101C8000CC6C17FB04A44FEA0E4A11FB0BFB4FEA86
:101C90001A6A4FEA1C6C5FFA8EFE11FB0CF14FEAD8
:101CA000044C17FB0ABA4FEA1C6C1CFA84F4641C3F
:101CB0002404240E17FB0E114FEA0A4E4FEA1E6E43
:101CC0001EFA8AFE0EF1010E4FEA0E4E4FEA014C4B
:101CD0004FEA1E6E4FEA1C6C24024FEACE0E1CFA2D
:101CE00081F104F478440EF4FC6E491C4EEA0404BD
:101CF000090454EAD1643480B61C121D401E7FF4DE
:101D000071AF0198DDF800C05B1E0188BDF91C00B1
:101D1000A1EB0C0106EB4106A0EB0C0002EB8002EC
:101D20007FF45BAF286801684A6A904709B0BDE854
:101D3000F08F38B50D78049C3DB1022D01D008D349
:101D400031BD009400F01BF931BD009400F005F89E
:101D500031BD009400F012FA31BD2DE9F04F8DB085
:101D60000546894617461C46DDF858800BA83946BB
:101D7000082201F0ADF809A82146082201F0A8F8D0
:101D80000BA801F040F9394609A801F051F9BDF955
:101D90002630BDF93010BDF92400BDF82C20BDF966
:101DA00028A0BDF92A4011FB03F109186E18BDF8EF
:101DB0002450BDF82E105519ADF82450DFF8285ADC
:101DC0002868CB18ADF826300168D1F888209047F4
:101DD00001283FD02868DFF8147A01680A6A904722
:101DE000B7F800C0BDF92610BDF92430012C01FB65
:101DF0000CFC0CEB030100EB4107C0F2B680DFF8EE
:101E0000EC29CDF800A00192324623460099012921
:101E1000C0F29B80084692F800C009F1040151F815
:101E20002CE05FEA1E6100F08B80FF2908BFB8F14B
:101E3000FF0F2DD14FEA1E214FEA5E1C01F47841BD
:101E40000CF4FC6C4CEA0101CEF3C40C4CEA010129
:101E5000398075E00020DFF8942908901388BDF8D8
:101E600030000B21012707910693A4B205971FFAB2
:101E70008AFACDF810804A4603900294BDF82610E5
:101E8000BDF82430286800913146CDF804A071E0F7
:101E900018FB01F1B7F800C04FEA0E24240E0E041F
:101EA000360E16FA81F6761C3604360EC6F1FF01A0
:101EB0004FEA1C2AC9B20AF0F80A11FB0AFA4FEAE3
:101EC000DC0B0BF0FC0B4FEACC6C11FB0BFB4FEA6D
:101ED0001C6C16FB04A44FEA0E4A4FEA1A6A11FB67
:101EE0000CF15FFA8EFE16FB0ABA4FEA044C4FEA79
:101EF0001C6C1CFA84F4641C240416FB0E114FEABB
:101F00000A4E4FEA1E6E1EFA8AFE0EF1010E4FEACD
:101F10000E4E4FEA014C240E4FEA1E6E4FEA1C6C27
:101F200024024FEACE0E1CFA81F104F478440EF438
:101F3000FC6E491C4EEA0404090454EAD1643C8056
:101F4000BF1C521C401E7FF466AF0198DDF800C034
:101F50005B1E0188BDF93000A1EB0C0107EB4107C6
:101F6000A0EB0C0002447FF451AF28680268516A6C
:101F7000884701E001F0F5F90DB0BDE8F08F2DE9DB
:101F8000F04F8DB08146DDF858A0884616461C46B5
:101F9000BAF1000F6CD009A83146082200F098FF72
:101FA0000BA82146082200F093FF09A801F02BF8A6
:101FB00031460BA801F03CF8BDF92E30BDF92810D0
:101FC000BDF92C00BDF82420BDF93060BDF93250B8
:101FD00011FB03F10918DFF81008006809EB010490
:101FE000BDF82610BDF82C90CB18ADF82E309144DA
:101FF000ADF82C900168DFF8F497D1F8882090476D
:10200000012836D0DFF8E007006801680A6A9047C7
:10201000B9F800C0BDF92E10BDF92C30BAF1FF0F90
:1020200001FB0CFC0CEB030100EB41033DD1012D46
:1020300018DB2946012E0ADB304608F1040214F8A9
:1020400001AB401E32F81AC023F802CBF7D1BDF91C
:102050002820B9F80000921BA418801B491E03EB2E
:102060004003E7D1DFF88007006801684A6A9047BB
:1020700082E70020B9F8001008900B230590BDF806
:1020800028000793ADB20691B6B2CDF810A0424633
:102090000390DFF854070295BDF82E10BDF82C30E0
:1020A000006800912146019664E7012DCAF1FF0105
:1020B000D8DBB44622462E46BCF1010F4FDB60460A
:1020C00012F8015B1C8808F1040E3EF815704FEA07
:1020D000142E0EF0F80E11FB0EFE4FEAD40B0BF08F
:1020E000FC0BE4063D0A05F0F8051AFB05E54FEA8E
:1020F000D70E11FB0BFB0EF0FC0E240EFF0611FB9E
:1021000004F43F0E1AFB0EBE1AFB07472C04240EE4
:1021100014FA85F44FEA0E452D0E15FA8EFE641C56
:102120000EF1010E24044FEA0E4E4FEA074B240E27
:102130004FEA1E6E4FEA1B6B24024FEACE0E1BFACB
:1021400087F704F478440EF4FC6E7F1C4EEA040416
:102150003F0454EAD76423F8024B401EB0D1B9F8CB
:102160000000BDF928E0761EA0EB0C0003EB400355
:10217000AEEB0C0E72443FF475AF9DE72DE9F04FC6
:102180008DB08146169D884692461C46002D00F073
:10219000E6800BA85146082200F09AFE09A82146C5
:1021A000082200F095FE0BA800F02DFF514609A86B
:1021B00000F03EFFBDF92630BDF93010BDF9240016
:1021C000BDF82C20BDF92840BDF92A6011FB03F1B0
:1021D000091809EB010ABDF82490BDF82E109144AE
:1021E000ADF82490DFF80096D9F80000CB18ADF8D0
:1021F00026300168D1F88820904701283CD0D9F8D2
:10220000000001680A6A9047DFF8E0C5BDF92610B2
:10221000BCF800E0BDF92430012E01FB0EFE0EEBF0
:10222000030100EB4101C0F29580C5F1FF00C0B28F
:1022300002905346CDF804C0B2460094009A012A99
:1022400077DB104693F800E008F10402FF2D0EEB57
:102250004E0E02EB0E04627894F802E0247829D145
:102260004FEA0E2ED2000EF4784E02F4FC6242EADF
:102270000E0242EAD40257E00020DFF870250890F1
:102280001388BDF830000B214FF0010C0791069325
:10229000B6B2CDF814C0A4B204954246039002969B
:1022A0000194BDF82610BDF82430D9F80000009143
:1022B00051465FE60E88029F4FEA162B0BF0F80B93
:1022C00007FB0BFB15FB0EBE4FEAD60B0BF0FC0B0E
:1022D000F60607FB0BFB360E774315FB02B215FB28
:1022E00004744FEA0E473F0E17FA8EFE1604360EA0
:1022F00016FA82F20EF1010E521C4FEA0E4E120433
:1023000027044FEA1E6E120E3F0E4FEA0E2ED20029
:1023100017FA84F40EF4784E02F4FC62641C42EA6C
:102320000E0E24044EEAD4625B1C401E21F8022BE0
:1023300088D10198DDF800E0BAF1010A0288BDF900
:102340003000A2EB0E0201EB4201A0EB0E000344B1
:102350007FF474AFD9F8000001684A6A90470BE631
:102360002DE9F84F84B08146884617461C460E9EDC
:1023700068463946082200F0ABFD02A82146082233
:1023800000F0A6FD684600F03EFE394602A800F0C7
:102390004FFEBDF80020BDF90A30BDF90410BDF9AB
:1023A0000800BDF90E5011FB03F1081808EB0007F7
:1023B000BDF8088009EB4004BDF80210DFF82804DE
:1023C0000068BDF90C909044ADF80880DFF81C84DB
:1023D000CB18ADF80A3001680A6A9047B8F800C017
:1023E000BDF90A10BDF90830FF2E01FB0CFC0CEB07
:1023F000030100EB410C00F08180012D78DB3B46AE
:102400004F462246A946012F64DB38468DF83860D6
:102410001978002956D09DF8386016FB01F14FEA73
:10242000014E4FEA1E6E1EFA81F1491C0904090E85
:1024300048D0BCF80060B2F800E0C1F1FF04E4B29B
:102440004FEA162A0AF0F80A14FB0AFA4FEA1E2588
:102450004FEAD60B05F0F8050BF0FC0B11FB05A5B8
:102460004FEADE0A14FB0BFBF6060AF0FC0A360EF6
:1024700014FB06F44FEACE6E11FB0ABA4FEA1E6E49
:1024800011FB0E442904090E11FA85F54FEA0A469C
:10249000360E16FA8AF66D1C761C2D0436042104BD
:1024A0002D0E360E090E2D02F60011FA84F105F4F8
:1024B000784506F4FC66491C3543090455EAD165A4
:1024C000ACF80050921C5B1C401E0CF1020C9FD11A
:1024D0009DF83860B8F80000C01B0CEB400CBDF94B
:1024E0000400C01BB9F1010902EB400203448AD188
:1024F000BD48006801684A6A904745E2012DF7DB54
:102500003A464E4623466746A946012E5DDB3046D5
:102510001178002954D0B3F800E0FF2908BFA7F8CC
:1025200000E04DD0B7F800C0C1F1FF04E4B24FEABB
:102530001E2505F0F8054FEA1C2A0AF0F80A14FBDC
:102540000AFA4FEADC0B0BF0FC0B4FEACC6C14FBE5
:102550000BFB4FEA1C6C11FB05A54FEADE0A0AF0E3
:10256000FC0A4FEACE6E14FB0CF44FEA1E6E11FB10
:102570000ABA11FB0E442904090E11FA85F54FEA37
:102580000A4C4FEA1C6C1CFA8AFC6D1C0CF1010C05
:102590002D044FEA0C4C21042D0E4FEA1C6C090E41
:1025A0002D024FEACC0C11FA84F105F478450CF4B5
:1025B000FC6C491C4CEA0505090455EAD1653D80CF
:1025C000BF1C9B1C521C401EA2D1B8F80000801BEF
:1025D00007EB4007BDF90400801BB9F1010903EBCB
:1025E0004003024491D183E700000000145D01081C
:1025F0002DE9F04F89B00C46129E91469A46002E66
:1026000000F0B98007A84946082200F061FC05A83F
:102610005146082200F05CFC07A800F0F4FC494693
:1026200005A800F005FDBDF91630BDF92010BDF973
:102630001400BDF81490BDF81C20BDF91870BDF948
:102640001A5011FB03F1091804EB41049144BDF841
:102650001E10ADF81490DFF89091D9F80000CB1857
:10266000ADF8163001680A6B9047FF2E139900F001
:102670008480400700F18780D9F80000DFF86CA162
:1026800001680A6A9047BAF800C0BDF91610BDF992
:102690001430FF2E01FB0CFC0CEB030100EB410896
:1026A00000F08780002DB446CCF1FF015EDD2B46A3
:1026B0002246002F4EDD3846B8F800E032F8026BB3
:1026C0004FEA1E2404F0F80411FB04F4350A05F067
:1026D000F8054FEADE0B0BF0FC0B1CFB0545F4087C
:1026E00011FB0BFB4FEACE6E04F0FC044FEA1E6EAA
:1026F00011FB0EFEF6061CFB04B4360E1CFB06E6B0
:102700004FEA054E4FEA1E6E1EFA85FE25042D0E79
:1027100015FA84F40EF1010E641C4FEA0E4E2404E7
:102720004FEA064B4FEA1E6E240E4FEA1B6B4FEA30
:102730000E2EE4001BFA86F60EF4784E04F4FC64C8
:10274000761C44EA0E0E3604401E4EEAD66E28F879
:1027500002EBB1D1BAF80000BDF92040C01B08EB74
:102760004008E41B5B1E02EB4402A2D1D9F8000032
:1027700001684A6A9047FFF7D9BA0A007FF47CAF34
:10278000C0077FF579AFD9F8000004910396BDF832
:102790002010ADB2BFB2029121460195BDF81630AE
:1027A00000970468BDF81420D4F838A0D047FFF78C
:1027B000BDBA002DDADD28467D0027460446D9F84B
:1027C00000002B463A464146D0F800C0DCF82C60A9
:1027D000B047641EBAF80000BDF9201008EB4008AD
:1027E00007EB4107EBD1C1E7B46D0020AE6D0020CF
:1027F0002DE9F04F1D46E8B2002885B0914600F063
:10280000AD80B1F904000028C4BFB1F90640002C26
:1028100040F3A48003A8082200F05AFB03A8DFF8C5
:10282000744100F0F0FB206801680A6B9047E9B240
:10283000FF2915D1800715D52068EDB20295BDF8A6
:102840001210BDF81020BDF80E30019149460092DB
:10285000D0F80090BDF80C20D9F84860B04793E05C
:102860000007E9D42068DFF828A1BDF91060BDF9A0
:10287000128001680A6A9047BDF90E20BAF800106C
:10288000BDF90C304FEAD90E4FEAC90C0EF0FC0E20
:102890005FFA8CFC4A43D11800EB4102E9B2FF29F0
:1028A0004FEA192000F0F80059D0B8F1000FEDB24E
:1028B000C5F1FF014EDD43464FEA460815FB00F027
:1028C000C8F10008CDF8008015FB0CFC15FB0EFECE
:1028D000B1468046B9F1000F34DD484617883D0AFD
:1028E00005F0F80511FB05854FEA054B4FEA1B6B18
:1028F000FE0806F0FC061BFA85F511FB06E66D1CCA
:10290000FF062D043F0E4FEA064B4FEA1B6B1BFAE6
:1029100086F6761C36042D0E360E11FB07C72D02E7
:10292000F60005F4784506F4FC6635433E04360EA1
:1029300016FA87F77F1C3F0455EAD76522F8025B39
:10294000401ECBD100985B1E1044BAF8002000EB6B
:102950004202BFD1206801684A6A904714E0B8F18A
:10296000000FF7DD730041465B42002E04DD304668
:10297000401E22F8029BFBD1D018BAF80020491E55
:1029800000EB4202F1D1E5E705B0BDE8F08F0000B1
:10299000AE6D0020B46D00202DE9F84F84B00446E0
:1029A0006846082200F094FA684600F02CFB04F117
:1029B0000801684600F0BDFE6068002800F08680CF
:1029C000BDF904100029C4BFBDF9060000287DDD53
:1029D000434908680268136A984701460020414A43
:1029E0000390B2F800E08146002302E0DB1D4FF0C7
:1029F00000096068039A805C561C0396070060D04B
:102A00000A28F3D0A0F120025F2A374A34BF4000E1
:102A1000FE20104430F8406CADF8086000263348C2
:102A200094F8148086FB0020BDF808C0012500EB57
:102A3000D07008FB09F700EB4002BF00B21A02FB9E
:102A40000872C6F10E07BD401CEA050F00FB08F82E
:102A50003FD0204600241BE0B0F90850BDF900A08B
:102A60005519654455450DDBBDF800B0BDF804A00F
:102A7000D3440FFA8BFB5D4504DAD0F810B07D1912
:102A800021F815B00CF1010C057DAC45E4DB641CAC
:102A9000077DBC421CDAB0F90AC007FB0387674414
:102AA000BDF902C0E7196745F1DBBDF806A0D444C3
:102AB0000FFA8CFC6745EADA4FF0000C0EFB07F7C3
:102AC000E2E70748006801684A6A9047FFF75CBF81
:102AD0000446761C0F2EA2DB09F1010989E70000EC
:102AE000B46D0020AE6D0020F04B010856555555D1
:102AF00010B5044610460A460146204600F072FE14
:102B0000204610BD3CB41446DFF8A052AA683AB97A
:102B1000049AA8606980204602B0194630BC01E0E2
:102B200033BC704718B4DFF88442A36933B929B1C4
:102B3000A2802162206111BC00F002B811BC704774
:102B40009A4A1169002900D17047F0B595885088DC
:102B50004019461C01EB800CDFF86843C2F814C032
:102B6000C5EBC507D2F820C004EA460401EB800E8D
:102B7000ACEB80037D0001EB8006ED1CAD08A644A4
:102B80001B1B0EEB850E26440027A3EB8503D660A6
:102B9000C2F818E01780D361D78040B153694FF66F
:102BA000FF74401E41F8047B23F8024BF9D100204A
:102BB000002109E0D368401C03F10C040C33655C70
:102BC00005F0DF055D540E319488A042F2D3F0BDCC
:102BD00030B4764A00889168C9B154880346A0424F
:102BE00007D201F1080003EB83018900405A30BC91
:102BF000704795886519AB4209DA1B1BD068C3EB97
:102C0000C30200F108015200885A30BC70474FF6E9
:102C1000FE73984206BFAC480088002030BC704765
:102C2000624A00889168B9B1B2F802C003466045B3
:102C300005D203EB830001EB800040897047918847
:102C400061448B4208DAD068A3EB0C03C3EBC302E8
:102C500000EB4202508970474FF6FE71884202D164
:102C60009A4800887047002070477CB54F4B098810
:102C70009A6852B35D880C46A94216D204EB8403CD
:102C800002EB8302B2F90C40ADF80040B2F90E50ED
:102C9000ADF80250138AC3F30C03ADF80430528A26
:102CA000C2F30C02ADF8062022E09E88AE19B442B1
:102CB0000BDAD968641BC4EBC40202B001EB420119
:102CC0000822BDE8704000F003B94FF6FE73994248
:102CD0000BD100247C4B00947C4A1C5FB2F900505D
:102CE000ADF80440ADF8065002E0002200920192D7
:102CF0006946082200F0ECF873BD10B46F4A916881
:102D000089B354880088A042034613D203EB8300A2
:102D100080000A18138A08310C5AC3F30C03A3422B
:102D20001ED3508A518910BCC0F30C0088428041E8
:102D3000C00F704790882018834214DA1B1BC3EB26
:102D4000C3014800D1680A18B2F9043001F108043F
:102D5000205A8342A2BFB2F906105289914202DA88
:102D6000012010BC7047002010BC704701884FF64E
:102D7000FF70814201D1002070474FF6FE729142F0
:102D800003D14F480168486C70474C4A10690028CD
:102D90001EBF0B4650F82300002804D1906801EBB9
:102DA000810291004058704700000000806C0020B4
:102DB00070B400884FF6FE7102468A4241DA3F49FC
:102DC0004B8898421FD2886802EB820300EB830392
:102DD0005868B0B3096900291CBF51F822100029B6
:102DE00030D01A8958891C8A4243588A640B400B98
:102DF00040EAC40070BC0B2818BF5200D21C9208D5
:102E000001EB8200704788881818824219DAD31AB9
:102E1000C3EBC304CB6860001D182E7B06F01F06B1
:102E20000B2E0ED103F108040A33255A185A0969EA
:102E3000454351F82220ED1CAD0802EB850070BC23
:102E40007047002070BC704730B41C4A9168F1B1E3
:102E500003885588AB420BD203EB830001EB800063
:102E6000018A408A490B30BC400B40EAC1007047E0
:102E7000918869188B420ADAD0685C1BC4EBC402E3
:102E800000EB4202107B30BC00F01F00704700884E
:102E90004FF6FE7188420CD1094A116891F876000C
:102EA00000281ABFC86C0028886801680A6A30BC0C
:102EB0001047002030BC704700000000806C0020EC
:102EC000B46D0020FCFF0100AA6D0020AC6D002055
:102ED00062B38B0708D0521E11F8013B00F8013B8A
:102EE00000F024808B07F6D1830740F0208000BFDC
:102EF000103A07D330B4B1E83810103AA0E83810CF
:102F0000F9D230BC530724BFB1E80810A0E808107C
:102F100044BF51F8043B40F8043BD20724BF31F8CA
:102F2000022B20F8022B44BF0B7803707047121F4E
:102F300017D35B0009D151F8043B20F8023B1B0C6E
:102F4000121F20F8023BF6D20BE051F8043B00F8C8
:102F5000013B1B0A20F8023B1B0C121F00F8013B2F
:102F6000F3D238BF121D521E24BF11F8013B00F8E6
:102F7000013BF8D8704730B4002513E050F8042B1B
:102F8000D30744BFA9F101039A18091F042942F885
:102F9000045BFAD213468C0744BF15809B1CC907FB
:102FA00048BF1D7050F8041B0029E7D130BC7047A2
:102FB0002B4A1378012B00D0704770B42A4C0A8832
:102FC000B4F90050B0F900306E1EB61A06800B80BE
:102FD00070BC704722490A78012A00D0704730B48B
:102FE000204C4188B4F90050B0F90630B0F9002007
:102FF0006D1AED1A0580B0F9041042808380C180FB
:1030000030BC7047000078B50446164E1748B6F934
:103010000030B0F9005083B000220021009501A8D3
:1030200000F013FC0146204600F002F804B070BD29
:103030000B4A1378012B00D0704730B44588B0F9A3
:1030400004200488058089881419631E4C1EE31A25
:103050004380C388C280838030BC7047000000007A
:10306000A86D0020AA6D0020B06D0020AC6D00207E
:1030700010B5044600F0F2FB60680168CA6890472A
:10308000E06801688A68904723682046D96DBDE8EA
:1030900010400847F0B583B004462168D1F8982065
:1030A0009047002800F0A180012004F1580500F0AD
:1030B0006FFCA87B0021A97304F14A06E8737170C4
:1030C000687F30B121682046D1F8AC2090470020BD
:1030D000687731786268DFF83465481E8041C00F38
:1030E00050720120307000F0CCFC02680121936B1B
:1030F0009847E87B08B90121E97300F0C2FC026837
:1031000051698847286803681A699047287CE97BD9
:10311000491EE97300281CBFC9B20029EDD170789F
:10312000401C707095F90C1040B2884216DB0020EC
:1031300001AA7070E06802A90368DE68B04738B180
:103140002368019A02992046D3F8A460B04705E0AD
:103150002168204601F1A4025368984700208DF8A9
:103160000000606950B102686946D368984728B189
:1031700028689DF800100268D368984704F11C0085
:1031800001F0F8F8287D50B3206901680A6990477A
:103190000646A86900B9AE61A869DFF87414301A50
:1031A00088421CD32069DFF86C74026891698847F3
:1031B000AB69F31AA3FB07729209B0FBF2F0012886
:1031C000B8BF642004DB6428ACBF0020C0F16400F9
:1031D0006873206900210268D3699847AE6100F0E6
:1031E00050FC02680021936B984721682046D1F873
:1031F0009C209047012000F0D9FB0020DFF80C1440
:10320000087003B0F0BD000000BF012100F84B1FA3
:1032100081777047426801215172406801680A69EC
:103220001047406801688A68104710B50446DFF807
:10323000E813087858B994F84820022A07D0606843
:1032400001F03BFA18B16068407A0028FBD000F02A
:103250001AFB2046BDE8104001F03CBA00F025BB47
:103260002DE9F0434FF0000983B004460D461646A1
:10327000CDF808900A99A06902AADFF88C73019230
:1032800098460091D0F800E032462946DEF80090DA
:10329000C847A7F80680F968814691F876000028AB
:1032A0001ABFC86C0028886801680A6A904710B184
:1032B000012808D00FE0F888029B464370194000AF
:1032C0004042191806E0F888029A46437019A0EBAC
:1032D00080001118E163484603B0BDE8F08330B4C4
:1032E0005BB102F0010001F00104A04208D012F825
:1032F000015B5B1E01F8015BF9D1012030BC704716
:10330000D00704D512F8014B5B1E01F8014B012BCD
:103310000CD902F0030001F00304A04208D09B1E68
:1033200032F8025B012B21F8025BF8D8012B0DD992
:1033300012F003000AD032F8024B9B1E21F8024B18
:1033400004E052F8040B1B1F41F8040B032BF8D8C0
:10335000002BD2D012F8010B5B1E01F8010BF9D142
:10336000CBE72DE9F0478AB09146199C0026169AC2
:10337000179D0896022C05D0FF2A06BF002D0125B7
:10338000042504E0FF2A0ABF002D40252025984689
:103390004B460295DDF854C0DDF850E0DDF84CA056
:1033A0001A9D0391189E0493129FADF818A08146B0
:1033B000ADF81AE0ADF81CC08DF8242001F08AF9B0
:1033C0000346019500963A464146484600F0F6F815
:1033D000059002A9ADF81E608DF825408DF82650A5
:1033E000D9F804000268536898470AB0BDE8F0872E
:1033F0002DE9F04FDFF810928BB0D9F80C408446DD
:103400009A46179D169E159F94F87600DDF8508019
:10341000934600281ABFE06C0028A0680991189C08
:10342000CDF828C00368D3F820C0E0470890099978
:103430000790B9F8060005945B4606900A98049533
:10344000002203960297CDF80480CDF800A0FFF784
:1034500088FF82E02DE9F04F8BB06B4FFD6804468A
:103460008A46169EDDF85490DDF8508095F8760077
:1034700000281ABFE86C0028A868ADF80830179D2E
:10348000ADF80A2001680A6A90478346FF88002346
:10349000CDF810A040220993039220460593ADF881
:1034A0001C80ADF81E90ADF820608DF8285001F01A
:1034B00011F9CDF804B003460097BDF80820BDF817
:1034C0000A10204600F07AF802220690ADF8227029
:1034D00003A98DF829208DF82AB060683AE02DE91B
:1034E000F04F8BB00025169CADF808200995189D6B
:1034F000179E159FFF2CDDF8508099468A4683461B
:1035000014BF4FF0080E4FF0020E0022CDF80CE071
:10351000049201F0DFF8BDF80810034601951FFA88
:1035200089F20096584600F049F800230690ADF85D
:103530001C8003A9ADF81E70ADF82030ADF82260F4
:10354000CDF824A08DF828408DF829508DF82A5008
:10355000DBF804000268536898470BB0BDE8F08FB1
:103560002DE9F04F284F85B0FC6891468A46834686
:103570000F9D0E9E94F876209846002A1ABFE26CA2
:10358000002AA26811681046109C0A6A90470294AB
:103590001FFA88F301951FFA89F2009651460490AC
:1035A000F8880390DBF800405846656CA84705B0E2
:1035B000BDE8F08F81651C3000F0DABE18B40398C6
:1035C000002440B1401E08D0401E08D0401F0428EF
:1035D00006D8082404E0102402E0182400E0202487
:1035E0000298E41002FB00116143581812BC7047A6
:1035F000094A117829B190F86A00401E8041C00F35
:103600007047012070470000A86D0020D26E002096
:1036100001E1F5053E0AD7A3D06E002010B504469F
:10362000606801688A68904704F16901087808B108
:1036300001224A7010BD38B5044604F16905687866
:1036400070B1022000F0C0F9002120466970297095
:1036500001F040F8236801462046D3F8A040A04777
:1036600031BD10B584B00446029102A8039201F066
:1036700073F80398029AADF8040001A9ADF806208A
:103680000DF10600FFF794FC94F86B00A8B1BDF8AB
:103690000410BDF8063004F11C000091226EE16DAB
:1036A00092B289B200F073FEC8B1BDF90600E065C0
:1036B000BDF90410216604B010BDBDF80430BDF89A
:1036C0000620002104F11C0000F0AEFE012084F869
:1036D0006B00BDF90610E165BDF90400206604B079
:1036E00010BD10B5044694F86B0058B1236EE26D1E
:1036F000012104F11C009BB292B200F095FE002360
:1037000084F86B3010BD10B5044631B1032000F0D1
:103710003FF9206960B1012105E0032000F046F97E
:10372000206928B1002102685369BDE8104018479C
:1037300010BD2DE9F042B1F900308A88B0F900409F
:10374000D21816B2B442BFBF85882D190FFA85FC76
:10375000634514DAB1F90270B1F806E0B0F902C0BD
:10376000BE440FFA8EFEF445BFBFC68866440FFA0A
:1037700086F94F4503DAA34206DA234604E0002324
:1037800000248380002517E06446BC420FFA82FCC7
:10379000B8BF3C462FB26745B8BF2A46D21A458803
:1037A00082804E88C288C98855192DB28E1936B2CA
:1037B000B542C8BF35462D1BC58044800380BDE897
:1037C000F082416800290AD08168002905D1017B77
:1037D000C90704D5C068002801D0012000E00020FE
:1037E000C0B2704762F30F2262F31F42401810F01C
:1037F000030308D0C91A1FD3DB0748BF00F8012D07
:1038000028BF20F8022D130030B414461546103995
:1038100028BF20E93C00FAD8490728BF20E90C005E
:1038200048BF40F8042D890028BF20F8022D48BF6A
:1038300000F8012D30BC7047C91818BF00F8012DE1
:10384000CB0728BF00F8012D704710B4BDF9044024
:10385000018042808380C48010BC704710B53B4C0F
:1038600000220121012001F08DF820605FF0FF317E
:10387000206801F004F900220421012001F08DF9F3
:103880003349086010BD10B5304C2068002806D1BF
:1038900031223049304801F0B3FAAFF300805FF0D5
:1038A000FF31206801F0EBF810BD10B5274C2068FF
:1038B000002806D13A222749274801F0A1FAAFF3A0
:1038C0000080206801F028F910BD10B51F4C206859
:1038D000002806D147221F491F4801F091FAAFF393
:1038E00000800021206801F0CAF810BD10B5174C07
:1038F0002068002806D154221649174801F080FAA2
:10390000AFF30080206801F007F910BD10B5104C2E
:103910002068002805D0002300221049206801F00B
:10392000A4F910BD1CB50A4C206800280CD0002357
:1039300000226946206801F0F1F95FF0FF330022B0
:103940006946206801F0EAF913BD00000C6E002002
:10395000106E0020FC5A0108AC66010830000020FF
:1039600010B50024052C0FDA2000C0B200F03AF8A0
:10397000002807D0054850F82410012902D0012161
:1039800040F82410641CEDE710BD0000986D002085
:103990000100C9B2002905D0022905D003D30329AB
:1039A00003D002E001E000E0FFE770470100C9B288
:1039B000002905D0022905D003D3032903D002E052
:1039C00001E000E0FFE770470100C9B2002905D01F
:1039D000022905D003D3032903D002E001E000E06F
:1039E000FFE7704700210200D2B2002A05D0022A68
:1039F00005D003D3032A03D002E001E000E0FFE793
:103A0000C9B2012901D1012000E00020C0B27047F5
:103A100000BF38B50446DFF830192160DFF82C29E3
:103A200022600023A4F8843004F1A80001F0FAF920
:103A300004F1EA00DFF8185901F0F4F904F5967082
:103A40000021018041808180C18001724172DFF8D4
:103A50000419DFF8040901F0F3F910B100202881FE
:103A600006E04FF4806102202981286101F06DFA9F
:103A700000212046E9602961696100F0D5F92046FE
:103A800032BDDFF8CC08C0687047DFF8C4080069B1
:103A900010B1026893691847704770473EB500221D
:103AA000DFF8BC480092DFF8B438A25EB3F90050EA
:103AB000ADF804206946ADF806500268536B98478C
:103AC00003B030BDF8B505460C46DFF89008DFF8C6
:103AD000901884B0B0F90000B1F9001000220092F3
:103AE0000822ADF804102146ADF8060002A8FFF741
:103AF000EFF9694602A8FFF71CFE204602A908223A
:103B0000DFF84C68FFF7E4F9306908B395F8341131
:103B100069B1684621460822FFF7DAF9DDE900239A
:103B200011461A46284600F015F805B0F0BD0568A4
:103B30002146AF68B847B06918B10268214693685A
:103B40009847DFF8200821460068026853699847C3
:103B500005B0F0BD2DE9F64184B0804604A801F01F
:103B6000D5FC002840F09880B8F8E840002C00F020
:103B70008B80641E75D408F1A8050B26A7B2684691
:103B800005EBC7010822FFF7A3F904A9684601F075
:103B9000CAFC002840F08080694604A801F0C3FCFC
:103BA00028B1A2B2294602A801F0DFFC57E004A91F
:103BB000684601F003FDC8B1B8F8E810A2B28A4225
:103BC0000FD2A0B2491E1FFA81FC6045A8F8E81088
:103BD00007D289B205EBC70005EBC1010822FFF748
:103BE00077F9694604A801F00BFD38E0DDE904012E
:103BF000CDE90201694602A801F002FDBDF90430D9
:103C0000BDF906C0BDF90C00BDF90E1013FB0CFC8C
:103C100010FB01F1BDF9140001EB8102BDF9161092
:103C200010FB01C070435200824218DAB8F8E81065
:103C3000A2B28A420FD2A0B2491E1FFA81FC60458F
:103C4000A8F8E81007D289B205EBC70005EBC1015F
:103C50000822FFF73DF9DDE90201CDE90401641E08
:103C60008CD5B8F8E80008280ED1072208F1A80181
:103C700002A801F07AFC684602A90822FFF728F999
:103C8000694604A801F0BCFCDDE904010A460146CE
:103C900008F1A80001F011FD06B0BDE8F081DFF8E1
:103CA000B006006910B10268D36918477047DFF8A1
:103CB000A006006910B10268136A184770472DE921
:103CC000F8430446DFF888566869C0B1017A39B90B
:103CD000002284F8352103689968BDE8F443084759
:103CE00094F8350158B9286910B101680A699047FC
:103CF00068690168CA689047012084F8350104F1B9
:103D00008808002746460BE0307838B1211DBAB24A
:103D100051F822000368D3F850C0E0477F1C761C9E
:103D2000B4F884108F42EFDB002100224346271DA8
:103D300012E0187870B18A420BD01FFA82FC201D65
:103D400057F82CE08EB240F826E093F8009008F87F
:103D50000190491C521C5B1CB4F884008242E8DBD1
:103D6000B4F88400814214DA421E93B28342F7D23F
:103D700092B2201D00EB820003E04368521C40F821
:103D8000043BB4F884309A42F7DB581EA4F8840050
:103D9000E6E7286920B101684A6ABDE8F2431047A6
:103DA000BDE8F183D0B40022061D00E0521CB0F83B
:103DB000843094B29C420ED293B256F823708F4254
:103DC000F4D1184490F88810FF2913D0491C80F8CA
:103DD0008810D0BC7047012200F18804E254B0F88A
:103DE00084201346202B05DA521CA0F88420001DE5
:103DF00040F82310D0BC704770B4002300E05B1C77
:103E0000B0F884409AB2A2420CD200EB82056E68F0
:103E10008E42F4D1841894F88820002AEFD0501EE6
:103E200084F8880070BC70470021A0F8841020211D
:103E3000883001F067BC2DE9F04F804697B008F557
:103E40009570817219B10021A8F8E81071E208F5A7
:103E5000967001F05BFB98B9684608F596710822E8
:103E6000FFF736F8DDE900010A4601464046FFF754
:103E700071FE08F59570002242808280C280028126
:103E8000B8F8E800DFF8C844451EAD41A069ED432D
:103E9000ED0F88B1204601F039FB68B92046FFF7E5
:103EA00099F8D4E900010A4601464046FFF752FE60
:103EB00000222260626002E0002D00F0DF8104A891
:103EC00000F0B0FF25892E4618E008F1A801B2B233
:103ED00001EBC20168460822FEF7FAFFBDF8500068
:103EE0000146082909DA401C0822ADF8500004A850
:103EF00000EBC1006946FEF7EBFF761CB8F8E8104E
:103F0000B0B28842E1D308F5957610E008F1EA02F4
:103F1000ABB202EBC301684608226D1CFEF7D8FF66
:103F2000DDE900010A4601464046FFF713FE3288EC
:103F3000A8B29042EAD3DFF82C54286890F84800E1
:103F4000012840F08480002720890CE008F1A801B6
:103F500082B201EBC2014A88CB889A1812B297420A
:103F6000B8BF1746401CB8F8E8108842EEDBDFF80F
:103F7000EC03DFF8ECA30688F608022EB8BF012692
:103F800000210091019109E0884201DA002921DC39
:103F9000286801210268D2F880309847BDF80200F5
:103FA000BDF80610081800B2B8422868026880F20E
:103FB000668102F11C03996E8847BDF80220BDF8A6
:103FC00006309A1811B273189842B8BFB842DBDBBA
:103FD000884201DA3B4603E03B468742C8BF0346BE
:103FE000BAF90090ADF8022000209A1AADF80490BA
:103FF000B4F80890ADF80000ADF80620B8F8E81065
:104000001FFA89F08842C9D208F1A8021FFA89F381
:1040100002EBC30115A80822FEF75AFF694615A84E
:10402000FFF787FBDDE91501CDE90201BDF90C20A1
:10403000002AC4BFBDF90E00002805DDD8F8002015
:1040400002A94046536B984709F10109D6E70228B7
:1040500040F0D980C4480178012940F0848008F1FB
:10406000A80921E02868009193B2BDF80620BDF8A8
:104070000410D0F800E0DEF87870B8470746ADF8D5
:104080000A0001A8FEF7A6FFD8F8002001A94046C3
:10409000536B9847B088C71BB7803FB227B95246C9
:1040A000494615A801F061FAB8F8E800002800F0C8
:1040B000E8804FF0000AB9F9007020890DE0BA429B
:1040C0000BDB174609E08A42F9D1B6F906108B429C
:1040D000B8BF8246BC4500DB6746B8F8E810401C14
:1040E00080B209EBCA06884280F0D58008EBCA028C
:1040F0003188B38809EBC006B6F900C05918B2F987
:10410000AE30B28809B2624412B29142DBDA0F4695
:1041100067458246E1DADFE7286892B200928AB208
:10412000BDF804109BB2D0F800E0DEF878B0D847B4
:10413000ADF80A00D8F8002001A94046536B984713
:10414000B9F80000BDF80A100818A9F80000FA88AC
:10415000BDF80A00101AF88000B220B95246314664
:1041600015A801F002FAB8F8E800002800F08980EC
:1041700008F1A8064FF0000A7288F088821812B27F
:1041800020890FE091420DDC0BE0FBD1BEF902303B
:10419000BEF804909C45494409B2B8BF82468A42A1
:1041A00000DB0A46B8F8E8C0401C80B2604580F0E9
:1041B000968008EBCA0108EBC00931F9AA3FB1F9B2
:1041C00002C009F1AA0EBEF900109942DDDA06EB31
:1041D000C0090A468246B9F806108A1812B29342FC
:1041E000E0DA1A46DEE7B9F800C0B7F806E0F444B2
:1041F0000FFA8CFB1FFA82FEABEB01008645A8BFCD
:10420000ACEB010288E72589B8F8E810A8B288422B
:1042100037D208F1A802ABB202EBC301684608220C
:10422000FEF756FEBDF904000028C4BFBDF9061014
:10423000002905DDD8F8002069464046536B9847B1
:104240006D1CE1E704A9A2B201EBC2016846082295
:10425000FEF73EFE28880146082909DA401C08229C
:10426000288008F1EA0000EBC1006946FEF730FE45
:10427000641CBDF85010A0B28842E3D359E0D36962
:1042800098473A4908780028F8D008F59575002233
:104290002A802489EDE701A831460822FEF718FE9E
:1042A000BDF90810BDF8042001A81429B8BFBDF954
:1042B00004708918C91BADF80810ADF80470FEF73A
:1042C000A2FEBDF90820002AC4BFBDF90A100029CA
:1042D0007FF7EAAE1429CCBF142189B2C2E606EBFF
:1042E000CA07B7F906000146142902DA7A8882184B
:1042F00012B2B7F904000028C8BF00297FF733AF16
:10430000002101910291B7F90090ADF8049007F1F6
:10431000020939F90110A2EB010CBCF1140FADF840
:104320000610B7F90430ADF80830CCBF1422521A89
:1043300059E717B0BDE8F08F0548006910B1026871
:10434000936A18477047000078630108B85E010857
:1043500078000020CDB5E8B5C2A507F4AC6D00200B
:10436000AA6D0020B46D0020A86D0020D06E002042
:1043700001617047817B49B10189491C018189B282
:10438000082903DB002141818181817370472DE978
:10439000F0410E4684B00546174698460A9CB5F98A
:1043A0000620B5F90430ADF80A80BDF80A10ADF862
:1043B0000630BDF80600DFF824C14FF0000ECDF83E
:1043C00000C08DF804E0081A01B20029ADF80820F9
:1043D000ADF80C4044BF08464042A98A00B2814271
:1043E0000ADBBDF80800201A02B2002A44BF1046BA
:1043F000404200B2814213DA28696946A8EB0606FA
:10440000E71B0268536898474FF0000C0120A5F89D
:1044100008C06E81AF81A5F80480EC80A87300E02D
:10442000002004B0BDE8F0812DE9F8410D46012DD2
:1044300083B004461646984618BF022D32D1B4F90F
:104440000A20D01C072813D3B4F90630B4F904E0CD
:1044500023480027009069468DF80470ADF80620C7
:10446000ADF808E0ADF80A30206902689368984713
:10447000B4F90C20D01C07281ED3B4F90630B4F9C7
:1044800004E017490127009169468DF80470ADF8E2
:104490000620ADF808E0ADF80A302069026893689C
:1044A000984709E0280007D10020A680A4F80680DC
:1044B00020816081A081A0730A4A8DF80450009287
:1044C0000022ADF806606946ADF80880ADF80A2014
:1044D0002069026813689847A3E70000486901084B
:1044E0005C6901083469010800BF3B4B036041600F
:1044F00000218260C16001617047C168006981422A
:1045000001D101207047002070470269C168511A2B
:104510000129BCBF80684118012901DC01207047D6
:104520000020704738B50446E3682269D21A012A90
:10453000BCBFA0688218012A0CD965681F2205EB50
:10454000431001F0E2F8E068A168401C884228BFEF
:10455000401AE06031BD01698268491C914228BF60
:10456000891A016170474168006901EB401070478A
:1045700010B50446606801680A68904748B9617AD6
:1045800039B1207A28B9216820464A6ABDE810402E
:10459000104710BD01680A69104770B504460D4602
:1045A000606801684A6890470028F9D10B4E30686E
:1045B00001684A6E9047FFF788F9606829460268EB
:1045C0009368984721682046CA6A90473068036814
:1045D000196EBDE8704008475C640108B46D0020A6
:1045E00080B5FFF750F9BDE80140FFF75EB938B577
:1045F0000446012160682172026891698847054676
:104600002B68012B31D0022B25D0042B0BD0082B8B
:1046100015D0202B18BF402B27D0802B18BFB3F507
:10462000807F22D031BD2268297F2046936B984736
:10463000204624682946226BBDE83840104723688D
:10464000297F20469A6B9047204624682946636B51
:10465000BDE83440184721682046CA6B904723685C
:10466000204629465C6BA04731BD21682046CA6BB5
:1046700090472368204629461C6BA04731BD10B5E2
:104680000446606801680A68904738B9207A28B102
:10469000606801684A69904700202072606801687C
:1046A0000A68904728B923682046596ABDE8104037
:1046B0000847BDE81040FFF719B980B540680168A8
:1046C0000A689047FFE7401E8041C043C00F02BD0B
:1046D0007047704710B504460649087840B1226813
:1046E0002046916A8847E36B984201D1206C10BD47
:1046F000E06B10BDD06E0020F0B5044601271046D7
:10470000002C059A069D079E4FF0010E44BF64429F
:104710004FF0FF37002A44BF52427F42002D42FA39
:1047200001FC0EFA01F144BF6D427F42491E114067
:10473000614334680CFB034391FBF5F20CFB002052
:10474000C91805FB1211316091FBF5F3181805FB30
:10475000131131607843F0BDF8B5254D84B004469F
:10476000A8692668676800283ED0A96800EBD07267
:1047700003AE019001EB6201029603912068009064
:10478000EB6BEA6AE9692868FFF7B6FF03AAA96933
:10479000064602920191606800902B6C2A6B296A90
:1047A0006868FFF7A9FF8619A869696903AB00EB80
:1047B000D072029301EB6201019003912068009096
:1047C0006B6C6A6B696AE868FFF796FF074603A897
:1047D000A9690290019162680092AB6CAA6BA96A08
:1047E0002869FFF789FFC7192660676005B0F0BD2B
:1047F000D06A00207047EFF3058000280CD1EFF35A
:104800001080002803D1EFF31180002807D0DFF8D3
:1048100070010068022802D17FF005000AE0DFF88D
:1048200060110868002803D101200860002001E021
:104830005FF0FF30704710B5EFF3058000280CD112
:10484000EFF31080002803D1EFF31180002807D088
:10485000DFF82C010068022802D17FF005000EE08D
:10486000DFF81C412068012807D1FFF7C3FF0220B1
:10487000206001F0A8F8002001E05FF0FF3010BDDB
:104880002DE9FF4707008846140000200390EFF34E
:10489000058000286FD1EFF31080002803D1EFF3DB
:1048A0001180002804D0DFF8D8000068022862D008
:1048B000380000285FD080208246182005000020A4
:1048C00081465FF0FF300600002C33D020680028BE
:1048D00001D020688146A069002801D0A0690500A8
:1048E000002D04D0392D02D22079C00701D5002037
:1048F00042E06069002802D0606980088246A068B2
:1049000000280BD0E068602808D32069002805D073
:104910006069002802D0012006000DE0A068002890
:104920000AD1E068002807D12069002804D10020BE
:10493000060001E000200600012E0CD1A0680290C4
:10494000206901900095434652464946380000F0E0
:10495000EFFE03900FE0002E0DD103A8019000950B
:104960004346524692B24946380000F02EFF0128D5
:1049700001D000200390039804B0BDE8F087000048
:10498000EC6D00202DE9F84306000F00140000250F
:10499000EFF3058000286FD1EFF31080002803D1DA
:1049A000EFF31180002804D0DFF83C0400680228EF
:1049B00062D0002E60D0BE425ED35FF0FF308046F2
:1049C000002C11D0A068002805D0E068502802D340
:1049D000012080460AE0A068002807D1E06800288E
:1049E00004D10020804601E00020804618F1010F2C
:1049F00042D0012E24D1B8F1010F09D1032000903B
:104A0000A36800220021012001F0D4FC050005E08C
:104A100003220021012001F02EFD0500002D1ED0F3
:104A2000002F1CD0002300220021280001F0B0FD3F
:104A3000012814D0280002F031F9002005000EE012
:104A4000B8F1010F06D1A2683900300001F05CFD19
:104A5000050004E03900300001F07AFD0500002D6A
:104A60000AD0002C02D02068814601E00020814657
:104A70004946280002F0F2F92800BDE8F283F8B5B3
:104A800006000C0035000027002D03D17FF0030045
:104A900007003FE0EFF3058000280CD1EFF3108012
:104AA000002803D1EFF31180002824D0DFF8380369
:104AB000006802281FD1002C03D07FF003000700FC
:104AC00028E0002000906A460021280002F08EF8BD
:104AD000012803D07FF0020007001BE000980028A7
:104AE00018D05FF08050DFF804130860BFF34F8FD9
:104AF000BFF36F8F0EE02100280001F0A3FF012813
:104B000008D0002C03D07FF00100070002E07FF006
:104B1000020007003800F2BD7CB505002C0000261D
:104B2000002C03D17FF00300060034E0EFF3058092
:104B300000280CD1EFF31080002803D1EFF311808F
:104B400000281DD0DFF8A0020068022818D100203C
:104B500000906946200001F05EFE012803D07FF03E
:104B60000200060017E00098002814D05FF0805083
:104B7000DFF878120860BFF34F8FBFF36F8F0AE042
:104B8000002300220021200001F002FD012802D0B4
:104B90007FF002000600300076BD2DE9F8430500E5
:104BA0000E0014005FF00008EFF30580002859D1D3
:104BB000EFF31080002803D1EFF31180002804D018
:104BC000DFF82402006802284CD0002D4AD0002EC5
:104BD00048D05FF0FF300700002C1FD0A0680028ED
:104BE0000DD0E06850280AD32069002807D06069FA
:104BF00006FB05F1884202D30120070010E0A068FF
:104C000000280DD1E06800280AD12069002807D1CA
:104C10006069002804D10020070001E0002007009F
:104C2000012F09D100200090A368226931002800DB
:104C300001F0C0FB804607E0002F05D100223100C3
:104C4000280001F018FC8046B8F1000F0AD0002CB3
:104C500002D02068814601E0002081464946404656
:104C600002F0FCF84046BDE8F2832DE9F843070066
:104C70000C0090461D003E005FF00009EFF3058038
:104C800000280BD1EFF31080002803D1EFF311803F
:104C9000002827D054480068022823D1002E03D0D2
:104CA000002C01D0002D03D07FF00300814632E0BC
:104CB0000020009000236A462100300001F03BFDF7
:104CC000012803D07FF00200814624E000980028EC
:104CD00021D05FF0805045490860BFF34F8FBFF38C
:104CE0006F8F18E0002E01D0002C03D17FF003005D
:104CF000814610E000232A002100300001F048FC2A
:104D0000012808D0002D03D07FF00100814602E089
:104D10007FF0020081464846BDE8F2832DE9F84362
:104D200007000C0090461D003E005FF00009EFF305
:104D3000058000280BD1EFF31080002803D1EFF39A
:104D40001180002826D028480068022822D1002E91
:104D500003D0002C01D0002D03D07FF0030081464A
:104D600030E0002000906A462100300001F03EFF54
:104D7000012803D07FF00200814623E0009800283C
:104D800020D05FF0805019490860BFF34F8FBFF308
:104D90006F8F17E0002E01D0002C03D17FF00300AD
:104DA00081460FE02A002100300001F096FD012825
:104DB00008D0002D03D07FF00100814602E07FF093
:104DC000020081464846BDE8F283094B0360094B67
:104DD0000B60802313607047074B0360074B0B6029
:104DE0004FF4807313607047EC6D002004ED00E019
:104DF00088680020CC5F0020E8680020CC5B0020A1
:104E000000B583B00091019202906A4604491820CF
:104E1000ABBE002801D1FCF78DFC03B000BD00BF84
:104E20001010020038B5044608230822034902F096
:104E300065F800252046A4F8405032BDDD7F00080B
:104E400002461B48F0B4046800234CF24026640874
:104E500064000460174C25684FF6F0700540B542B9
:104E60001FBF246820404CF27027B84212D1124D67
:104E7000286878B911480468C4F30B04B4F58A6F44
:104E80001FBF0068C0F30B0040F28344A04208BF7C
:104E90000B4C00D00B4C0125A560A0680028FCD16C
:104EA00022602268F0BC8A4208BF0123184670477E
:104EB000002000E000ED00E0002004E00010005CB5
:104EC000004C02580030024000BF1CB50446DFF819
:104ED000C8152160201D02F037F80022002022634F
:104EE000DFF8B815A2860122E08684F838200B5E30
:104EF000DFF8AC0500220093B0F900300021201D3E
:104F000002F030F8204616BDF8B584B004460D46D0
:104F1000684604F108010822FDF7DAFF29466846D1
:104F2000FEF707FCDDE90067CDE9026794F8380079
:104F300002A9002804D0204600F01BF805B0F0BDFF
:104F4000201D02F03AF805B0F0BD3EB50022DFF8B2
:104F500050450092DFF84435A25EB3F90050ADF839
:104F600004206946ADF8065002689368984703B07C
:104F700030BD38B5044600230D4600936A46201D17
:104F800002F09AF8009820B102462946204600F027
:104F900001F831BD2DE9F84F86B080460D46144624
:104FA000B5F904000128C0F29D80B5F90610012969
:104FB00080F29980FCE0E469002C40F09480F7E0F6
:104FC000B5F902304B4510DAA9EB0301B5F904201D
:104FD000ADF800004046ADF80230ADF80420ADF861
:104FE0000610E2696946FFF7D5FFB5F90000B04247
:104FF0000DDA321AADF80000ADF802906946ADF84E
:1050000004204046ADF806B0E269FFF7C3FF2A88E6
:10501000A9888A18B9190BB20FFA82FE73450EDA05
:10502000961BF61BADF800106946ADF8029040469D
:10503000ADF80460ADF806B0E269FFF7ABFF6A882F
:10504000E8880BEB0903821818B20FFA82FC60455E
:1050500014DAB5F90000A2EB0909B5F904E0A9EBEF
:105060000B09ADF800006946ADF802304046ADF8D6
:1050700004E0ADF80690E269FFF78CFF204602F0ED
:105080005BF8824602A829460822FDF721FF514617
:1050900002A8FEF74EFB04A802A90822FDF718FF9C
:1050A000684604A90822FDF713FFBDF90400012892
:1050B000A4BFBDF90610012914DB204602F05BF8FD
:1050C000BDF80010081AADF80000204602F067F89D
:1050D000BDF80210081A6946ADF8020022682046A1
:1050E0009368984764E0204602F026F8294600F0CD
:1050F00065FA00283FF45FAFE0690028BED022685F
:10510000214602A8D3689847204602F048F8824614
:10511000204602F030F8BDF80810BDF80C20081841
:10512000BDF80E10ADF80000BDF80A00ADF806108D
:105130002946ADF8042082446846ADF802A0FEF787
:10514000F8FA02A869460822FDF7C2FE204601F0DF
:10515000F3FF8246684602A90822FDF7B9FE5146D0
:105160006846FEF7E6FABDF90060B5F90000BDF942
:105170000290BDF90470BDF906B0864204BFB5F9CE
:105180000230994508D1B5F90420974204BFB5F91A
:1051900006309B453FF472AF002F18BFBBF1000FE4
:1051A0007FF40EAFE26929464046FFF7F3FE65E75C
:1051B00007B0BDE8F08F2DE9F04F89B005460E46E7
:1051C000296B307911B1002800F0E580002840F00B
:1051D000BA80B4480023016891F84920AB86EB8679
:1051E000501E0328C0F2A680AF4B002180FB034372
:1051F00029638846A94803EBD37C415EA84B4FF056
:10520000FF37B3F900004FF0010EBCF1040FA8BF47
:105210004FF0030CBCF1010FC0F2BD800892CDF835
:1052200014C0CDF804E00392DDF804C0039C059A95
:10523000ACF1010CBCF1080F94FBF2F36EDC9B4A5D
:10524000019C02EBC40CADF80A10ADF80800C4F1E3
:105250000904A41C04EBD474ACF108090493641091
:10526000002304980093D9F80020D9F8041012FB09
:1052700000FA328911FB00FBF18851440FFA81FCDE
:10528000BCF1000F5A4441D4BDF908E00BB273459C
:105290003CDA13B2002B39D4BDF90AC010B2604514
:1052A00034DA6B4612B209B2281D01F0C6FEDDF8F1
:1052B00000C0BCF1000F18BFC44527D0614606A846
:1052C00001F0EBFFB6F90620BDF91800BDF91C107E
:1052D000B6F90830101ABDF91A2001EBD171A0EB14
:1052E0006100BDF91E109A1A01EBD171A2EB6102A7
:1052F000524300FB0020B84208D2DDF80080074688
:10530000C5F83080A5F834A0A5F836B0641E09F1C0
:105310001009A5D1BDF90A10BDF90800019B039C35
:10532000059A5B1C0193089B1C190394019CA242E3
:1053300009DB79E7B6F90820B6F9061005F1300364
:10534000281D01F07AFE296B29B303A801F0A5FFFF
:105350003189E88EBDF80E30F788BDF80C403279FF
:105360004118CB1AA98E8DF804200022ADF8083020
:10537000ADF80A20CF193C1B4D4FADF80640009701
:10538000286B69460268536C9847307918B1002140
:105390002963A986E98609B0BDE8F08FF8B588B021
:1053A00004460D46216B002973D0684601F075FF55
:1053B000B4F93430EF88B4F936102A89BDF90060A9
:1053C000DF1938B28A18B04239DBBDF80060BDF889
:1053D00004003FB2861930B2874230DABDF90200CC
:1053E00017B287422BDBBDF8067012B23F180FFAD6
:1053F00087FE724523DAB5F80AC0AA89BDF900E034
:1054000063440FFA83FC8918F4450ADB1BB236B2F9
:10541000B34206DA0AB2824203DB09B23FB2B942B2
:105420000DDB23490222002300918DF804206946F8
:10543000ADF806300293206B0268536C9847216BDD
:1054400002A801F02AFFB4F93630AE89BDF90A107E
:10545000B4F93420BDF808009E19761A36B20196C8
:105460006F89D7193F1A3FB2BDF8080000972E89FF
:105470009B195B1AE9881BB25218121A297912B2C9
:1054800004A801F073FF226B014610461268D36C2A
:10549000984709B0F0BD0000B8610108AC6D00206C
:1054A000AA6D0020B46D002056555555585D010871
:1054B0003469010838B586B004460D46216BE9B160
:1054C00001A801F0EAFE6A89E18EBDF806008A189B
:1054D000121A12B200922B89A18EBDF80400B5F900
:1054E0000620CB1829791B1A1BB203A801F04EFF26
:1054F000226B014610461268936C984707B030BD86
:105500000A46011D1046126893691847B0F9041045
:10551000012903DBB0F90600012801DA012000E0CF
:105520000020C0B27047F0B4B0F90040B1F90050AB
:10553000A542A2BFB0F90260B1F90270B74211DB17
:1055400083888A881C1924B255192DB2AC4209DB14
:10555000C088C988861936B2CF193FB2BE42A8BFEB
:10556000012000DA0020F0BC70472DE9FC4188469C
:105570000021009116460191B8F84070B5B204467A
:10558000BD4214D208EBC50168460822B6B2FDF749
:105590009FFC791E8FB2BE42A8F8401007D289B294
:1055A00008EBC50008EBC1010822FDF791FC20467D
:1055B00069460822FDF78CFCBDE8F38150B4B1F9CF
:1055C00000308E88B0F90040F61836B2B442BFBF42
:1055D0008288141924B2A3420FDAB1F90220C988D3
:1055E000B0F90230891809B28B42BFBFC088C31816
:1055F0001BB29A42B8BF012000DB002050BC7047AC
:10560000F8B504000D002800FFF780FF002853D1F3
:105610002000FFF77BFF002808D0288820806888BA
:105620006080A888A080E888E08045E0B4F90000A8
:10563000B5F90010884202DAB4F9001001E0B5F9BA
:105640000010B4F90200B5F90220904202DAB4F970
:10565000022001E0B5F90220280003888088C318E1
:1056600020000688808886191BB236B2B34204DA5D
:10567000200003888088C31803E0280003888088FE
:10568000C31828004688C088861920004788C0882B
:10569000C71936B23FB2BE4204DA20004688C0883D
:1056A000861903E028004688C08886192180628018
:1056B000581AA080B21AE280F1BD1CB513460A4602
:1056C000B0F840100C46082C0ADACDE90023491C3A
:1056D0000822A0F8401000EBC4006946FDF7F8FB73
:1056E00013BD416800290AD08168002905D1017BDA
:1056F000C90704D5C068002801D0012000E00020BF
:10570000C0B27047002201F04FBE10B50446FDF74D
:10571000DFFB204610BD09061206090C520D01F4EC
:10572000784102F4FC6211431B0641EAD3607047E2
:105730002DE9F84785B006000F00904699460F9C6A
:10574000109D002C07D1502080F31188BFF34F8F9C
:10575000BFF36F8FFEE7002D07D1502080F3118833
:10576000BFF34F8FBFF36F8FFEE76020009000986C
:10577000602807D0502080F31188BFF34F8FBFF30C
:105780006F8FFEE70098002D19D0002C17D0AA4685
:10579000CAF8304002208AF85D0000200390CDF85E
:1057A00008A004A801900E9800904B46424639008C
:1057B000300000F043F8504600F0B6F801E0002059
:1057C0000490049806B0BDE8F0872DE9F84384B052
:1057D00006000F0090469946404680B2800001F0D6
:1057E00005FE0500002D0BD0602001F0FFFD040038
:1057F000002C01D0256304E0280001F087FE00E0C2
:105800000024002C15D0002084F85D0000200390B7
:1058100002940D9801900C9800904B46424692B22B
:105820003900300000F00AF8200000F07DF8012077
:1058300001E05FF0FF3005B0BDE8F0832DE9F94FDE
:1058400081B00C0016000C9F0D9DDDF83880B00073
:1058500000905FF0A50BD8F830A05A46009950464A
:10586000FDF7C0FFD8F8300000EB8600B0F1040A65
:105870005FEADA0A5FEACA0A1AF00700002807D0CE
:10588000502080F31188BFF34F8FBFF36F8FFEE777
:10589000002C15D000208146B9F1100F0CD214F85D
:1058A000090008EB090181F8340014F80900002808
:1058B00002D019F10109EFE7002088F8430002E067
:1058C000002088F83400382F01D337200700C8F8AB
:1058D0002C70C8F84C700020C8F8500018F1040073
:1058E00001F0CDFE18F1180001F0C9FEC8F81080D3
:1058F000D7F13800C8F81800C8F824800020C8F88C
:1059000054000020C8F85800002088F85C00029A73
:105910000199504601F0F8FEC8F80000002D01D0B2
:10592000C5F80080BDE8F78F38B5040001F07CFFB2
:10593000DFF880130868401C0860DFF87C53286893
:10594000002806D12C60086801280DD100F0F0FA7B
:105950000AE0DFF868030068002805D1E06A2968DA
:10596000C96A884200D32C60DFF8D8030168491C5B
:10597000016000686064DFF8D0030168E26A914268
:1059800001D2E16A0160211DDFF8C023E36A14201F
:10599000434302EB030001F075FE01F05FFFDFF807
:1059A0001C03006800280DD02868C06AE16A88429C
:1059B00008D25FF08050DFF894140860BFF34F8F77
:1059C000BFF36F8F31BD10B586B00020049000206A
:1059D000039005AA03A904A8FFF7F7F9DFF8084721
:1059E0000498029003980190002000900023059AEB
:1059F000DFF8F8160FF21150FFF79AFE20602068CA
:105A0000002801D0012400E00024012C02D101F083
:105A1000A9FF0400012C1CD1502080F31188BFF392
:105A20004F8FBFF36F8F5FF0FF30DFF8C416086051
:105A30000120DFF8881208600020DFF814140860E5
:105A40000021DFF87402006800F022F901F085FE01
:105A50000AE014F1010F07D1502080F31188BFF341
:105A60004F8FBFF36F8FFEE706B010BDDFF8540312
:105A70000168491C01607047F8B500250026DFF871
:105A800044432068002807D1502080F31188BFF3D9
:105A90004F8FBFF36F8FFEE701F0C6FE2068401EF8
:105AA00020602068002856D1DFF80802006800282E
:105AB00051D0DFF830160868002826D0C868C068C2
:105AC000050015F1180001F004FE281D01F001FE8B
:105AD000DFF874020168EA6A914201D2E96A016062
