:020000040800F2
:10000000C07D0020F5DD000801D8000803D80008F5
:1000100005D8000807D8000809D80008000000002B
:10002000000000000000000000000000195F000850
:100030000BD8000800000000C15E0008F15900085C
:1000400055DE000859DE00085DDE000861DE0008AC
:1000500065DE000869DE00086DDE000871DE00085C
:1000600075DE000879DE00087DDE000881DE00080C
:1000700085DE000889DE00088DDE000891DE0008BC
:1000800095DE000899DE00089DDE0008A1DE00086C
:10009000A5DE0008A9DE0008ADDE0008B1DE00081C
:1000A000B5DE0008B9DE0008BDDE0008C1DE0008CC
:1000B000C5DE0008C9DE0008CDDE0008D1DE00087C
:1000C000D5DE0008D9DE0008DDDE0008E1DE00082C
:1000D000E5DE0008E9DE0008EDDE0008F1DE0008DC
:1000E000F5DE0008F9DE000800000000FDDE000873
:1000F00001DF000805DF000809DF00080DDF000848
:1001000011DF000815DF000819DF00081DDF0008F7
:1001100021DF000825DF00080DD8000829DF0008CE
:100120002DDF000831DF000835DF000839DF000867
:100130003DDF000841DF000845DF000849DF000817
:1001400000000000000000000000000000000000AF
:100150004DDF000851DF000855DF000859DF0008B7
:100160005DDF000861DF000865DF000869DF000867
:100170006DDF000871DF000875DF00080000000077
:1001800079DF00087DDF000881DF000885DF0008D7
:1001900089DF00088DDF000891DF000895DF000887
:1001A00013D8000899DF000819D800089DDF00085F
:1001B000A1DF0008A5DF0008A9DF0008ADDF000807
:1001C000B1DF0008B5DF0008B9DF0008BDDF0008B7
:1001D000C1DF0008C5DF0008C9DF0008CDDF000867
:1001E000D1DF0008D5DF0008D9DF0008DDDF000817
:1001F000E1DF0008E5DF0008E9DF0008EDDF0008C7
:10020000F1DF0008F5DF0008F9DF0008FDDF000876
:1002100001E0000805E0000809E000080DE0000822
:1002200011E0000815E0000819E0000800000000D7
:100230001DE0000821E000080000000025E00008A3
:1002400029E000082DE0000831E0000835E0000852
:1002500039E000083DE0000841E0000845E0000802
:1002600049E000084DE0000851E0000855E00008B2
:1002700059E000085DE0000861E0000800000000AF
:1002800065E0000869E000086DE00008000000007B
:100290000000000071E0000810B5044608220021AB
:1002A00001F086F8DFF85C3D002223602046A26062
:1002B000E26022616261A261E26122626262A26224
:1002C000E26222636263A263E26322646264A26404
:1002D000E26422656265A265E26522666266A266E4
:1002E000E2662267626710BD2DE9F84F88B00546C7
:1002F000139C17469846200000F01E810E4630469B
:1003000001F0EEF88146304601F0C2F8ADF8140075
:100310003046ADF81070ADF81280ADF8169001F0CF
:1003200085F98046304601F0A3F98146129F304698
:1003300001F0EAF9022806D123463A4604A94046CC
:1003400000F0FEF8FEE1304601F0DEF90B2807D19F
:1003500000943B4604AA4946404600F0F6F9F1E114
:10036000304601F02AF948B900943B4601902C68C8
:10037000284604AA4146E568A847E3E131466846B5
:1003800001F0D3F8B7F90010B888BDF90060BDF9E5
:100390000430BDF90220BDF906E040180FFA80FADA
:1003A0005645BEBF9B190FFA83FA514514DAB7F9C7
:1003B00002A0B7F806B0D344ADF800B0BDF900B064
:1003C0005A45BEBF0EEB020B0FFA8BFBDA4503DA80
:1003D000B142A8BF0E4604E00026B2460023002228
:1003E00019E0B7F90210924672440FFA80FCB7F890
:1003F00002E012B28A45B8BF8A4619B26145A8BF69
:100400000346F8889B1B86440FFA8EFE7245C8BFD0
:100410007246A2EB0A02ADF80C30BDF90C10ADF833
:100420000860ADF80AA0ADF80E200129A4BFBDF9FF
:100430000E000128C0F2818000942846002102AB02
:1004400001912D6804AA4146EE68B047BDF90A2023
:10045000B7F90200904213DAB7F90010B7F9043087
:10046000121AADF81A00ADF818104946ADF81C3054
:1004700006ABADF81E2004AA0094404600F07CFCB8
:10048000B7F90000BDF90810884215DABDF8083048
:10049000BDF90E20BDF90A50ADF81800ADF81E20C8
:1004A00004AAADF81A5049461B1A0094ADF81C3046
:1004B00006AB404600F060FC3A88B988BDF80830C9
:1004C000BDF80C008A1812B2C31818B2904213DAA1
:1004D000BDF90A00BDF90E50D21AADF81830ADF8CA
:1004E0001A0006ABADF81C2004AAADF81E50494610
:1004F0000094404600F040FC7A88F888BDF80A3045
:100500008218BDF80E0012B2C31818B2904213DA66
:10051000B7F90000B7F90450ADF81A30D21AADF8A7
:10052000180006ABADF81C50ADF81E20009404AACC
:100530004946404600F020FC04E100943B46F6E7C3
:100540002DE9F84F88B0054691460E46984606A814
:10055000082201F01DF904A84946082201F018F903
:1005600006A801F0BAF9314604A801F0CBF9BDF9AB
:100570001230BDF91C10BDF91000BDF81820BDF9EE
:100580001470BDF9169011FB03F1091805EB8104F5
:10059000BDF81050BDF81A105519ADF81050DFF81D
:1005A000605C2868CB18ADF8123001680A6B904780
:1005B000B8F1FF0F3DD180063DD42868DFF8446CC8
:1005C00001680A6A9047B6F800C0BDF91210BDF97B
:1005D0001030B9F1000F01FB0CFC0CEB030100EB38
:1005E000410640F3AB80DFF81C2C4B4601922246BB
:1005F00000970099002940F390800846D2F800E067
:100600005FEA1E6100F08480FF2908BFB8F1FF0F88
:1006100026D14FEA1E214FEA5E1C01F478410CF40A
:10062000FC6C4CEA0101CEF3C40C4CEA01013180B0
:100630006EE04006C1D5BDF81C101FFA89F9286884
:10064000CDF80C800291BFB2CDF8049021460097FE
:100650000568BDF81230BDF81020EE6BB04771E0B0
:1006600018FB01F1B6F800C00C04240E14FA81F74F
:100670007F1C3F043F0EC7F1FF014FEA1C2AC9B29D
:100680000AF0F80A11FB0AFA4FEA0E244FEADC0BD3
:10069000240E0BF0FC0B4FEACC6C17FB04A44FEAC2
:1006A0000E4A11FB0BFB4FEA1A6A4FEA1C6C5FFA09
:1006B0008EFE11FB0CF14FEA044C17FB0ABA4FEA0D
:1006C0001C6C1CFA84F4641C2404240E17FB0E1109
:1006D0004FEA0A4E4FEA1E6E1EFA8AFE0EF1010E16
:1006E0004FEA0E4E4FEA014C4FEA1E6E4FEA1C6C69
:1006F00024024FEACE0E1CFA81F104F478440EF481
:10070000FC6E491C4EEA0404090454EAD1643480A6
:10071000B61C121D401E7FF471AF0198DDF800C0B9
:100720005B1E0188BDF91C00A1EB0C0106EB410624
:10073000A0EB0C0002EB80027FF45BAF286801683D
:100740004A6A904709B0BDE8F08F38B50D78049C2F
:100750003DB1022D01D008D331BD009400F01BF94A
:1007600031BD009400F005F831BD009400F012FA9C
:1007700031BD2DE9F04F8DB00546894617461C4620
:10078000DDF858800BA83946082201F001F809A8C5
:100790002146082200F0FCFF0BA801F09EF8394624
:1007A00009A801F0AFF8BDF92630BDF93010BDF948
:1007B0002400BDF82C20BDF928A0BDF92A4011FB6A
:1007C00003F109186E18BDF82450BDF82E10551904
:1007D000ADF82450DFF8285A2868CB18ADF8263039
:1007E0000168D1F88820904701283FD02868DFF8B9
:1007F000147A01680A6A9047B7F800C0BDF926105C
:10080000BDF92430012C01FB0CFC0CEB030100EBC7
:100810004107C0F2B680DFF8EC29CDF800A00192C4
:100820003246234600990129C0F29B80084692F87F
:1008300000C009F1040151F82CE05FEA1E6100F0EC
:100840008B80FF2908BFB8F1FF0F2DD14FEA1E2181
:100850004FEA5E1C01F478410CF4FC6C4CEA010197
:10086000CEF3C40C4CEA0101398075E00020DFF8BA
:10087000942908901388BDF830000B2101270791B7
:100880000693A4B205971FFA8AFACDF810804A465B
:1008900003900294BDF82610BDF82430286800911A
:1008A0003146CDF804A071E018FB01F1B7F800C0A3
:1008B0004FEA0E24240E0E04360E16FA81F6761C2C
:1008C0003604360EC6F1FF014FEA1C2AC9B20AF0FF
:1008D000F80A11FB0AFA4FEADC0B0BF0FC0B4FEAAB
:1008E000CC6C11FB0BFB4FEA1C6C16FB04A44FEA0B
:1008F0000E4A4FEA1A6A11FB0CF15FFA8EFE16FBE4
:100900000ABA4FEA044C4FEA1C6C1CFA84F4641CCB
:10091000240416FB0E114FEA0A4E4FEA1E6E1EFA11
:100920008AFE0EF1010E4FEA0E4E4FEA014C240EE4
:100930004FEA1E6E4FEA1C6C24024FEACE0E1CFAE0
:1009400081F104F478440EF4FC6E491C4EEA040470
:10095000090454EAD1643C80BF1C521C401E7FF441
:1009600066AF0198DDF800C05B1E0188BDF930005C
:10097000A1EB0C0107EB4107A0EB0C0002447FF454
:1009800051AF28680268516A884701E001F053F9C5
:100990000DB0BDE8F08F2DE9F04F8DB08146DDF848
:1009A00058A0884616461C46BAF1000F6CD009A81C
:1009B0003146082200F0ECFE0BA82146082200F088
:1009C000E7FE09A800F089FF31460BA800F09AFF66
:1009D000BDF92E30BDF92810BDF92C00BDF824203A
:1009E000BDF93060BDF9325011FB03F10918DFF891
:1009F0001008006809EB0104BDF82610BDF82C9022
:100A0000CB18ADF82E309144ADF82C900168DFF88A
:100A1000F497D1F888209047012836D0DFF8E00716
:100A2000006801680A6A9047B9F800C0BDF92E1045
:100A3000BDF92C30BAF1FF0F01FB0CFC0CEB0301EC
:100A400000EB41033DD1012D18DB2946012E0ADBC5
:100A5000304608F1040214F801AB401E32F81AC007
:100A600023F802CBF7D1BDF92820B9F80000921B7A
:100A7000A418801B491E03EB4003E7D1DFF8800771
:100A8000006801684A6A904782E70020B9F80010C0
:100A900008900B230590BDF828000793ADB206918E
:100AA000B6B2CDF810A042460390DFF85407029585
:100AB000BDF82E10BDF82C3000680091214601963B
:100AC00064E7012DCAF1FF01D8DBB44622462E4669
:100AD000BCF1010F4FDB604612F8015B1C8808F186
:100AE000040E3EF815704FEA142E0EF0F80E11FBAE
:100AF0000EFE4FEAD40B0BF0FC0BE4063D0A05F0AA
:100B0000F8051AFB05E54FEAD70E11FB0BFB0EF0BB
:100B1000FC0E240EFF0611FB04F43F0E1AFB0EBE62
:100B20001AFB07472C04240E14FA85F44FEA0E45ED
:100B30002D0E15FA8EFE641C0EF1010E24044FEAF0
:100B40000E4E4FEA074B240E4FEA1E6E4FEA1B6B08
:100B500024024FEACE0E1BFA87F704F478440EF411
:100B6000FC6E7F1C4EEA04043F0454EAD76423F869
:100B7000024B401EB0D1B9F80000BDF928E0761E46
:100B8000A0EB0C0003EB4003AEEB0C0E72443FF401
:100B900075AF9DE72DE9F04F8DB08146169D8846D3
:100BA00092461C46002D00F0E6800BA85146082214
:100BB00000F0EEFD09A82146082200F0E9FD0BA88F
:100BC00000F08BFE514609A800F09CFEBDF92630CE
:100BD000BDF93010BDF92400BDF82C20BDF9284026
:100BE000BDF92A6011FB03F1091809EB010ABDF8F0
:100BF0002490BDF82E109144ADF82490DFF80096B3
:100C0000D9F80000CB18ADF826300168D1F888205B
:100C1000904701283CD0D9F8000001680A6A904743
:100C2000DFF8E0C5BDF92610BCF800E0BDF92430BE
:100C3000012E01FB0EFE0EEB030100EB4101C0F2A1
:100C40009580C5F1FF00C0B202905346CDF804C0B4
:100C5000B2460094009A012A77DB104693F800E030
:100C600008F10402FF2D0EEB4E0E02EB0E0462782B
:100C700094F802E0247829D14FEA0E2ED2000EF427
:100C8000784E02F4FC6242EA0E0242EAD40257E0D5
:100C90000020DFF8702508901388BDF830000B2184
:100CA0004FF0010C07910693B6B2CDF814C0A4B270
:100CB00004954246039002960194BDF82610BDF8B3
:100CC0002430D9F80000009151465FE60E88029F5B
:100CD0004FEA162B0BF0F80B07FB0BFB15FB0EBEB8
:100CE0004FEAD60B0BF0FC0BF60607FB0BFB360EA0
:100CF000774315FB02B215FB04744FEA0E473F0E13
:100D000017FA8EFE1604360E16FA82F20EF1010E56
:100D1000521C4FEA0E4E120427044FEA1E6E120EAA
:100D20003F0E4FEA0E2ED20017FA84F40EF4784EDE
:100D300002F4FC62641C42EA0E0E24044EEAD46201
:100D40005B1C401E21F8022B88D10198DDF800E0E1
:100D5000BAF1010A0288BDF93000A2EB0E0201EBE4
:100D60004201A0EB0E0003447FF474AFD9F80000F9
:100D700001684A6A90470BE62DE9F84F84B0814636
:100D8000884617461C460E9E68463946082200F0E3
:100D9000FFFC02A82146082200F0FAFC684600F099
:100DA0009CFD394602A800F0ADFDBDF80020BDF95C
:100DB0000A30BDF90410BDF90800BDF90E5011FB51
:100DC00003F1081808EB0007BDF8088009EB4004A0
:100DD000BDF80210DFF828040068BDF90C909044BB
:100DE000ADF80880DFF81C84CB18ADF80A30016834
:100DF0000A6A9047B8F800C0BDF90A10BDF908307A
:100E0000FF2E01FB0CFC0CEB030100EB410C00F08E
:100E10008180012D78DB3B464F462246A946012FB3
:100E200064DB38468DF838601978002956D09DF873
:100E3000386016FB01F14FEA014E4FEA1E6E1EFAB2
:100E400081F1491C0904090E48D0BCF80060B2F8D1
:100E500000E0C1F1FF04E4B24FEA162A0AF0F80AF2
:100E600014FB0AFA4FEA1E254FEAD60B05F0F805E7
:100E70000BF0FC0B11FB05A54FEADE0A14FB0BFB84
:100E8000F6060AF0FC0A360E14FB06F44FEACE6EA4
:100E900011FB0ABA4FEA1E6E11FB0E442904090E1B
:100EA00011FA85F54FEA0A46360E16FA8AF66D1CD7
:100EB000761C2D04360421042D0E360E090E2D024B
:100EC000F60011FA84F105F4784506F4FC66491C35
:100ED0003543090455EAD165ACF80050921C5B1CFF
:100EE000401E0CF1020C9FD19DF83860B8F800004C
:100EF000C01B0CEB400CBDF90400C01BB9F101098B
:100F000002EB400203448AD1BD48006801684A6A86
:100F1000904745E2012DF7DB3A464E4623466746A9
:100F2000A946012E5DDB30461178002954D0B3F874
:100F300000E0FF2908BFA7F800E04DD0B7F800C0D7
:100F4000C1F1FF04E4B24FEA1E2505F0F8054FEAAF
:100F50001C2A0AF0F80A14FB0AFA4FEADC0B0BF021
:100F6000FC0B4FEACC6C14FB0BFB4FEA1C6C11FB27
:100F700005A54FEADE0A0AF0FC0A4FEACE6E14FB22
:100F80000CF44FEA1E6E11FB0ABA11FB0E44290441
:100F9000090E11FA85F54FEA0A4C4FEA1C6C1CFA4F
:100FA0008AFC6D1C0CF1010C2D044FEA0C4C210441
:100FB0002D0E4FEA1C6C090E2D024FEACC0C11FAD3
:100FC00084F105F478450CF4FC6C491C4CEA0505E9
:100FD000090455EAD1653D80BF1C9B1C521C401E74
:100FE000A2D1B8F80000801B07EB4007BDF9040050
:100FF000801BB9F1010903EB4003024491D183E75F
:101000000000000030D400082DE9F04F89B00C46F4
:10101000129E91469A46002E00F0B98007A84946D4
:10102000082200F0B5FB05A85146082200F0B0FBED
:1010300007A800F052FC494605A800F063FCBDF982
:101040001630BDF92010BDF91400BDF81490BDF89C
:101050001C20BDF91870BDF91A5011FB03F10918D5
:1010600004EB41049144BDF81E10ADF81490DFF874
:101070009091D9F80000CB18ADF8163001680A6BD2
:101080009047FF2E139900F08480400700F187807D
:10109000D9F80000DFF86CA101680A6A9047BAF835
:1010A00000C0BDF91610BDF91430FF2E01FB0CFC79
:1010B0000CEB030100EB410800F08780002DB446E3
:1010C000CCF1FF015EDD2B462246002F4EDD384677
:1010D000B8F800E032F8026B4FEA1E2404F0F8047E
:1010E00011FB04F4350A05F0F8054FEADE0B0BF0AE
:1010F000FC0B1CFB0545F40811FB0BFB4FEACE6E05
:1011000004F0FC044FEA1E6E11FB0EFEF6061CFBFB
:1011100004B4360E1CFB06E64FEA054E4FEA1E6E7F
:101120001EFA85FE25042D0E15FA84F40EF1010E2B
:10113000641C4FEA0E4E24044FEA064B4FEA1E6E23
:10114000240E4FEA1B6B4FEA0E2EE4001BFA86F6C4
:101150000EF4784E04F4FC64761C44EA0E0E360459
:10116000401E4EEAD66E28F802EBB1D1BAF8000064
:10117000BDF92040C01B08EB4008E41B5B1E02EBDE
:101180004402A2D1D9F8000001684A6A9047FFF7EB
:10119000D9BA0A007FF47CAFC0077FF579AFD9F8E0
:1011A000000004910396BDF82010ADB2BFB20291C9
:1011B00021460195BDF8163000970468BDF814204B
:1011C000D4F838A0D047FFF7BDBA002DDADD2846A5
:1011D0007D0027460446D9F800002B463A46414692
:1011E000D0F800C0DCF82C60B047641EBAF80000EC
:1011F000BDF9201008EB400807EB4107EBD1C1E730
:10120000DC6B0020D66B00202DE9F04F1D46E8B2C4
:10121000002885B0914600F0AD80B1F904000028A7
:10122000C4BFB1F90640002C40F3A48003A80822F3
:1012300000F0AEFA03A8DFF8744100F04EFB20681E
:1012400001680A6B9047E9B2FF2915D1800715D5CF
:101250002068EDB20295BDF81210BDF81020BDF85F
:101260000E30019149460092D0F80090BDF80C2054
:10127000D9F84860B04793E00007E9D42068DFF868
:1012800028A1BDF91060BDF9128001680A6A904773
:10129000BDF90E20BAF80010BDF90C304FEAD90E96
:1012A0004FEAC90C0EF0FC0E5FFA8CFC4A43D118D1
:1012B00000EB4102E9B2FF294FEA192000F0F800E3
:1012C00059D0B8F1000FEDB2C5F1FF014EDD434634
:1012D0004FEA460815FB00F0C8F10008CDF8008081
:1012E00015FB0CFC15FB0EFEB1468046B9F1000F54
:1012F00034DD484617883D0A05F0F80511FB0585E1
:101300004FEA054B4FEA1B6BFE0806F0FC061BFA82
:1013100085F511FB06E66D1CFF062D043F0E4FEA16
:10132000064B4FEA1B6B1BFA86F6761C36042D0E15
:10133000360E11FB07C72D02F60005F4784506F4BA
:10134000FC6635433E04360E16FA87F77F1C3F04D1
:1013500055EAD76522F8025B401ECBD100985B1E90
:101360001044BAF8002000EB4202BFD120680168A7
:101370004A6A904714E0B8F1000FF7DD7300414668
:101380005B42002E04DD3046401E22F8029BFBD15A
:10139000D018BAF80020491E00EB4202F1D1E5E76F
:1013A00005B0BDE8F08F0000D66B0020DC6B00209C
:1013B00010B5044610460A460146204600F040FE9D
:1013C000204610BD3CB41446DFF8A052AA683AB9D2
:1013D000049AA8606980204602B0194630BC01E03A
:1013E00033BC704718B4DFF88442A36933B929B11C
:1013F000A2802162206111BC00F002B811BC7047CC
:101400009A4A1169002900D17047F0B59588508833
:101410004019461C01EB800CDFF86843C2F814C089
:10142000C5EBC507D2F820C004EA460401EB800EE4
:10143000ACEB80037D0001EB8006ED1CAD08A644FB
:101440001B1B0EEB850E26440027A3EB8503D660FD
:10145000C2F818E01780D361D78040B153694FF6C6
:10146000FF74401E41F8047B23F8024BF9D10020A1
:10147000002109E0D368401C03F10C040C33655CC7
:1014800005F0DF055D540E319488A042F2D3F0BD23
:1014900030B4764A00889168C9B154880346A042A6
:1014A00007D201F1080003EB83018900405A30BCE8
:1014B000704795886519AB4209DA1B1BD068C3EBEE
:1014C000C30200F108015200885A30BC70474FF641
:1014D000FE73984206BFAC480088002030BC7047BD
:1014E000624A00889168B9B1B2F802C0034660450B
:1014F00005D203EB830001EB80004089704791889F
:1015000061448B4208DAD068A3EB0C03C3EBC3023F
:1015100000EB4202508970474FF6FE71884202D1BB
:101520009A4800887047002070477CB54F4B098867
:101530009A6852B35D880C46A94216D204EB840324
:1015400002EB8302B2F90C40ADF80040B2F90E5044
:10155000ADF80250138AC3F30C03ADF80430528A7D
:10156000C2F30C02ADF8062022E09E88AE19B44208
:101570000BDAD968641BC4EBC40202B001EB420170
:101580000822BDE8704000F003B94FF6FE7399429F
:101590000BD100247C4B00947C4A1C5FB2F90050B4
:1015A000ADF80440ADF8065002E00022009201922E
:1015B0006946082200F0ECF873BD10B46F4A9168D8
:1015C00089B354880088A042034613D203EB8300FA
:1015D00080000A18138A08310C5AC3F30C03A34283
:1015E0001ED3508A518910BCC0F30C008842804140
:1015F000C00F704790882018834214DA1B1BC3EB7E
:10160000C3014800D1680A18B2F9043001F1080496
:10161000205A8342A2BFB2F906105289914202DADF
:10162000012010BC7047002010BC704701884FF6A5
:10163000FF70814201D1002070474FF6FE72914247
:1016400003D14F480168486C70474C4A1069002824
:101650001EBF0B4650F82300002804D1906801EB10
:101660008102910040587047000000007C6B002010
:1016700070B400884FF6FE7102468A4241DA3F4953
:101680004B8898421FD2886802EB820300EB8303E9
:101690005868B0B3096900291CBF51F8221000290D
:1016A00030D01A8958891C8A4243588A640B400BEF
:1016B00040EAC40070BC0B2818BF5200D21C92082C
:1016C00001EB8200704788881818824219DAD31A11
:1016D000C3EBC304CB6860001D182E7B06F01F0609
:1016E0000B2E0ED103F108040A33255A185A096942
:1016F000454351F82220ED1CAD0802EB850070BC7B
:101700007047002070BC704730B41C4A9168F1B13A
:1017100003885588AB420BD203EB830001EB8000BA
:10172000018A408A490B30BC400B40EAC100704737
:10173000918869188B420ADAD0685C1BC4EBC4023A
:1017400000EB4202107B30BC00F01F0070470088A5
:101750004FF6FE7188420CD1094A116891F8760063
:1017600000281ABFC86C0028886801680A6A30BC63
:101770001047002030BC7047000000007C6B002048
:10178000DC6B0020FCFF0100D26B0020D46B00203A
:1017900062B38B0708D0521E11F8013B00F8013BE1
:1017A00000F024808B07F6D1830740F0208000BF33
:1017B000103A07D330B4B1E83810103AA0E8381026
:1017C000F9D230BC530724BFB1E80810A0E80810D4
:1017D00044BF51F8043B40F8043BD20724BF31F822
:1017E000022B20F8022B44BF0B7803707047121FA6
:1017F00017D35B0009D151F8043B20F8023B1B0CC6
:10180000121F20F8023BF6D20BE051F8043B00F81F
:10181000013B1B0A20F8023B1B0C121F00F8013B86
:10182000F3D238BF121D521E24BF11F8013B00F83D
:10183000013BF8D8704770B50E460546307995F8EB
:101840002C40401E8041C00F85F82C0095F82C00DC
:1018500008B12CB900E0A4B1296828464A6990472C
:101860007CB1307901280CD1A86A50B10168CA68EE
:10187000904730B1A86A294602689368BDE8704075
:10188000184770BD2B4A1378012B00D0704770B4F5
:101890002A4C0A88B4F90050B0F900306E1EB61A0E
:1018A00006800B8070BC704722490A78012A00D05C
:1018B000704730B4204C4188B4F90050B0F906307C
:1018C000B0F900206D1AED1A0580B0F904104280BD
:1018D0008380C18030BC7047000078B50446164E46
:1018E0001748B6F90030B0F9005083B0002200214B
:1018F000009501A800F0D7FB0146204600F002F851
:1019000004B070BD0B4A1378012B00D0704730B47F
:101910004588B0F904200488058089881419631E5D
:101920004C1EE31A4380C388C280838030BC70475A
:1019300000000000D06B0020D26B0020D86B00208C
:10194000D46B002010B5044600F0C4FB6068016849
:10195000CA689047E06801688A6890472368204613
:10196000D96DBDE810400847F0B583B00446216842
:10197000D1F898209047002800F0A180012004F1C0
:10198000580500F031FCA87B0021A97304F14A0638
:10199000E8737170687F30B121682046D1F8AC20BF
:1019A00090470020687731786268DFF83465481E18
:1019B0008041C00F50720120307000F0A0FC02681E
:1019C0000121936B9847E87B08B90121E97300F086
:1019D00096FC026851698847286803681A6990472D
:1019E000287CE97B491EE97300281CBFC9B2002985
:1019F000EDD17078401C707095F90C1040B288429F
:101A000016DB002001AA7070E06802A90368DE6896
:101A1000B04738B12368019A02992046D3F8A460F0
:101A2000B04705E02168204601F1A40253689847B9
:101A300000208DF80000606950B102686946D368E3
:101A4000984728B128689DF800100268D368984725
:101A500004F11C0001F08AF8287D50B32069016868
:101A60000A6990470646A86900B9AE61A869DFF81F
:101A70007414301A88421CD32069DFF86C74026831
:101A800091698847AB69F31AA3FB07729209B0FB0F
:101A9000F2F00128B8BF642004DB6428ACBF00204A
:101AA000C0F164006873206900210268D369984717
:101AB000AE6100F024FC02680021936B9847216816
:101AC0002046D1F89C209047012000F0A2FB002086
:101AD000DFF80C14087003B0F0BD000000BF012156
:101AE00000F84B1F817770474268012151724068AE
:101AF00001680A691047406801688A68104710B594
:101B00000446DFF8E813087858B994F84820022A08
:101B100007D0606801F0CDF918B16068407A0028FC
:101B2000FBD000F0EAFA2046BDE8104001F0CEB943
:101B300000F0F0BA2DE9F0434FF0000983B00446FD
:101B40000D461646CDF808900A99A06902AADFF85A
:101B50008C73019298460091D0F800E032462946F5
:101B6000DEF80090C847A7F80680F968814691F82A
:101B7000760000281ABFC86C0028886801680A6AC5
:101B8000904710B1012808D00FE0F888029B464327
:101B9000701940004042191806E0F888029A46433E
:101BA0007019A0EB80001118E163484603B0BDE84E
:101BB000F08330B45BB102F0010001F00104A042F7
:101BC00008D012F8015B5B1E01F8015BF9D101201E
:101BD00030BC7047D00704D512F8014B5B1E01F8EA
:101BE000014B012B0CD902F0030001F00304A042C9
:101BF00008D09B1E32F8025B012B21F8025BF8D85B
:101C0000012B0DD912F003000AD032F8024B9B1EB3
:101C100021F8024B04E052F8040B1B1F41F8040B9F
:101C2000032BF8D8002BD2D012F8010B5B1E01F861
:101C3000010BF9D1CBE72DE9F0478AB09146199C09
:101C40000026169A179D0896022C05D0FF2A06BF7B
:101C5000002D0125042504E0FF2A0ABF002D4025A0
:101C6000202598464B460295DDF854C0DDF850E03B
:101C7000DDF84CA01A9D0391189E0493129FADF8B5
:101C800018A08146ADF81AE0ADF81CC08DF82420EC
:101C900001F01CF90346019500963A464146484634
:101CA00000F0F6F8059002A9ADF81E608DF8254009
:101CB0008DF82650D9F804000268536898470AB096
:101CC000BDE8F0872DE9F04FDFF810928BB0D9F81E
:101CD0000C4084469A46179D169E159F94F87600F0
:101CE000DDF85080934600281ABFE06C0028A068F9
:101CF0000991189CCDF828C00368D3F820C0E047AC
:101D0000089009990790B9F8060005945B4606907B
:101D10000A980495002203960297CDF80480CDF826
:101D200000A0FFF788FF82E02DE9F04F8BB06B4FEA
:101D3000FD6804468A46169EDDF85490DDF8508012
:101D400095F8760000281ABFE86C0028A868ADF85E
:101D50000830179DADF80A2001680A6A904783464B
:101D6000FF880023CDF810A040220993039220465B
:101D70000593ADF81C80ADF81E90ADF820608DF88D
:101D8000285001F0A3F8CDF804B003460097BDF841
:101D90000820BDF80A10204600F07AF802220690CA
:101DA000ADF8227003A98DF829208DF82AB060685B
:101DB0003AE02DE9F04F8BB00025169CADF80820D5
:101DC0000995189D179E159FFF2CDDF850809946A8
:101DD0008A46834614BF4FF0080E4FF0020E0022D1
:101DE000CDF80CE0049201F071F8BDF8081003463C
:101DF00001951FFA89F20096584600F049F8002331
:101E00000690ADF81C8003A9ADF81E70ADF8203027
:101E1000ADF82260CDF824A08DF828408DF8295027
:101E20008DF82A50DBF804000268536898470BB01D
:101E3000BDE8F08F2DE9F04F284F85B0FC68914642
:101E40008A4683460F9D0E9E94F876209846002A77
:101E50001ABFE26C002AA26811681046109C0A6A38
:101E6000904702941FFA88F301951FFA89F20096B1
:101E700051460490F8880390DBF800405846656CA2
:101E8000A84705B0BDE8F08F81651C3000F06CBE3E
:101E900018B40398002440B1401E08D0401E08D05A
:101EA000401F042806D8082404E0102402E0182467
:101EB00000E020240298E41002FB0011614358184E
:101EC00012BC7047094A117829B190F86A00401E87
:101ED0008041C00F7047012070470000D06B002088
:101EE000246C002001E1F5053E0AD7A3226C0020F6
:101EF00010B50446606801688A68904704F169017A
:101F0000087808B101224A7010BD38B5044604F1C2
:101F10006905687870B1022000F090F90021204630
:101F20006970297000F0D2FF236801462046D3F87B
:101F3000A040A04731BD10B584B00446029102A86C
:101F4000039201F005F80398029AADF8040001A984
:101F5000ADF806200DF10600FFF794FC94F86B0035
:101F6000A8B1BDF80410BDF8063004F11C000091C2
:101F7000226EE16D92B289B200F005FEC8B1BDF9E2
:101F80000600E065BDF90410216604B010BDBDF87F
:101F90000430BDF80620002104F11C0000F040FED2
:101FA000012084F86B00BDF90610E165BDF904005D
:101FB000206604B010BD10B5044694F86B0058B10B
:101FC000236EE26D012104F11C009BB292B200F07D
:101FD00027FE002384F86B3010BD10B5044631B1E4
:101FE000032000F001F9206960B1012105E0032020
:101FF00000F00FF9206928B1002102685369BDE89B
:102000001040184710BD30B4002513E050F8042BE1
:10201000D30744BFA9F101039A18091F042942F804
:10202000045BFAD213468C0744BF15809B1CC9077A
:1020300048BF1D7050F8041B0029E7D130BC704721
:1020400062F30F2262F31F42401810F0030308D01E
:10205000C91A1FD3DB0748BF00F8012D28BF20F89D
:10206000022D130030B414461546103928BF20E95C
:102070003C00FAD8490728BF20E90C0048BF40F8C7
:10208000042D890028BF20F8022D48BF00F8012D3B
:1020900030BC7047C91818BF00F8012DCB0728BF06
:1020A00000F8012D704710B5BDF90840018042804D
:1020B0008380C48010BD10B54268C36802EB630220
:1020C000DB0751BF83681468806823581046BDE859
:1020D0001040184710B5002201210120324C01F0B8
:1020E00023F820604FF0FF3101F079F8002204213D
:1020F000012001F0D5F8606010BD10B500F023F8A4
:1021000020B9312200F022F8AFF3008020684FF0B0
:10211000FF3114E010B500F016F820B93A2200F0B3
:1021200015F8AFF300801FE010B500F00CF820B9EF
:10213000472200F00BF8AFF3008020680021BDE8D3
:10214000104001F04CB8184C20687047DFF85C1064
:1021500017A001F06BB910B5FFF7F5FF20B95422B5
:10216000FFF7F4FFAFF300802068BDE8104001F0F6
:1021700065B80D49486820B100230022083101F0FC
:10218000D2B870471CB5084C606858B100230022D3
:10219000694601F0FBF860684FF0FF3300226946A2
:1021A00001F0F4F813BD0000300000201CD200083C
:1021B0006672616D655F6275666665725F73656D97
:1021C0000000000038B500242D4DE0B200F042F8C8
:1021D00000281FBF55F824000128012145F82410CC
:1021E000641C052CF1DB31BD254910B1012808D054
:1021F0007047096823484A1E9241D20F4FF480610C
:1022000005E04A682048521E9241D20F102101F089
:10221000A6BA1B4910B1012808D070470A6802B15C
:102220000122D2B24FF48061164805E04A6802B13B
:102230000122D2B21021144801F091BA10B1012844
:1022400004D070474FF480610E4801E010210E4821
:1022500001F089BA80B5002110B1012804D008E04E
:102260004FF48061074801E01021074801F071FA3E
:102270000146012901D1012002BD002002BD00005C
:10228000C06B0020001402580000025800BF38B58F
:102290000446DFF8AC182160DFF8A828226000238C
:1022A000A4F8843004F1A80001F07EFA04F1EA00F9
:1022B000DFF8945801F078FA04F596700021018057
:1022C00041808180C18001724172DFF88018DFF89F
:1022D000800801F077FA10B10020288106E04FF461
:1022E000806102202981286101F0F1FA0021204655
:1022F000E9602961696100F093F9204632BDDFF899
:102300004808C0687047DFF84008006910B10268EB
:1023100093691847704770473EB50022DFF8384888
:102320000092DFF83038A25EB3F90050ADF8042017
:102330006946ADF806500268536B984703B030BD4C
:10234000F8B505460C46DFF80C08DFF80C1884B029
:10235000B0F90000B1F90010002200920822ADF897
:1023600004102146ADF8060002A8FFF711FA6946ED
:1023700002A801F08DFD204602A90822DFF8C867F7
:10238000FFF706FA306908B395F8341169B1684669
:1023900021460822FFF7FCF9DDE9002311461A4621
:1023A000284600F015F805B0F0BD05682146AF6875
:1023B000B847B06918B10268214693689847DFF8BA
:1023C0009C072146006802685369984705B0F0BD34
:1023D0002DE9F64184B0804604A801F0A1FD002853
:1023E00040F09880B8F8E840002C00F08B80641E24
:1023F00075D408F1A8050B26A7B2684605EBC701FE
:102400000822FFF7C5F904A9684601F095FD0028E8
:1024100040F08080694604A801F08EFD28B1A2B288
:10242000294602A801F0AAFD57E004A9684601F078
:10243000CEFDC8B1B8F8E810A2B28A420FD2A0B25D
:10244000491E1FFA81FC6045A8F8E81007D289B23E
:1024500005EBC70005EBC1010822FFF799F96946B2
:1024600004A801F0D6FD38E0DDE90401CDE9020160
:10247000694602A801F0CDFDBDF90430BDF906C0E2
:10248000BDF90C00BDF90E1013FB0CFC10FB01F1A3
:10249000BDF9140001EB8102BDF9161010FB01C05B
:1024A00070435200824218DAB8F8E810A2B28A42A9
:1024B0000FD2A0B2491E1FFA81FC6045A8F8E810AF
:1024C00007D289B205EBC70005EBC1010822FFF76F
:1024D0005FF9DDE90201CDE90401641E8CD5B8F88D
:1024E000E80008280ED1072208F1A80102A801F08F
:1024F00045FD684602A90822FFF74AF9694604A883
:1025000001F087FDDDE904010A46014608F1A80053
:1025100001F0C9FD06B0BDE8F081DFF82C060069C6
:1025200010B10268D36918477047DFF81C060069CC
:1025300010B10268136A184770472DE9F843044642
:10254000DFF804566869C0B1017A39B9002284F80D
:10255000352103689968BDE8F443084794F83501CC
:1025600058B9286910B101680A699047686901681B
:10257000CA689047012084F8350104F188080027D3
:1025800046460BE0307838B1211DBAB251F822002E
:102590000368D3F850C0E0477F1C761CB4F8841061
:1025A0008F42EFDB002100224346271D12E01878FE
:1025B00070B18A420BD01FFA82FC201D57F82CE024
:1025C0008EB240F826E093F8009008F80190491C7C
:1025D000521C5B1CB4F884008242E8DBB4F884002F
:1025E000814214DA421E93B28342F7D292B2201D86
:1025F00000EB820003E04368521C40F8043BB4F84F
:1026000084309A42F7DB581EA4F88400E6E7286974
:1026100020B101684A6ABDE8F2431047BDE8F18382
:102620000021A0F884102021883001F05DBD2DE943
:10263000F04F804697B008F59570817219B100216E
:10264000A8F8E81071E208F5967001F069FC98B9F5
:10265000684608F596710822FFF79AF8DDE900014F
:102660000A4601464046FFF7B3FE08F59570002282
:1026700042808280C2800281B8F8E800DFF8C84456
:10268000451EAD41A069ED43ED0F88B1204601F034
:1026900047FC68B92046FFF707F9D4E900010A466C
:1026A00001464046FFF794FE00222260626002E08D
:1026B000002D00F0DF8104A801F076F825892E4670
:1026C00018E008F1A801B2B201EBC2016846082285
:1026D000FFF75EF8BDF850000146082909DA401CF2
:1026E0000822ADF8500004A800EBC1006946FFF7CE
:1026F0004FF8761CB8F8E810B0B28842E1D308F57C
:10270000957610E008F1EA02ABB202EBC30168462D
:1027100008226D1CFFF73CF8DDE900010A4601467E
:102720004046FFF755FE3288A8B29042EAD3DFF860
:102730002C54286890F84800012840F08480002735
:1027400020890CE008F1A80182B201EBC2014A889D
:10275000CB889A1812B29742B8BF1746401CB8F8F7
:10276000E8108842EEDBDFF8EC03DFF8ECA3068824
:10277000F608022EB8BF012600210091019109E060
:10278000884201DA002921DC286801210268D2F898
:1027900080309847BDF80200BDF80610081800B256
:1027A000B8422868026880F2668102F11C03996EC3
:1027B0008847BDF80220BDF806309A1811B2731888
:1027C0009842B8BFB842DBDB884201DA3B4603E0FF
:1027D0003B468742C8BF0346BAF90090ADF80220D5
:1027E00000209A1AADF80490B4F80890ADF80000F3
:1027F000ADF80620B8F8E8101FFA89F08842C9D26F
:1028000008F1A8021FFA89F302EBC30115A80822F8
:10281000FEF7BEFF694615A801F03AFBDDE9150198
:10282000CDE90201BDF90C20002AC4BFBDF90E009C
:10283000002805DDD8F8002002A94046536B9847D0
:1028400009F10109D6E7022840F0D980C44801788F
:10285000012940F0848008F1A80921E0286800914E
:1028600093B2BDF80620BDF80410D0F800E0DEF801
:102870007870B8470746ADF80A0001A8FFF714F8CA
:10288000D8F8002001A94046536B9847B088C71B71
:10289000B7803FB227B95246494615A801F06EFBF2
:1028A000B8F8E800002800F0E8804FF0000AB9F915
:1028B000007020890DE0BA420BDB174609E08A421E
:1028C000F9D1B6F906108B42B8BF8246BC4500DB91
:1028D0006746B8F8E810401C80B209EBCA06884287
:1028E00080F0D58008EBCA023188B38809EBC006B6
:1028F000B6F900C05918B2F9AE30B28809B26244D4
:1029000012B29142DBDA0F4667458246E1DADFE731
:10291000286892B200928AB2BDF804109BB2D0F837
:1029200000E0DEF878B0D847ADF80A00D8F800200B
:1029300001A94046536B9847B9F80000BDF80A104A
:102940000818A9F80000FA88BDF80A00101AF880E3
:1029500000B220B95246314615A801F00FFBB8F875
:10296000E800002800F0898008F1A8064FF0000A6E
:102970007288F088821812B220890FE091420DDC33
:102980000BE0FBD1BEF90230BEF804909C454944EF
:1029900009B2B8BF82468A4200DB0A46B8F8E8C0EE
:1029A000401C80B2604580F0968008EBCA0108EBBD
:1029B000C00931F9AA3FB1F902C009F1AA0EBEF966
:1029C00000109942DDDA06EBC0090A468246B9F8E2
:1029D00006108A1812B29342E0DA1A46DEE7B9F816
:1029E00000C0B7F806E0F4440FFA8CFB1FFA82FE31
:1029F000ABEB01008645A8BFACEB010288E7258957
:102A0000B8F8E810A8B2884237D208F1A802ABB2F1
:102A100002EBC30168460822FEF7BAFEBDF90400C6
:102A20000028C4BFBDF90610002905DDD8F8002034
:102A300069464046536B98476D1CE1E704A9A2B272
:102A400001EBC20168460822FEF7A2FE2888014673
:102A5000082909DA401C0822288008F1EA0000EB66
:102A6000C1006946FEF794FE641CBDF85010A0B288
:102A70008842E3D359E0D36998473A490878002857
:102A8000F8D008F5957500222A802489EDE701A881
:102A900031460822FEF77CFEBDF90810BDF804207F
:102AA00001A81429B8BFBDF904708918C91BADF875
:102AB0000810ADF80470FEF710FFBDF90820002AD9
:102AC000C4BFBDF90A1000297FF7EAAE1429CCBFB4
:102AD000142189B2C2E606EBCA07B7F9060001461F
:102AE000142902DA7A88821812B2B7F90400002891
:102AF000C8BF00297FF733AF002101910291B7F9D8
:102B00000090ADF8049007F1020939F90110A2EB29
:102B1000010CBCF1140FADF80610B7F90430ADF894
:102B20000830CCBF1422521A59E717B0BDE8F08F15
:102B30000548006910B10268936A184770470000A1
:102B400084D8000820D60008B40D0020CDB5E8B523
:102B5000C2A507F4D46B0020D26B0020DC6B0020F0
:102B6000D06B0020226C002001617047817B49B14D
:102B70000189491C018189B2082903DB00214181B7
:102B80008181817370472DE9F0410E4684B005467E
:102B9000174698460A9CB5F90620B5F90430ADF8F9
:102BA0000A80BDF80A10ADF80630BDF80600DFF85F
:102BB00024C14FF0000ECDF800C08DF804E0081AD3
:102BC00001B20029ADF80820ADF80C4044BF08461A
:102BD0004042A98A00B281420ADBBDF80800201AEF
:102BE00002B2002A44BF1046404200B2814213DACA
:102BF00028696946A8EB0606E71B026853689847F0
:102C00004FF0000C0120A5F808C06E81AF81A5F837
:102C10000480EC80A87300E0002004B0BDE8F081DF
:102C20002DE9F8410D46012D83B00446164698461D
:102C300018BF022D32D1B4F90A20D01C072813D3B3
:102C4000B4F90630B4F904E023480027009069463F
:102C50008DF80470ADF80620ADF808E0ADF80A3044
:102C60002069026893689847B4F90C20D01C0728A3
:102C70001ED3B4F90630B4F904E0174901270091D6
:102C800069468DF80470ADF80620ADF808E0ADF89F
:102C90000A30206902689368984709E0280007D144
:102CA0000020A680A4F8068020816081A081A07306
:102CB0000A4A8DF8045000920022ADF80660694679
:102CC000ADF80880ADF80A202069026813689847BB
:102CD000A3E7000094DD0008A8DD000880DD0008FF
:102CE00000BF3B4B0360416000218260C160016115
:102CF0007047C1680069814201D1012070470020FE
:102D000070470269C168511A0129BCBF8068411827
:102D1000012901DC012070470020704738B50446C6
:102D2000E3682269D21A012ABCBFA0688218012A6E
:102D30000CD965681F2205EB431001F0D8F9E06853
:102D4000A168401C884228BF401AE06031BD01697B
:102D50008268491C914228BF891A01617047416805
:102D6000006901EB4010704710B5044660680168C7
:102D70000A68904748B9617A39B1207A28B9216840
:102D800020464A6ABDE81040104710BD01680A6934
:102D9000104770B504460D46606801684A68904760
:102DA0000028F9D10B4E306801684A6E9047FFF752
:102DB000BBF96068294602689368984721682046F5
:102DC000CA6A904730680368196EBDE870400847CA
:102DD00040D90008DC6B002080B5FFF78EF9BDE814
:102DE0000140FFF797B938B50446012160682172A8
:102DF00002689169884705462B68012B31D0022B68
:102E000025D0042B0BD0082B15D0202B18BF402B1E
:102E100027D0802B18BFB3F5807F22D031BD226828
:102E2000297F2046936B9847204624682946226BC9
:102E3000BDE8384010472368297F20469A6B9047A9
:102E4000204624682946636BBDE834401847216852
:102E50002046CA6B90472368204629465C6BA047F2
:102E600031BD21682046CA6B904723682046294619
:102E70001C6BA04731BD10B50446606801680A6844
:102E8000904738B9207A28B1606801684A6990474C
:102E900000202072606801680A68904728B923689A
:102EA0002046596ABDE810400847BDE81040FFF7CA
:102EB00052B980B5406801680A689047FFE7401E34
:102EC0008041C043C00F02BD7047704710B5044633
:102ED0000649087840B122682046916A8847E36B2A
:102EE000984201D1206C10BDE06B10BD226C002017
:102EF000F0B5044601271046002C059A069D079E52
:102F00004FF0010E44BF64424FF0FF37002A44BF28
:102F100052427F42002D42FA01FC0EFA01F144BFF9
:102F20006D427F42491E1140614334680CFB0343EC
:102F300091FBF5F20CFB0020C91805FB1211316062
:102F400091FBF5F3181805FB131131607843F0BDC0
:102F5000F8B5254D84B00446A8692668676800283E
:102F60003ED0A96800EBD07203AE019001EB620184
:102F70000296039120680090EB6BEA6AE969286881
:102F8000FFF7B6FF03AAA96906460292019160689D
:102F900000902B6C2A6B296A6868FFF7A9FF8619D5
:102FA000A869696903AB00EBD072029301EB62017F
:102FB00001900391206800906B6C6A6B696AE86805
:102FC000FFF796FF074603A8A9690290019162687E
:102FD0000092AB6CAA6BA96A2869FFF789FFC71931
:102FE0002660676005B0F0BD046A0020EFF305803D
:102FF00060B9DFF82811EFF31080002804BFEFF369
:103000001180002803D00A68022A00D17FE00868F6
:1030100010B901220A6070474FF0FF30704700007E
:1030200080B5EFF3058058B9DFF8F01000F072F8C2
:1030300004BFEFF31180002803D00868022800D1F4
:1030400009E00A68012A05D10220086001F06EF942
:10305000002002BD02E06FF0050002BD4FF0FF301E
:1030600002BDF8B584B000230393EFF30583002B72
:103070004AD1EFF31083002B04BFEFF31183002B31
:1030800004D0DFF898301C68022C3DD003003BD000
:103090008025182600245AB3136803B11C4693698F
:1030A0001BB11E0004D0392E02D21379DF0701D5DF
:1030B00000202AE0536903B19D089768D2F80CC03C
:1030C00087B1BCF1600F1FD31269002A18BF002B13
:1030D0001AD001920B4602972A460096214601F02B
:1030E00019F810E0BCF1000F04BF1269002A0BD1DF
:1030F00003AB009601930B46AAB2214601F039F8C2
:10310000012801D000200390039805B0F0BD6FF0B6
:1031100005007047EFF3108000287047F86B00201F
:10312000EFF31081002970477CB50E461446002548
:10313000EFF30581002946D1FFF7F2FF04BFEFF35B
:103140001181002902D000F045F83CD000283AD087
:10315000B04238D344B1A168E26819B1502A32D3E1
:10316000012102E0002A2ED10021012818D10129D5
:1031700007D1032500220095A368002101F035FC4A
:1031800002E0032201F060FC05001CD0A6B100F0B3
:103190001CF8012810D02846002501F049FF12E054
:1031A000012904D1A268314601F084FC02E03146D5
:1031B00001F09AFC050006D0002C284614BF2168B7
:1031C000002101F0CCFF284676BD0023002200211B
:1031D00001F0A1BCDFF848120A68022A70477CB5EA
:1031E0000C46002578B16FF00206EFF3058149B96E
:1031F000FFF796FF04BFEFF31181002912D0FFF70C
:10320000E9FF0FD114B16FF0030515E000956A4690
:10321000002101F0CCFE01280DD1009860B100F032
:1032200034F809E0214601F013FE012804D014B15E
:103230006FF0010500E03546284676BD38B500241C
:1032400010B96FF003041EE06FF00205EFF3058183
:1032500049B9FFF765FF04BFEFF3118100290DD0D5
:10326000FFF7B8FF0AD10094694601F02DFD01284F
:1032700008D1009838B100F008F804E0FFF7A5FF86
:10328000012800D02C46204632BD4FF08051034A21
:103290001160BFF34F8FBFF36F8F704704ED00E0F5
:1032A000F8B514460025EFF30582002A31D100F06D
:1032B00032F804BFEFF31182002A02D000F02FF899
:1032C00027D0002818BF002923D0E4B1A368E26802
:1032D00093B1502A1DD32269DAB1666901FB00F768
:1032E000BE4216D3009501F080FB050011D0002CE2
:1032F00014BF216800210AE0002A04BF2369002BC3
:1033000007D162692AB9002201F09EFBEDE701F0C6
:1033100026FF2846F2BDEFF31082002A7047404A8C
:103320001368022B70477CB500F061F84AB9FFF7CB
:10333000F2FF04BFEFF31182002A13D0FFF7EFFF73
:1033400010D1002818BF002910D07CB900940023A8
:103350006A4601F074FC012815D10098A0B1FFF76E
:1033600094FF11E0002818BF002902D16FF0030577
:103370000AE00023224601F0CEFB012804D014B15C
:103380006FF0010500E03546284676BD7CB500F0BB
:103390002EF84AB9FFF7BFFF04BFEFF31182002AEE
:1033A00012D0FFF7BCFF0FD1002818BF00290FD0A3
:1033B00074B900956A4601F0FAFD012814D100980D
:1033C00098B1FFF762FF10E0002818BF002902D172
:1033D0006FF0030509E0224601F0B8FC012804D093
:1033E00014B16FF0010500E03546284676BD1C4655
:1033F00000256FF00206EFF305827047094B03606A
:1034000003F160000860802111607047064B036083
:1034100003F1600008604FF4807111607047000094
:10342000F86B0020586200209859002000B583B046
:103430000091019202906A4604491820ABBE002810
:1034400001D101F0D5FE03B000BD00BF1010020095
:103450002DE9F84F4FF0000E4FF0B042DFF8143373
:10346000DFF814834FF00F0982460F4635E0DFF88E
:103470000C53AA4514BF0A2509258D402543C04990
:1034800041F82C501C68C14301EA040C7C68E50338
:1034900048BF40EA0C0CC3F800C05C6801EA040CA9
:1034A0007C68A50348BF40EA0C0CC3F804C014684C
:1034B00001EA040C7C68E50248BF40EA0C0CC2F843
:1034C00000C0546801EA040C79688C0248BF40EAE5
:1034D0000C0CC2F804C00EF1010E396831FA0EF07E
:1034E00000F0A280012000FA0EFC1CEA0100F2D0DC
:1034F0007C684FEA8E01022C18BF122C10D14FEAC3
:10350000DE0401F01C050AEB840409FA05FB266AB7
:1035100026EA0B06D7F810B00BFA05F535432562FD
:10352000DAF8006097F804B04FEA4E040325A5408E
:10353000ED432E400BF0030B0BFA04FB4BEA06069F
:10354000CAF800607E68012E18BF022E03D0112E2B
:1035500018BF122E17D1DAF80860D7F80CB02E4039
:103560000BFA04FB4BEA0606CAF80860DAF80460B6
:1035700026EA0C0C7E68C6F3001606FA0EF646EA3A
:103580000C06CAF80460DAF80C603540BE6806FA2A
:1035900004F42C43CAF80C407C68E5009BD5D8F8AD
:1035A00000604FEA9E0C01F00C0146F00206C8F8DC
:1035B0000060D8F8004004F002040094009D704CB4
:1035C00054F82C5009FA01F425EA04046D4DAA457B
:1035D00008BF002527D06C4EB24508BF012522D078
:1035E0006A4DAA4508BF02251DD0694EB24508BFE5
:1035F000032518D0674DAA4508BF042513D0664E91
:10360000B24508BF05250ED0644DAA4508BF062562
:1036100009D0634EB24508BF072504D0614DAA45C5
:103620007FF425AF082528E7BDE8F18F2DE9FC4F91
:103630008A464FF0000B4FF0B0414E4A0F23DFF89F
:10364000408105463FE04D4FBD4214BF0A27092780
:1036500000969DF8046007FA06F6009FB74212D163
:1036600058F82E60C04326EA040448F82E40146837
:10367000044014605468044054600E6806400E60B4
:103680004C68204048602E6803244FEA4B0004FA3F
:1036900000F04FEADB040CF01C07064303FA07F7BF
:1036A0002E6005EB8406C043346ABC433462AC68C8
:1036B0000440AC606C6824EA09046C60EC6820404B
:1036C000E8600BF1010B3AFA0BF040D0012000FA50
:1036D0000BF919EA0A00F4D04FEA9B0E4FEA8B0C63
:1036E00058F82E600CF00C078DF8047003FA07F4FC
:1036F000244F2640BD4208BF0027A9D0224FBD421B
:1037000008BF0127A4D0214FBD4208BF02279FD088
:103710001F4FBD4208BF03279AD01E4FBD4208BFAE
:10372000042795D01C4FBD4208BF052790D01B4FE2
:10373000BD4208BF06278BD0194FBD4208BF0727DF
:1037400086D0184FBD427FF47EAF082780E7BDE8E2
:10375000F38F0069084018BF0120C0B2704702B95A
:1037600009048161704742690A408A4208BF09041E
:103770008161704780000058F444025800240258C8
:1037800008040058000002580004025800080258BB
:10379000000C025800100258001402580018025879
:1037A000001C02580020025838B50446082308229D
:1037B000034901F020FD00252046A4F8405032BD09
:1037C00023B2000802461B48F0B4046800234CF200
:1037D0004026640864000460174C25684FF6F070BA
:1037E0000540B5421FBF246820404CF27027B84204
:1037F00012D1124D286878B911480468C4F30B043B
:10380000B4F58A6F1FBF0068C0F30B0040F2834419
:10381000A04208BF0B4C00D00B4C0125A560A0684E
:103820000028FCD122602268F0BC8A4208BF012334
:1038300018467047002000E000ED00E0002004E0A2
:103840000010005C004C02580030024000BF1CB564
:103850000446DFF8C8152160201D01F0E5FC0022B8
:1038600000202263DFF8B815A2860122E08684F8E2
:1038700038200B5EDFF8AC0500220093B0F9003071
:103880000021201D01F0EAFC204616BDF8B584B0E9
:1038900004460D46684604F108010822FDF778FF4A
:1038A0002946684600F0F4FADDE90067CDE90267D1
:1038B00094F8380002A9002804D0204600F01BF834
:1038C00005B0F0BD201D01F0F6FC05B0F0BD3EB521
:1038D0000022DFF850450092DFF84435A25EB3F9CC
:1038E0000050ADF804206946ADF8065002689368B0
:1038F000984703B030BD38B5044600230D46009309
:103900006A46201D01F056FD009820B10246294666
:10391000204600F001F831BD2DE9F84F86B0804611
:103920000D461446B5F904000128C0F29D80B5F992
:103930000610012980F29980FCE0E469002C40F037
:103940009480F7E0B5F902304B4510DAA9EB03019A
:10395000B5F90420ADF800004046ADF80230ADF8EE
:103960000420ADF80610E2696946FFF7D5FFB5F906
:103970000000B0420DDA321AADF80000ADF8029046
:103980006946ADF804204046ADF806B0E269FFF79D
:10399000C3FF2A88A9888A18B9190BB20FFA82FEC8
:1039A00073450EDA961BF61BADF800106946ADF8AC
:1039B00002904046ADF80460ADF806B0E269FFF74A
:1039C000ABFF6A88E8880BEB0903821818B20FFA7C
:1039D00082FC604514DAB5F90000A2EB0909B5F9DB
:1039E00004E0A9EB0B09ADF800006946ADF8023020
:1039F0004046ADF804E0ADF80690E269FFF78CFFB1
:103A0000204601F017FD824602A829460822FDF74C
:103A1000BFFE514602A800F03BFA04A802A9082202
:103A2000FDF7B6FE684604A90822FDF7B1FEBDF910
:103A300004000128A4BFBDF90610012914DB2046AB
:103A400001F017FDBDF80010081AADF8000020467F
:103A500001F023FDBDF80210081A6946ADF8020016
:103A6000226820469368984764E0204601F0E2FC13
:103A7000294600F0ACFA00283FF45FAFE069002867
:103A8000BED02268214602A8D3689847204601F09C
:103A900004FD8246204601F0ECFCBDF80810BDF89C
:103AA0000C200818BDF80E10ADF80000BDF80A0093
:103AB000ADF806102946ADF8042082446846ADF8FA
:103AC00002A000F0E5F902A869460822FDF760FEB1
:103AD000204601F0AFFC8246684602A90822FDF7A5
:103AE00057FE5146684600F0D3F9BDF90060B5F9BC
:103AF0000000BDF90290BDF90470BDF906B0864220
:103B000004BFB5F90230994508D1B5F904209742B0
:103B100004BFB5F906309B453FF472AF002F18BFC4
:103B2000BBF1000F7FF40EAFE26929464046FFF774
:103B3000F3FE65E707B0BDE8F08F2DE9F04F89B0DF
:103B400005460E46296B307911B1002800F0E5805A
:103B5000002840F0BA80B4480023016891F8492059
:103B6000AB86EB86501E0328C0F2A680AF4B002127
:103B700080FB034329638846A94803EBD37C415E5D
:103B8000A84B4FF0FF37B3F900004FF0010EBCF126
:103B9000040FA8BF4FF0030CBCF1010FC0F2BD80B1
:103BA0000892CDF814C0CDF804E00392DDF804C00B
:103BB000039C059AACF1010CBCF1080F94FBF2F3E5
:103BC0006EDC9B4A019C02EBC40CADF80A10ADF808
:103BD0000800C4F10904A41C04EBD474ACF1080976
:103BE00004936410002304980093D9F80020D9F8B6
:103BF000041012FB00FA328911FB00FBF1885144DA
:103C00000FFA81FCBCF1000F5A4441D4BDF908E021
:103C10000BB273453CDA13B2002B39D4BDF90AC09C
:103C200010B2604534DA6B4612B209B2281D01F0B9
:103C300082FBDDF800C0BCF1000F18BFC44527D0DF
:103C4000614606A801F0A5FCB6F90620BDF91800EA
:103C5000BDF91C10B6F90830101ABDF91A2001EB95
:103C6000D171A0EB6100BDF91E109A1A01EBD17160
:103C7000A2EB6102524300FB0020B84208D2DDF8FB
:103C800000800746C5F83080A5F834A0A5F836B006
:103C9000641E09F11009A5D1BDF90A10BDF908008B
:103CA000019B039C059A5B1C0193089B1C190394C0
:103CB000019CA24209DB79E7B6F90820B6F90610A3
:103CC00005F13003281D01F036FB296B29B303A849
:103CD00001F05FFC3189E88EBDF80E30F788BDF841
:103CE0000C4032794118CB1AA98E8DF8042000229D
:103CF000ADF80830ADF80A20CF193C1B4D4FADF898
:103D000006400097286B69460268536C98473079E3
:103D100018B100212963A986E98609B0BDE8F08FB2
:103D2000F8B588B004460D46216B002973D068466B
:103D300001F02FFCB4F93430EF88B4F936102A8939
:103D4000BDF90060DF1938B28A18B04239DBBDF81E
:103D50000060BDF804003FB2861930B2874230DA05
:103D6000BDF9020017B287422BDBBDF8067012B214
:103D70003F180FFA87FE724523DAB5F80AC0AA8900
:103D8000BDF900E063440FFA83FC8918F4450ADBAF
:103D90001BB236B2B34206DA0AB2824203DB09B280
:103DA0003FB2B9420DDB23490222002300918DF876
:103DB00004206946ADF806300293206B0268536C0C
:103DC0009847216B02A801F0E4FBB4F93630AE89C4
:103DD000BDF90A10B4F93420BDF808009E19761A0E
:103DE00036B201966F89D7193F1A3FB2BDF8080065
:103DF00000972E899B195B1AE9881BB25218121A78
:103E0000297912B204A801F0EDFB226B014610469D
:103E10001268D36C984709B0F0BD0000D4D70008F1
:103E2000D46B0020D26B0020DC6B0020565555551A
:103E3000C0D4000880DD000838B586B004460D46C1
:103E4000216BE9B101A801F0A4FB6A89E18EBDF8FC
:103E500006008A18121A12B200922B89A18EBDF8A0
:103E60000400B5F90620CB1829791B1A1BB203A848
:103E700001F0C8FB226B014610461268936C98470C
:103E800007B030BD0A46011D1046126893691847F5
:103E90002DE9F042B1F900308A88B0F90040D2181B
:103EA00016B2B442BFBF85882D190FFA85FC634551
:103EB00014DAB1F90270B1F806E0B0F902C0BE44FC
:103EC0000FFA8EFEF445BFBFC68866440FFA86F926
:103ED0004F4503DAA34206DA234604E00023002418
:103EE0008380002517E06446BC420FFA82FCB8BF0D
:103EF0003C462FB26745B8BF2A46D21A4588828011
:103F00004E88C288C98855192DB28E1936B2B5426D
:103F1000C8BF35462D1BC58044800380BDE8F082B4
:103F2000B0F904100129A4BFB0F90600012801DA94
:103F30000120704700207047F0B4B0F90040B1F99B
:103F40000050A542A2BFB0F90260B1F90270B742B9
:103F500011DB83888A881C1924B255192DB2AC4212
:103F600009DBC088C988861936B2CF193FB2BE4274
:103F7000A8BF012000DA0020F0BC70472DE9FC4109
:103F800088460021009116460191B8F84070B5B2FC
:103F90000446BD4214D208EBC50168460822B6B2F9
:103FA000FDF7F6FB791E8FB2BE42A8F8401007D28B
:103FB00089B208EBC50008EBC1010822FDF7E8FB58
:103FC000204669460822FDF7E3FBBDE8F38150B4C3
:103FD000B1F900308E88B0F90040F61836B2B4421C
:103FE000BFBF8288141924B2A3420FDAB1F90220AC
:103FF000C988B0F90230891809B28B42BFBFC088A6
:10400000C3181BB29A42B8BF012000DB002050BC8D
:1040100070472DE9F007B1F90450012DA4BFB1F9A3
:104020000620012A3CDBB0F90460012EA4BFB0F9E0
:104030000670012F08DBB1F90080B0F90090C1458E
:10404000B4BF4B4643460AE00A8802804B8843804F
:104050008C888480C988C180BDE8F0077047B0F9BA
:104060000240B1F902A04E4445440FFA85F80FFA18
:1040700086F94F88C2885445C988C8BF5446C84588
:10408000B8BF35464688CF193FB2038044809619A1
:1040900036B2BE42B8BF3E46ED1A341B8580C4809E
:1040A000BDE8F00770471CB513460A46B0F840104B
:1040B0000C46082C0ADACDE90023491C0822A0F896
:1040C000401000EBC4006946FDF762FB13BD426877
:1040D0003AB1816819B9C068C10702D510B1012091
:1040E00000E00020C0B27047002201F09DBA10B578
:1040F0000446FDF74DFB204610BD42683AB1816889
:1041000019B9C068C10702D510B1012000E0002034
:10411000C0B27047F0B585B050260B9D25B986F327
:10412000118800F002FBFEE70C9C24B986F311888D
:1041300000F0FBFAFEE760270097009F602F04D095
:1041400086F3118800F0F1FAFEE7009E2563022550
:10415000002784F85D5004AD0397029401950A9EF0
:10416000009600F034F8204600F078F8049805B086
:10417000F0BD2DE9F8430646174684B088469946B7
:10418000B80001F073FA05001CD0602001F06EFA4F
:10419000040014D00020256384F85D000D9A03907C
:1041A0000C9801924B4600903A46029441463046A4
:1041B00000F00DF8204600F051F8012004E02846F8
:1041C00001F0DDFA4FF0FF3005B0BDE8F0832DE9D6
:1041D000F0470A9F81460C4615469A46A522386B41
:1041E000A90001F01DFA3A6B02EB850107F13405D5
:1041F000081FC0084FEAC00808F0070054B10021AA
:10420000625C6A54605C10B1491C1029F8D300202C
:10421000E87300E02870089E099C372E88BF372677
:10422000FE62AE61C6F13806E861381D01F005FB9B
:1042300007F1180001F001FB3F610020BE6152460A
:104240007F6249462862686287F85C00404601F058
:1042500031FB386004B12760BDE8F0872DE9F041FB
:1042600000F054F8E86C1426DFF82885401CE86458
:10427000A86A28BBAC62E96C012929D1002706FB9A
:1042800007F07F1C404401F0CBFA382FF7D305F13B
:10429000740005F1880701F0C3FA384601F0C0FA4E
:1042A000284601F0BDFA05F1140001F0B9FA05F154
:1042B000380001F0B5FA05F17401E9622F6307E0F7
:1042C000A86D28B9E16AA86AC26A914228BFAC62A7
:1042D000A86E401CA8666064E06A696D814238BFC0
:1042E00068654643211D08EB060001F0A9FA01F0BC
:1042F0006EFBA86D40B1A96AE26AC86A904203D217
:1043000000F00DF800F011FABDE8F0810446DFF886
:10431000C45501F043BB04F1180001F0B7BA4FF0E7
:104320008051DFF8D83519607047000080B586B03D
:104330000020059003AA049004A905A8FFF75EF8E1
:10434000059A049802920021039A0190009100239B
:1043500013A10FF28530FFF7DDFEB8B101F0A4FB29
:104360005021012814D181F3118800F0DEF9DFF823
:10437000F4054FF0FF31C166012282650023036519
:10438000806A002100F0D5F801F0B6FA07B000BD50
:1043900010F1010FFAD181F3118800F0C6F9FEE7A0
:1043A00049444C4500000000DFF8B805016F491C86
:1043B0000167704770B5DFF81C650024306F002579
:1043C00020B900F0A4F800F0B0F9FEE701F0E6FA39
:1043D000306F401E3067316F002936D1F06CD0B994
:1043E00033E0F168CC68FFF796FF00F009FAE06A65
:1043F000716DDFF87425814238BF70651423211D6B
:104400005843104401F01CFAE06AB16ACA6A90424B
:1044100024BF0123336630680028E2D10CB100F0DC
:104420009EF9F46D3CB100F015F808B1012030663A
:10443000641EF8D1F565306E38B14FF08051DFF869
:104440002C250125116000F070F94FE2DFF814050A
:10445000006D70472DE9F843DFF878740026386F57
:1044600000284DD13C6D641C3C6510D1F86A006891
:1044700020B100F04CF800F058F9FEE7F86A396B0B
:10448000F9623863786E401C786600F068F9F86E5F
:104490004FF01408DFF8D094844227D319E0281D88
:1044A00001F0F4F9A86A18B105F1180001F0EEF96D
:1044B000E86A796D814238BF786508FB00F0291DF4
:1044C000484401F0BDF9E86AB96ACA6A904228BF57
:1044D0000126F86A006830B1F96AC868C56868687A
:1044E0008442DCD201E04FF0FF30F866B86AC06A5F
:1044F00008FB00F059F80010022904D3012602E05D
:10450000F96D491CF965386E00B10126F2E15021C0
:1045100081F31188704738B504000D4604BFDFF8F9
:10452000B403846A01F03AFA6565BDE8314001F0F0
:104530004EBA10B9DFF82C04806A426D002A1CBF05
:10454000084610470020704710B5DFF88843206FF9
:1045500010B10122226610BD002301212366A06A4A
:10456000FFF7E7FF616DDFF8002400E0491E142328
:104570004B43D05830B90029F8D1FFF7C8FF00F0FD
:10458000D4F8FEE7D01800F1080342685268426090
:104590009A4204BF526842604068C268A262616584
:1045A000A06A0021BDE81040C3E710B50C4610B961
:1045B00000F0B8F8FEE700F01BF801F04EF92046D5
:1045C0000121BDE8104000F0A6B938B50D461446EB
:1045D00010B900F0A7F8FEE700F00AF801F030F992
:1045E0000CB14FF0FF3521462846BDE8344092E13A
:1045F000DFF87023936A03F11801704738B5C0687B
:10460000C46824B9FFF783FF00F08FF8FEE704F1D8
:104610001800DFF8505301F039F9296F41B900F063
:10462000EFF800F018F838BF6A6500F06FF902E0A3
:1046300004F11801284601F003F900F061F902D2F3
:104640000120286632BD002032BD1420211D4243C6
:10465000981801F0F5B8E26A686DDFF80C33904203
:104660007047DFF800134A6E0260096D41607047C1
:10467000F8B504460D46502014B900F054F8FEE792
:1046800015B900F050F8FEE701F088F9DFF8D40220
:10469000016D62682E688B1A16F1010F0ED0476EFD
:1046A000D4F800C0674501D091420BD2B34207D283
:1046B000F31A2B60416E2160006D6060002402E0FF
:1046C00000212960012401F082F92046F2BD012079
:1046D000DFF890120866704770B52E4C7D4D11E0E2
:1046E00001F05CF9286AC668301D01F0CFF8E86C6B
:1046F000401EE864696B491E696301F068F9304641
:1047000000F018F8686B0028EAD12168022906D366
:104710004FF08050DFF85422106000F006F801F0EE
:104720006FFBEFE7502080F31188BFF34F8FBFF38B
:104730006F8F704710B5044694F85D0040B9206B48
:1047400001F01DF82046BDE8104001F018B810BD7A
:104750000128F7D00228FAD0FFF7E4FFFEE75D4911
:10476000C86A006818B94FF0FF32CA667047C86A55
:10477000C268D3685868C8667047DFF8E811886D6A
:1047800008B901207047086F08B90220704700205F
:1047900070470000F85D0020F8B50446002074B3AF
:1047A000E16A4C4DAA6AD36A994222D2A0690028D4
:1047B00004D4A86AC26AC2F13802A26114276269ED
:1047C0007943DFF8A46131448A420ED100F018F831
:1047D000A96AC86AE0626A6D824238BF6865474369
:1047E000211DF01901F02CF808E0A86AC16AE16205
:1047F00004E0E16CAA6AD36A994200D20120F2BDBA
:10480000201D01F043B838B5044600213CB3314DBA
:104810005022A86A844204D082F31188FFF785FFF2
:10482000FEE7206D20B982F31188FFF77EFFFEE7D7
:10483000E26A401EE36C20659A4210D078B9FFF717
:10484000DFFFE26CDFF82031E262C2F13800A061E4
:10485000696D914238BF6A65FFF7F7FE012108468E
:1048600032BDF8B5040033D0206D502220B982F358
:104870001188FFF75AFFFEE7E36C994238BF1946EB
:10488000E36A8B4224D0012822D1124DA86A8442C7
:1048900004D182F31188FFF748FFFEE7A069E162C7
:1048A000DFF8C46000285CBFC1F13801A1611427A2
:1048B00061697B43F21891420AD1FFF7A1FFE06AD8
:1048C000696D814238BF68654743211DF0194FE08B
:1048D000F1BD000050670020DFF88810886A18B129
:1048E000886A026D521C0265886A704701F06FF891
:1048F000284670BD3046BDE8F283000004ED00E0BC
:10490000A86AE26AC16A9142704700001420211D22
:10491000424398187047F8B5124D0C462F6DA96A9E
:104920000646081D00F0B2FF16F1010F05D124B1B3
:10493000A86A011D05F138001AE0A86AF619BE42FE
:104940004660A86A05D2011D286BBDE8F44000F05E
:1049500084BF011DE86A00F080FFE86E864238BF20
:10496000EE66F1BD50670020F85D002004ED00E028
:10497000BDE8F44000F064BF70B504000D4602D1FC
:1049800000F090F8FEE701F009F8206CE16B226876
:10499000002600FB01F3491E48434FF0FF3113444A
:1049A000A3601044A663E06004F1440062600170FB
:1049B000417075B92069A0B104F11000FFF71EFE27
:1049C00078B14FF08050DFF8D817086000F0EAFAAD
:1049D00007E004F1100000F023FF04F1240000F0D0
:1049E0001FFF00F0F4FF012070BD7CB51C46502372
:1049F00020B983F3118800F0D5FAFEE724B983F3D8
:104A0000118800F0CFFAFEE72AB129B983F31188A3
:104A100000F0C8FAFEE769B90093009E502E0ED14F
:104A2000069B009D012684F84660009400F02BF858
:104A3000204676BD83F3118800F0B4FAFEE783F3D5
:104A4000118800F0AFFAFEE7F8B506000D461746EC
:104A500002D100F027F8FEE7002D0EBF502005FB25
:104A600006F0503000F002FE04000AD000203B4661
:104A700084F8460004F1500200942946304600F0C4
:104A800002F82046F2BD38B51C46049D01B92A46FD
:104A90002A60E863284629640121FFF76DFF85F845
:104AA0004C4031BD502080F31188BFF34F8FBFF3CE
:104AB0006F8F704738B50C461346502120B981F3EB
:104AC000118800F06FFAFEE7A04204D281F311884A
:104AD00000F068FAFEE70225002200950021FFF7AA
:104AE00084FF00B1846332BD10B50C46502120B95B
:104AF00081F3118800F056FAFEE7A04204D281F358
:104B0000118800F04FFAFEE702220021FFF79CFF18
:104B100000B1846310BD2DE9F64782B004461E46FD
:104B2000502714B900F03CFAFEE75FEA010A01D110
:104B3000206C60B9022E02D1E06B01280AD1FFF788
:104B40001CFE50B9039840B100F02AFAFEE700F0CD
:104B500027FAFEE700F024FAFEE72746002400F0DB
:104B600072F92DE0039800284AD00CB900F012FA2F
:104B700000F02DFFFFF718FC00F010FF07F14400D4
:104B800000F0FEF904BF0022027000F0FEF904BF3D
:104B90000022427000F01BFF00F04DF8002844D1C5
:104BA00000F0FCFEB86BF96B884214BF00250125AC
:104BB00000F00DFF45BB384600F092FAFFF7FAFB14
:104BC00000F0ECFEB86BF96B884201D3022EC9D11C
:104BD00032465146384600F03CFA796A29B107F16D
:104BE0002400FFF70BFD08B904E018B1C8F80090E5
:104BF00000F0D8F900F0EBFE012004B0BDE8F0872A
:104C000000F0E5FE0020F8E7039907F11000FFF738
:104C1000CCFC384600F064FAFFF7CCFB0028CFD17B
:104C2000C8F8009000F0BEF9CAE7384600F058FA1C
:104C3000FFF7C0FBE6E703A96846FFF719BD2DE9BA
:104C4000F8430446884615461E46502714B900F01E
:104C5000A7F9FEE7B8F1000F01D1206C20BB022EAE
:104C600002D1E06B012822D100F0D6FEEFF31189CA
:104C700000F062F801D3022E21D194F9457032463A
:104C80004146204600F0E5F917F1010F12D1606AA4
:104C900098B104F12400FFF7B1FC002818BF002DE3
:104CA0000BD00120286008E000F07AF9FEE700F060
:104CB00077F9FEE77F1C84F84570012000E00020B2
:104CC00089F31188BDE8F283F8B504460D465027F4
:104CD00014B900F065F9FEE7206C10B100F060F93E
:104CE000FEE7216809B9A068D0B900F095FEEFF39E
:104CF000118600F021F81BD294F94510401CA063E6
:104D000011F1010F0FD1606A80B104F12400FFF7A7
:104D100075FC002818BF002D08D00120286005E090
:104D200000F03EF9FEE7491C84F84510012000E040
:104D3000002086F31188F2BD87F31188BFF34F8FEF
:104D4000BFF36F8FA06BE16B884270472DE9F7438B
:104D500006460F460024502526B985F3118800F039
:104D600021F9FEE70FB9306C48B9FFF706FD78B9B5
:104D7000029868B185F3118800F014F9FEE785F315
:104D8000118800F00FF9FEE700F008F9FFF712FBB9
:104D900000F004FEB56B00F056F82DB90298C8B9C2
:104DA00000F015FE002013E03946304600F085F98A
:104DB0006D1EB563306940B106F11000FFF71EFCAF
:104DC00018B1C8F8009000F0EDF800F000FE0120E6
:104DD000BDE8FE830CB900F0DDF800F0F8FDFFF748
:104DE000E3FA00F0DBFD06F14400415711F1010F39
:104DF00004BF0022027000F0C8F804BF0022427015
:104E000000F0E5FD02A9FFF717FF0028304610D19A
:104E100000F09AF90028B7D000F0ADF800F0BEF825
:104E2000FFF7C8FA0028B3D1C8F8009000F0BAF82C
:104E3000AEE700F055F9FFF7BDFA304600F084F90F
:104E40000028A5D0AEE7DFF858834FF080597047AF
:104E50002DE9F24382B0064600240025502716B9FA
:104E600000F09EF8FEE7306C10B100F099F8FEE714
:104E7000FFF783FC40B9029830B100F091F8FEE7EB
:104E800000F08CF8FFF796FA00F088FDB06BFFF7A2
:104E9000DAFF30B90298D0B9002D67D000F080F861
:104EA000FEE7401EB063306810B9FFF715FDB06033
:104EB000306940B106F11000FFF7A0FB18B1C8F847
:104EC000009000F06FF800F082FD012051E00CB975
:104ED00000F060F800F07BFDFFF766FA00F05EFD81
:104EE00006F1440000F04CF804BF0022027000F00C
:104EF0004CF804BF0022427000F069FD02A9FFF7E0
:104F00009BFE002830461AD100F01EF90028B7D0C9
:104F1000306838B900F042FDB068FFF73DFC054647
:104F200000F055FD00F027F800F038F8FFF742FADE
:104F30000028A9D1C8F8009000F034F8A4E700F0E8
:104F4000CFF8FFF737FA304600F0FEF800289BD084
:104F500075B100F023FD706A0028B0681DBF316B89
:104F60000968C1F138010021FFF77BFC00F02FFD3B
:104F70000020BDE8FE83029906F12400FFF715BB6F
:104F800090F9001011F1010F704790F9011011F123
:104F9000010F704768460124FFF763BB30469FE06E
:104FA00087F31188BFF34F8FBFF36F8F70472DE9E1
:104FB000F84304460F461546502624B986F3118857
:104FC000FFF7F0FFFEE70FB9206C70B900F024FD89
:104FD000EFF3118886F31188FFF7E4FFA66B4EB953
:104FE000002088F31188BDE8F28386F31188FFF76B
:104FF000D9FFFEE794F9449039462046761E00F02A
:105000005CF8A66319F1010F0CD1206970B104F1AD
:105010001000FFF7F3FA002818BF002D06D001207A
:10502000286003E009F1010084F844000120D8E77A
:1050300010B5040002D1FFF735FDFEE700F09FF840
:1050400094F8460020B92046BDE8104000F097BB18
:1050500010BDF8B506461546B46B326C002742B950
:10506000316831BBB068FFF7CEFB00210746B16065
:105070001FE065B97068FCF78BFBB2687068316C33
:1050800008449042706014D33068706011E0F0689A
:10509000FCF77EFB306CF16840420144F1603268FD
:1050A000914202D2B3681844F060022D01D104B1DC
:1050B000641E641C3846B463F2BD38B5026C0B46FE
:1050C0006AB18468C1681144C160A14224BF056807
:1050D000C560C1681846BDE83840FCF759BB31BD12
:1050E000F8B5054605F1440400F058FC94F9016058
:1050F00007E005F12400FFF781FA08B1FFF7E7FAAE
:10510000761E70B2012802DB686A0028F1D14FF0E8
:10511000FF36667000F05BFC00F040FC94F9007014
:1051200007E005F11000FFF769FA08B1FFF7CFFAC1
:105130007F1E78B2012802DB28690028F1D1267091
:10514000BDE8F14000F043BC10B5044600F026FC79
:10515000A06B441EA44100F03AFCE00F10BD10B556
:105160000023104C54F833201AB15B1C082BF9D3E0
:1051700010BD44F8331004EBC301486010BD10B5F6
:105180000021084A02EBC1035C68844203D0491C39
:105190000829F7D310BD002042F83100586010BD37
:1051A00004ED00E0506A0020F8B504460D461646AE
:1051B00004F1380700F0F2FB97F90C0010F1010F31
:1051C00004BF0021397397F90D0010F1010F04BFDE
:1051D0000021797300F0FBFB386828B93246294674
:1051E00004F12400FFF7F1F92046BDE8F24077E72B
:1051F000012000F00BBE2DE9F04106460F46354672
:10520000380018BF002D90461C4605D024B130460A
:10521000B847641E4644FAD12846BDE8F0810B46E3
:105220000146184600F008BE10B40021002381801A
:105230000124C180084A41818181018241828161CA
:10524000C16100F124010381C38143610B704C7083
:1052500002604B6010BC704788CC0008F8B504466B
:105260001E462368BDF918505F6BB8473146266863
:105270002046B26B9047236820462946DC6BA04746
:10528000F1BD09061206090C520D01F4784102F431
:10529000FC6211431B0641EAD3607047002248615B
:1052A0008A61826A12B98162704702469069002859
:1052B000FBD19161704790F82520002A00D17047FA
:1052C000F8B586B0866AA6B368460822FCF760FA8D
:1052D000DDE9004596F8257047B3CDE90245311D5B
:1052E00002A8FEF7D5FD04A802A90822FCF750FA8F
:1052F000684604A90822FCF74BFABDF9040001280E
:10530000A4BFBDF90610012910DBBDF80000B1886B
:10531000401AADF80000BDF80200F188401A694655
:10532000ADF802003268304693689847B669002E9F
:10533000D0D107B0F0BD2DE9F04116460D4600F181
:1053400024021F46117801B13860546824E094F8B3
:10535000250000B3B4F904108D421CDBB4F808C07A
:105360008C440FFA8CFC654515DAB4F90620964298
:1053700011DBB4F80AC094440FFA8CFC66450ADAD3
:10538000D4F800E0B21A691A3B4612B209B2DEF84C
:105390001C802046C047A469002CD8D1BDE8F0810C
:1053A000E0B500226946009201920822FCF7F0F96C
:1053B00003B000BDF8B586B00E4690F8251017462C
:1053C00000291CBF846A002C32D094F8255065B3A4
:1053D00002A831460822FCF7DBF9211D02A8FEF7DE
:1053E00057FD04A802A90822FCF7D2F9684604A9CF
:1053F0000822FCF7CDF9BDF904000128A4BFBDF9CE
:105400000610012911DBBDF80000A1883A46401AB8
:10541000ADF80000BDF80200E188401A6946ADF819
:10542000020023682046DD6DA847A469002CCCD17A
:1054300007B0F0BD1CB50446B4F90C0010F1010F23
:1054400014D1B4F90A20B4F908300020694600905C
:105450002046ADF80430ADF806202268136A98475C
:1054600004F10C0069460822FCF792F904F10C00E3
:1054700016BD1CB50446B4F9201011F1010F09D175
:105480002146684600F085F8BDF800102184BDF87B
:1054900002006084B4F9200016BD1CB50446B4F9BE
:1054A000221011F1010F09D12146684600F071F870
:1054B000BDF800102184BDF802006084B4F9220018
:1054C00016BD90F8771019B1406802681168084756
:1054D0000020704770B584B004460D46A088298826
:1054E0004118684629806E88E288211D9619082295
:1054F0006E80FCF74DF929466846FEF7C9FC02A804
:1055000069460822FCF744F9284602A90822FCF75C
:105510003FF9606928B1026829461369984704B0C9
:1055200070BDFCF7ECFE02682946536B984704B047
:1055300070BD3EB504466846211D0822FCF728F9D7
:10554000002569460095226820461369984703B0F4
:1055500030BD38B505460C462188A888411820463C
:1055600021806388EA88291DD3186380FEF790FCA8
:10557000B4F90420012AA4BFB4F90600012807DB0E
:10558000686928B102682146136ABDE834401847AB
:1055900031BD3EB504460846B0F90A10B0F90850CE
:1055A00000220092ADF80450ADF806100368694679
:1055B0005A6A9047204669460822FCF7E9F803B08A
:1055C00030BD18B40A8883889A180A804C88C2882B
:1055D00014194C80406918B10268536A14BC18470A
:1055E00011BC704770B4BDF90C40BDF91050044EA9
:1055F00006600171C28003814481858170BC70475F
:1056000094DD000830B4BDF90840044D0560017117
:10561000C2800381448130BC704700BFA8DD000810
:1056200062F30F2262F31F4200B500BF13009646DB
:105630009446103928BFA0E80C50FAD85FEA417CA4
:1056400028BF0CC048BF40F8042BC90728BF20F86A
:10565000022B48BF00F8012B00BD4FF0FF318181C4
:10566000018441841168C161106070472DE9F843DD
:1056700004466A4FFEF798FEB8684FF0000900250F
:1056800008BB07F1180313F0070F07F118014FF4D7
:1056900070500A4605D0CA1DD208D200C2F570501B
:1056A000081880180838C008C0003A60811A7D6068
:1056B000B860456005605160106050683861F860FE
:1056C0004FF00040786179694FF050080C4246D1A4
:1056D000002C44D0083414F0070F1FBF04F1080059
:1056E00004F00704041B14F0070F02D000F040F888
:1056F000FEE7A4B3F868A04231D339463E6801E022
:10570000314606467268A24202D230680028F7D1BC
:10571000B868864223D00A6833680B6002F1080932
:105720007268121B112A0CD3311911F0070002D034
:1057300000F01EF8FEE7301D02510846746000F0CC
:1057400048F83A697168F868401A9042F86038BFC2
:105750003861786901437160356009F00705FEF72B
:1057600029FE15B100F004F8FEE74846BDE8F283D3
:1057700088F31188BFF34F8FBFF36F8F70470028F6
:1057800000D1704738B5A0F10804244D61686A69FA
:105790005023114202D100F015F8FEE7206810B145
:1057A00000F010F8FEE791436160FEF7FDFDE96847
:1057B000606841182046E96000F00BF8BDE8314010
:1057C000FEF7F8BD83F31188BFF34F8FBFF36F8FE0
:1057D0007047124930B50A4600E01A461368834202
:1057E000FBD35368D418844203D14068C3181046D1
:1057F000536043681468C518A54208D189688C4273
:1058000004D06168CB184360246800E00C468242F3
:10581000046018BF106030BD00000000400E002082
:105820004FF0FF3200F10801826000F1080341608F
:105830000022C3600161026070470021016170476E
:1058400010B542684A6093688B60946861609160AB
:1058500008610168491C016010BD30B50A6812F189
:10586000010F08BF036907D000F1080300E02346D9
:105870005C682568AA42FAD25A684A6091608B60D7
:10588000596008610168491C016030BD10B543686A
:10589000016982689A608268446854604B688342F8
:1058A00004BF82684A60002303610868401E0860E4
:1058B000086810BD4908490010B5A0F120034FF059
:1058C000807499610FF215011A606FF00202DC61B9
:1058D000596140F8242D203810BD00005B4950204C
:1058E0004A6812F1010F80F31188BFF34F8FBFF3A5
:1058F0006F8F00D0FEE7FEE7FEB5554A50211068D5
:10590000544B984202D100F0B3F8FEE71068524BB6
:10591000984202D100F0ACF8FEE7504BFF251C780E
:1059200001944A4C1D701E7807258DF800609DF883
:105930000000A56000F05000207006E0401EA0604E
:105940009DF8000040008DF80000A0689DF8005010
:105950002E06F3D4C0F10707042F02D000F088F818
:10596000FEE7000200F4E060A06001981870116A80
:1059700041F470011162106A40F07040106200F052
:105980007FF80021616000F0E5FA3548026842F0D6
:105990004042026000F0CEFA0020FEBD502080F3AD
:1059A0001188BFF34F8FBFF36F8F28494A68521C8D
:1059B000012A4A600AD12B490A68130606D080F3EF
:1059C0001188BFF34F8FBFF36F8FFEE770471F49FA
:1059D000486838B9502080F31188BFF34F8FBFF368
:1059E0006F8FFEE7401E486008BF80F31188704744
:1059F00080B5502080F31188BFF34F8FBFF36F8FB6
:105A0000FEF728FD18B14FF08050164908600022BB
:105A100082F3118801BD000010B5EFF3058050211D
:105A200010280A4A07D3104B185C1478A04202D2FF
:105A300000F01EF8FEE790680C4A136803F4E06378
:105A4000984202D200F014F8FEE710BD3C0000209E
:105A500000ED00E071C20F4170C20F4100E400E0B0
:105A600034EF00E004ED00E0F0E300E00CED00E0D6
:105A700081F31188BFF34F8FBFF36F8F7047000022
:105A800030B5074800210160064B81601C684FF467
:105A90007A750721B4FBF5F56D1E4560016030BDD8
:105AA00010E000E05400002010B586B0DFF8384365
:105AB00000F072F9A068D0B1002204A9059205A8EF
:105AC000049203AAFDF7A2FC022205980092049911
:105AD000039A0290019100230FF214310FF271002A
