:020000040800F2
:10000000000008246D9A0008831E0008851E000861
:10001000871E0008891E00088B1E000800000000D3
:10002000000000000000000000000000917C0008BB
:100030008D1E000800000000217D0008857D00085D
:10004000BD9A0008BD9A0008BD9A0008BD9A000834
:10005000BD9A0008BD9A0008BD9A0008BD9A000824
:10006000BD9A0008BD9A0008BD9A0008BD9A000814
:10007000BD9A0008BD9A0008BD9A0008BD9A000804
:10008000BD9A0008BD9A0008BD9A0008BD9A0008F4
:10009000BD9A0008BD9A0008BD9A0008BD9A0008E4
:1000A000BD9A0008BD9A0008BD9A0008BD9A0008D4
:1000B000BD9A0008BD9A0008BD9A0008BD9A0008C4
:1000C000BD9A0008BD9A0008BD9A0008BD9A0008B4
:1000D000BD9A0008BD9A0008BD9A0008BD9A0008A4
:1000E000BD9A0008BD9A000800000000BD9A0008F3
:1000F000BD9A0008BD9A0008BD9A0008BD9A000884
:10010000BD9A0008BD9A0008BD9A0008BD9A000873
:10011000BD9A0008BD9A0008911E0008BD9A00080B
:10012000BD9A0008BD9A0008BD9A0008BD9A000853
:10013000BD9A0008BD9A0008BD9A0008BD9A000843
:1001400000000000000000000000000000000000AF
:10015000BD9A0008BD9A0008BD9A0008BD9A000823
:10016000BD9A0008BD9A0008BD9A0008BD9A000813
:10017000BD9A0008BD9A0008BD9A00080000000062
:10018000BD9A0008BD9A0008BD9A0008BD9A0008F3
:10019000BD9A0008BD9A0008BD9A0008BD9A0008E3
:1001A0009D1E0008BD9A0008A91E0008BD9A0008FF
:1001B000BD9A0008BD9A0008BD9A0008BD9A0008C3
:1001C000BD9A0008BD9A0008BD9A0008BD9A0008B3
:1001D000BD9A0008BD9A0008BD9A0008BD9A0008A3
:1001E000BD9A0008BD9A0008BD9A0008BD9A000893
:1001F000BD9A0008BD9A0008BD9A0008BD9A000883
:10020000BD9A0008BD9A0008BD9A0008BD9A000872
:10021000BD9A0008BD9A0008BD9A0008BD9A000862
:10022000BD9A0008BD9A0008BD9A000800000000B1
:10023000BD9A0008BD9A000800000000BD9A0008A1
:10024000BD9A0008BD9A0008BD9A0008BD9A000832
:10025000BD9A0008BD9A0008BD9A0008BD9A000822
:10026000BD9A0008BD9A0008BD9A0008BD9A000812
:10027000BD9A0008BD9A0008BD9A00080000000061
:10028000BD9A0008BD9A0008BD9A00080000000051
:0802900000000000BD9A000807
:1002A00010B5054C237833B9044B13B10448AFF3B0
:1002B00000800123237010BD5C01002400000000B9
:1002C00090A3010808B5034B1BB103490348AFF3E2
:1002D000008008BD000000006001002490A3010818
:1002E00001F0FF01102A2BDB10F0070F08D010F8E7
:1002F000013B013A8B422DD010F0070F42B3F6D1EB
:10030000F0B441EA012141EA014122F007047FF003
:1003100000070023F0E80256083C85EA010586EA5A
:10032000010685FA47F5A3FA87F586FA47F6A5FA96
:1003300087F68EB9EED1F0BC01F0FF0102F00702A2
:1003400032B110F8013B013A83EA010313B1F8D14D
:100350000020704701387047002D06BF354603382E
:10036000073815F0010F07D1013015F4807F02BF67
:10037000013015F4C03F0130F0BC0138704700BFB8
:10038000704704387047704710B50446102119F0C3
:1003900015F8204610BDA0F10400F5E70022C16069
:1003A0008260044A10B502F1080420320460426001
:1003B00010BD00BFF4A30108704770477047704735
:1003C000704710B504464FF4667118F0F7FF2046E9
:1003D00010BD000010B5044600F078F9094B236009
:1003E000094B1A88B4F9A8309A4205DC074B1A88E1
:1003F000B4F9AA309A4202DD012384F895302046F0
:1004000010BD00BF24A4010834690024366900240B
:100410000022026070477047704700F596730868C5
:10042000496803C37047704710B504464FF4AC7178
:1004300018F0C4FF204610BD10B50446D0F8540192
:10044000FFF7E9FF2046BDE810400BF067B910B593
:100450000446D0F83C0158B10368DB68984738B1CE
:10046000D4F83C0103689B6898470023C4F83C31EA
:1004700010BD000010B5044600F0E4FA014B204620
:10048000236010BD58A4010870B51E4603680446D9
:10049000BDF910505B6B98472368314620469A6B34
:1004A0009047236829462046DB6BBDE8704018471B
:1004B00081807047C180704770B503680446154657
:1004C000DB6A98472368294620461B6BBDE87040CD
:1004D00018470181704741817047704770477047E6
:1004E00070477047C388D21A8388C91A036812B24A
:1004F00009B210B45DF8044B5B6D18474FF6FF73FB
:1005000083814FF0FF3303621368C361106070474B
:100510007047704790F825201AB190F8242002B156
:100520001860704770477047704730B4C56803461D
:1005300044686A10ED079B6804EB020048BFA258AC
:1005400030BC48BFD358184743682BB183682BB9D8
:10055000C06800F0010070471846704701207047DE
:1005600010B50446102118F029FF204610BD10B523
:1005700004464FF4667118F021FF204610BD00F5C7
:100580009273994205D1012380F8C53200F5287095
:1005900008E000F5AC73994206D1012380F8B1312F
:1005A00000F5C6700BF0B4BE00F51B73994201D183
:1005B0000023F3E700F55573994201D10023E3E7E7
:1005C00070470000094A026000228280C2800281D6
:1005D00042818281C28102824282C26180F82420EB
:1005E000C0E90522012280F82520704740C001089B
:1005F00010B504462622002118F061FF2046FFF7BF
:10060000E1FF00232046A36284F82C30012384F804
:100610002430044B23604FF6FF73E385238684F870
:10062000323010BDB4BD010810B5044626220021A9
:1006300018F045FF2046FFF7C5FF054B2046236015
:10064000FF2384F826300023A36284F82C3010BDE9
:10065000E8BC010838B5044626220D46002118F0F2
:100660002EFF2046FFF7AEFF064B204629462360AB
:100670004FF6FF73E38484F828300AF04CFD2046DF
:1006800038BD00BF58BE010813460C4A70B5146847
:1006900005462CB90A4B35210A4A0B4818F09AFE38
:1006A00094F876200AB1E06C00B9A0680268946AF8
:1006B0000A462946A446BDE87040604740690024C8
:1006C000ACA4010860A50108EFA401082DE9F04FD2
:1006D00004468DB000250CF057F9A346B44BE563F2
:1006E0000CAE4BF8403B5846FFF79EFF04F17003F9
:1006F0004FF6FF7804F5C67718460993FFF794FF85
:1007000004F1A00326F8048D314618460293FFF742
:10071000A1FF04F1CC033146ADF82C8018460393B9
:10072000FFF798FF04F1F8033146ADF82C80184626
:100730000493FFF78FFF04F5927304F5107A4FF4DA
:10074000F07918460593FFF753FF04F5AC7318468C
:100750000693FFF74DFF384609F0ACFA3146504694
:10076000ADF82C80FFF776FF04F51B7304F52878AD
:1007700018460793FFF73CFF404609F09BFA04F543
:10078000557318460893FFF733FF8A4BC4F8945308
:100790002A46C4F888332946874B5846CDF800903E
:1007A000C4F890334FF42073C4F88C43FFF76CFE09
:1007B0002A4629462846FFF767FF4FF44873A0668C
:1007C0002A46CDF80090294609984FF00309FFF713
:1007D0005BFE84F895502A4629462846FFF754FFC9
:1007E0002A46C4F898004FF408710298FFF764FE97
:1007F00031460298ADF82C900AF08DFC2A460398F9
:100800004FF48871FFF758FE31460398ADF82C90ED
:100810000AF081FC2A4629460498FFF74DFE31462E
:100820000498ADF82C900AF076FC05984FF49E726F
:10083000612104F56279FFF73FFE072332460AA9DA
:10084000ADF8283008230598ADF82C300AF0A6FB47
:1008500006984FF49572C4F84C9140F2DF11FFF7FF
:100860002BFE092332460AA9ADF828300A23069840
:10087000ADF82C300AF092FB062331463846C4F816
:100880008091ADF82C304622102309F0A5F92A46B4
:1008900029462846FFF7F8FE0146384609F0C9F90F
:1008A0009621384609F0C9F9384609F0B5F92222EF
:1008B00050467821FFF700FE042331465046ADF83C
:1008C0002C300AF028FC5146384609F0AFF9079859
:1008D000A622AF21FFF7F0FD4FF0020A4FF001030F
:1008E00032460AA90798ADF82830ADF82CA00AF0D6
:1008F00055FB07993846C4F8949209F097F90523F7
:1009000031464046ADF82C305A22242309F064F9D0
:100910002A4629462846FFF7B7FE01464046251DD0
:1009200009F087F99621404609F087F9404609F019
:1009300073F9089882229B21FFF7BEFD4FF0010357
:1009400032460AA90898ADF82830ADF82CA00AF074
:1009500025FB08994046C4F87C9309F067F959468D
:10096000284609F0DBFA0999284609F0D7FA0299D6
:10097000284609F0D3FA0399284609F0CFFA0499DA
:10098000284609F0CBFA0599284609F0C7FA0699D6
:10099000284609F0C3FA3946284609F0BFFA284626
:1009A000414609F0BBFA20460DB0BDE8F08F00BF0C
:1009B00034A501089CA401087F0500087047704712
:1009C000416070477047012303727047704770475A
:1009D00010B4C468034641686210E4079B6801EBE9
:1009E000020048BF8A585DF8044B48BFD3581847E7
:1009F00043682BB183682BB9C06800F001007047D1
:100A0000184670470120704710B504460C2118F0B5
:100A1000D5FC204610BD10B504464FF4AC7118F05B
:100A2000CDFC204610BD10B50446102118F0C6FCC0
:100A3000204610BD10B50AF099FF0368BDE81040CC
:100A40001B6B184770B504460D4616460AF0B0FFFA
:100A5000124A0021C4F854511460114D114AC4F8CF
:100A600038112260104A2868C4F83C11C4F84021AB
:100A7000C4F84411C4F84811C4F84C11C4F85061CA
:100A80000268926890472B6893F876200AB1D86C78
:100A900000B9986811F0E3FB204670BDAC690024F2
:100AA00040690024DCA50108C4A50108064BC0F874
:100AB0004401C0F848310023C0F84C3100F5A07360
:100AC000C0F83C31704700BF0D0C00082DE9F0471D
:100AD000074690689946884603681546DDF820A0C9
:100AE0001B6A9847B0F5667F05D2424BA721424A60
:100AF000424818F06FFC686803681B6A98470F2823
:100B000003D83F4BA8213C4AF2E7E86803681B6A18
:100B100098470B2803D83B4BA921374AE8E70AF04E
:100B200025FF0AF029FFD9F8000010B10368DB683F
:100B30009847D9F8000010B103681B6898473868D7
:100B400010B103685B699847D8F8000010B10368DA
:100B50005B689847386810B103681B689847D8F8F5
:100B6000000010B103689B689847E868002103689B
:100B70005B6A9847044620B1002343600372224B0E
:100B80000360A868002103685B6A9847064608B1BD
:100B9000FFF720FC6868002103685B6A98470546F8
:100BA00010B13146FFF7FAFBC9F80040C8F8005011
:100BB0003E60E5B12B1DCAF800303046C5F808A0EC
:100BC0003368F563DB6898472B6828461B689847AD
:100BD000214630460CF054F8236820461B6998479C
:100BE000236820465B6998472846BDE8F0872B4676
:100BF000E1E700BF3CA6010851A80108CAA6010808
:100C00000BA70108AEA7010820A6010807B5D0F878
:100C1000543100F59C710093044BD0F850210448E6
:100C2000FFF754FF03B05DF804FB00BFA069002488
:100C30009C69002413B5002249B102AB019203F86C
:100C4000052D0268946801AAA04702B010BD0846AD
:100C5000FBE74089704780897047808870478379B7
:100C60008088184480B27047C07900F07F007047D8
:100C7000C079C0097047006A704770478B888069E7
:100C8000DB0A0A6850F823001044704710B5C2B15F
:100C9000137BB3B1547BD27A240204F4E06414438E
:100CA000C26998B202EB840213888B4202D192F996
:100CB000020010BD05D80138043280B20028F3D1FB
:100CC000F7E70020F5E710B50446242118F076FB7D
:100CD000204610BD30B589B00446BDF85050069589
:100CE000BDF84C5005959DF8405004959DF83C503A
:100CF00003959DF8385002959DF8345001959DF864
:100D0000305000950BF0C0FB054B20462360119B33
:100D1000A361129BE361159B236209B030BD00BF44
:100D200058A9010830B5154D8BB02C78BFF35B8FF7
:100D300014F001041FD1284618F018FBD8B13F2346
:100D400001220F4907930F4B0F4806930F4BCDE934
:100D500004430423CDE90844CDE90043CDE902442E
:100D60000A23FFF7B7FF284618F00CFB084A094989
:100D7000054818F01EFB04480BB030BD7801002474
:100D8000480100906CD401087C010024A4A901084A
:100D9000000000247B0C000830B5154D8BB02C787A
:100DA000BFF35B8F14F001041FD1284618F0DEFA60
:100DB000D8B13F2301220F4907930F4B0F480693E9
:100DC0000F4BCDE904430423CDE90844CDE90043AA
:100DD000CDE902442823FFF77DFF284618F0D2FA18
:100DE000084A0949054818F0E4FA04480BB030BD38
:100DF000A00100246C01009068D40108A401002423
:100E0000A8A90108000000247B0C000830B5154D8E
:100E10008BB02C78BFF35B8F14F001041FD12846F0
:100E200018F0A4FAD8B13F2301220F4907930F4BC2
:100E30000F4806930F4BCDE904430423CDE9084442
:100E4000CDE90043CDE902441423FFF743FF2846D0
:100E500018F098FA084A0949054818F0AAFA04480F
:100E60000BB030BDC80100247C01009070D4010893
:100E7000CC010024ACA90108000000247B0C000870
:100E8000704710B50446042118F098FA204610BDAA
:100E9000012908B508D003D3022909D0002002E0B7
:100EA00000F012F8006808BD00F00EF84068FAE79C
:100EB00000F00AF88068F6E700487047C4A9010806
:100EC0000B2070470120704700487047F001002454
:100ED00010B5054CFFF79AFF2060FFF75DFF6060DB
:100EE000FFF720FFA06010BDF00100240020704734
:100EF0000EB403B503AB002153F8042B01930BF0A0
:100F0000FDF802B05DF804EB03B070470CB407B510
:100F100004AB53F8042B01930BF0F0F803B05DF829
:100F200004EB02B07047000010B5C36B044673B306
:100F3000038E2BB9184BC021184A194818F04AFAE9
:100F4000C38D00EB43035B8B0BB30CF099FB238E3B
:100F5000012B03D8134BC521134AEEE7E28D40F66F
:100F60003F10531C9BB2092B194688BFA3F10A01FD
:100F700004EB4101498B814209D10A2B04EB420267
:100F800028BF0023508B04EB430358835183204632
:100F9000BDE810400CF058BAA0AA0108CDAB01087A
:100FA000A9AA0108EDAA0108FBAA01080CF006BADB
:100FB00038B5D8B9104B11481B681149BBB11A6834
:100FC0009C681A441C4402605A681A440A606CB156
:100FD0000C4B00221A80FFF777FF0546FFF772FFE0
:100FE000094B1C60094B1D60094B188038BD03601C
:100FF0000B60084B1C68EAE7FC0100240002002497
:101000000402002408020024B0690024B869002406
:10101000B469002490010090012380F8741080F8D6
:10102000753070470020704700207047836B0BB10C
:101030000846184770474FF6FF70704740680368CE
:101040009B691847034B902283F85A2383F858234F
:10105000704700BF00E100E0094A0A49D3680A4826
:10106000C3F30A03013B9BB20B801169C1F30A0170
:10107000013901801364536B43F0010353637047DC
:10108000001000500C0200240A020024014B986A50
:10109000704700BF84100050024B0122996243F850
:1010A000602C70478410005008B531B90A4B4FF4DA
:1010B00027710A4A0A4818F08DF9C0E90F12003268
:1010C0004364084918BF012200330A7018BF012386
:1010D000054A137008BD00BF95AC010860AD01085A
:1010E000CDAC01083E6900243F6900242DE9F0479A
:1010F00099461C4B88460746196814469DF82050AF
:1011000091F876300BB1C86C00B9886803685B6AE7
:101110009847154B1E887043B9F1000F16D008EBA5
:1011200000010A46ADB10B18013CA4B21F2C12D825
:10113000012101FA04F40D49214061B139683846B2
:101140004C6F4146A446BDE8F047604741464A46D9
:10115000E8E72B46E8E7064B40F28921054A0648B6
:1011600018F038F9406900243C6900248B808080A5
:1011700078AC01080CAD0108CDAC010809F014B839
:1011800010B5044609F07AFD23682046D3F8943060
:10119000BDE81040184790F877301BB140680368ED
:1011A0001B6818471846704730B590F8744090F89F
:1011B0003410104B8C421A780DD05AB90E4A0F4990
:1011C00014880F480C8001880E4D1180012229805F
:1011D00004801A7030BD002AFCD00948074A0188F3
:1011E000084D1180044A1488118000222C8004804C
:1011F000EFE700BF38690024346900243A6900240D
:10120000366900243C690024034B4FF080629A60E9
:101210004FF080729A60704700E100E0084B4FF099
:101220008062C3F88820BFF34F8FBFF36F8F4FF0FA
:101230008072C3F88820BFF34F8FBFF36F8F704762
:1012400000E100E038B5044609F090FA2368DD6C4F
:101250000AF08CFB01462046A8472368054A4FF058
:1012600050415D6F20460023A847002384F84A3090
:1012700038BD00BF006009D0134B144A10B51B6C79
:101280001188134C8B4213D1124B198803F06CFF59
:10129000226892F86630013382F8663000F09EFAD8
:1012A000206809F0EBFC0020BDE8104000F0DEBC37
:1012B00003F05AFF002000F0F5FC20680368BDE849
:1012C00010409B69184700BF001000500C0200241A
:1012D000406900240A020024134A0023F0B5C2F832
:1012E0008430BFF34F8FD2F8803043F6E076C3F3FB
:1012F000C904C3F34E33A5075B0103EA060C284675
:1013000021464CEA0007013900F14040C2F87472EE
:101310004F1CF6D1203B13F1200FEED1BFF34F8FBE
:10132000BFF36F8FF0BD00BF00ED00E003685B6CA2
:1013300018470020704703689B6A184740F2EF1077
:101340007047000010B5074C074B2046236004F09F
:101350004AFB064B4FF080622362054B6362054BEC
:101360009A6010BD386B00240010005295130008DD
:101370007913000800E100E008B5034A3E21034B61
:10138000034818F027F800BF28AE0108A7AA0108F3
:10139000AEAD010810B5FFF79FFF044B1B685868FE
:1013A0000368BDE810405B69184700BF406900242E
:1013B000084B10B503600446074804F003FC074BD4
:1013C0004FF08062C3F88820BFF34F8FBFF36F8F59
:1013D000204610BDE0AD0108386B002400E100E0BC
:1013E00010B50446FFF7E4FF4FF44261204617F0C2
:1013F000E5FF204610BD0000044B1B6893F87620E3
:101400000AB1D86C00B99868704700BF40690024E1
:101410002DE9F3410D680C46202D00F0A280402DEF
:1014200000F09F802A1F56425641802D00F09B807D
:10143000A5F580735D425D41FFF7DEFF0368DB6960
:1014400098472368402B00F0A58000F28E80042B83
:1014500000F09980202B00F09D8010284FF00001B3
:1014600014BF4FF0010C4FF0020C514B1028228A90
:10147000B4F8168018BF0127D3F800E008BF022790
:10148000A8EB020859609F60C3F80C80DEF80020CA
:1014900022F4E0221143CEF80010D3F800E0DEF889
:1014A000341021F007013943CEF83410DEF8402023
:1014B000120C120442EA0802CEF84020C3F848C0D9
:1014C000A28A218A521A5A640EB9002D34D0227F82
:1014D000FF2A17BF02220022DA64227F0CBFDA64DF
:1014E0001A6505B3227F1028A1694FEA026054D122
:1014F000C1F3C4224FF01F0EC2EB0222B2FBFEFC6E
:1015000001EA0E02C1F34511C2EB0222C1EB012137
:10151000B2FBFEF202433F20B1FBF0F142EA0C4283
:1015200042EA01221A65218AE28A2148521A0021E0
:10153000C3E90A2704F014FC01211D4804F010FC43
:10154000FFF7CAFE238A628A06B94DB3616818485C
:10155000CDE90032E3681A4604F0A4FA02B0BDE80F
:10156000F081012664E7012566E7802B06D0B3F5FC
:10157000807F7FF472AF4FF0090C01E04FF00A0C4E
:101580004FF4003171E7102814BF4FF0010C4FF0F9
:10159000020CF5E74FF0000CF2E701431965C2E7D2
:1015A00000926168E268024804F05DFAD6E700BF85
:1015B000386B0024F7B50D46FFF71EFF0368DB69A3
:1015C00098471028AB69297F73D103F01F021F20B1
:1015D000C2EB0222B2FBF0F4C3F3C42244EA01647A
:1015E000C3F34513C2EB0222C3EB0323B2FBF0F2B9
:1015F00044EA02443F22B3FBF2F3022244EA03240A
:101600002B682E48082BEF8A2B8A0CBF4FF400362C
:101610004FF44036FF1A0368B6F5003FC760C0E9D3
:101620000162196821F4E02141EA06011960D0F84D
:1016300000C0DCF8341021F0070141EA0201CCF8C7
:101640003410DCF840304FEA13434FEA034343EAD7
:101650000703CCF8403021D10123C0E9133409231A
:101660008364298AEB8A5B1A0021C0E90A3204F0FC
:1016700077FB0121114804F073FBFFF72DFEB6F54F
:10168000003F2B8A6A8A0DD1E9680C48CDE9003207
:101690000B460A4604F006FA03B0F0BD002382644C
:1016A0004364E6E700922146EA68044804F0DBF967
:1016B000F2E743EA01640122A2E700BF386B00248D
:1016C00070B505460A4B0C3000262C466022686037
:1016D0002E726E7244F8203B214609F013FC05F58A
:1016E0004263A6612034A342FBD1284670BD00BFEF
:1016F000E0AD01080121002208B5084606F0B4FC5F
:10170000064B4FF0FF31186006F004FD0022042163
:10171000012006F073FD024B186008BD140200247E
:101720001002002408B5074B186828B9064B312170
:10173000064A074817F04EFE4FF0FF31BDE808405B
:1017400006F0E8BC140200245BAE0108D2AE01082A
:101750006CAE010808B5064B186828B9054B3A214C
:10176000054A064817F036FEBDE8084006F00EBDF3
:10177000140200245BAE010895AE01086CAE0108AE
:1017800008B5074B186828B9064B4721064A074891
:1017900017F020FE0021BDE8084006F0BBBC00BFEA
:1017A000140200245BAE01080FAF01086CAE010803
:1017B00008B5064B186828B9054B5421054A064858
:1017C00017F008FEBDE8084006F0E0BC1402002453
:1017D0005BAE01084FAF01086CAE0108044B1868FE
:1017E00020B1002303491A4606F04EBD704700BFE2
:1017F000100200240400002413B5084C206858B1DE
:10180000002301A91A4606F081FD4FF0FF330022A4
:1018100001A9206806F07AFD02B010BD1002002474
:10182000704770477047012070470C2070470C23A9
:1018300003FB0100083070470C2303FB0100083054
:101840007047012070474FF4667070474FF466731D
:1018500003FB0100083070474FF4667303FB01007F
:1018600008307047012070471020704700EB0110CE
:101870000830704700EB0110083070470846FFF74A
:1018800015B90000034B10B50446036008F09AF93F
:10189000204610BD04B0010810B50446FFF7F2FF62
:1018A0001421204617F08AFD204610BD034B10B5C9
:1018B0000446036008F086F9204610BDD0AF010849
:1018C00010B50446FFF7F2FF4FF46871204617F099
:1018D00075FD204610BD0000034B10B504460360A3
:1018E00008F070F9204610BD9CAF010810B5044601
:1018F000FFF7F2FF1821204617F060FD204610BDCB
:10190000084B10B50446036000F57370FFF7BAFF8B
:1019100004F12C00FFF7CAFF04F11400FFF7DCFF0D
:10192000204610BD38B0010810B50446FFF7E8FFA7
:1019300040F23C51204617F041FD204610BD00000A
:101940002DE9F341FFF7B8FA00240546FFF7B8FA8E
:10195000234601462246284600940BF075FF274B8C
:10196000274A2046274D1A60FFF722FB26480BF036
:10197000B5FE2B78BFF35B8FDB0738D4284617F012
:10198000F5FC002833D0214C214B04F5787604F186
:10199000140004F12C0804F573776060C4F8088023
:1019A000E7602661236008F00FF91A4B4046636137
:1019B00008F00AF9184B3846E36208F005F9174BAE
:1019C000224604F5A761C4F8CC333046FEF752FD39
:1019D00004F5A760FEF71CFD3046FFF767F82846C0
:1019E00017F0D0FC0E4A0F49204617F0E2FC0E48D3
:1019F00002B0BDE8F04100F019B900BFBC69002495
:101A00000014002418020024080000241C020024F2
:101A100038B001089CAF0108D0AF010804B001083C
:101A200000000024011900087C130024014800F084
:101A3000B5B800BF7C13002410B50446042117F08C
:101A4000BDFC204610BD10B50446782117F0B6FC49
:101A5000204610BD10B50446842117F0AFFC204687
:101A600010BD0000F8B5384C384D394B2246394F7F
:101A7000284639492B6017F09CFC384E3846FFF752
:101A80001FFE22463649384617F093FC30460EF0CA
:101A9000ABFF22463349304617F08BFC22463249D1
:101AA000324817F086FC3248002301223149C560D4
:101AB000038580F82A30C362038680F8483080F8B6
:101AC000492080F84A30436541664FF4207180F820
:101AD000683080F8693080F86A3080F86B3080F8C0
:101AE0006C30036780F8753080F87630224DC0E99D
:101AF0000176C0E90433C0E90633C0E90833C0E920
:101B00000E33C0E91033C0E9133380F877201B4A45
:101B1000C36710601A4A80F8343011804FF4F072B5
:101B2000C0F880302A80174D2B70174D174B298035
:101B3000174983670A80174A174902602246BDE8A1
:101B4000F84017F036BC00BF0000002458070024FE
:101B500048B101085C07002421180008041400247F
:101B6000B113000823180008810E000808000024A3
:101B70007C13002401000001366900244069002420
:101B800034690024386900243A6900248CB10108C2
:101B90003C6900244CB001082518000808B503680A
:101BA00004469B6E984723681B6E20469847FFF7B4
:101BB00023FE23689B6DF8E7FFF768BAFFF76CBA5E
:101BC000F8B5FFF7DBFA134A0023C2F88430BFF3FD
:101BD0004F8FD2F8803043F6E076C3F3C904C3F3E5
:101BE0004E33A5075B0103EA060C284621464CEA62
:101BF0000007013900F14040C2F874724F1CF6D161
:101C0000203B13F1200FEED1BFF34F8FBFF36F8F47
:101C1000F8BD00BF00ED00E0FFF714BAFFF7F4BA1B
:101C2000FFF7FCBAFFF718BA08F0B8BA38B504469F
:101C300000F07AF804F178052046FFF703FB284608
:101C400000F0E4F80123256184F86C3038BD000011
:101C500008B5054B01461B6800B10121184609F083
:101C600027F8012008BD00BF4069002410B10128F9
:101C70000AD07047084B4FF4806108481A68B2FADE
:101C800082F2520903F05ABE034B102104485A68ED
:101C9000B2FA82F25209F5E77C14002400140258CB
:101CA0000000025810B101280AD07047084B4FF4C9
:101CB000806108481A68003218BF012203F03EBE56
:101CC000034B102104485A68003218BF0122F5E77F
:101CD0007C140024001402580000025810B101289E
:101CE00005D070474FF48061024803F02CBE1021EC
:101CF0000148FAE7001402580000025808B518B16C
:101D000001280AD0002004E04FF48061044803F069
:101D10000FFE431E5842584108BD10210148F6E706
:101D2000001402580000025870B50024074D012627
:101D3000E0B2FFF7E3FF28B155F82430012B18BFBC
:101D400045F824600134052CF2D170BD7C140024C8
:101D500030B54FF4F07385B04FF4207201210B249D
:101D6000CDE900230523CDE902136946002007F0E1
:101D70001BF905460A2000F0C3FE15F0FF0F07D03F
:101D8000013CF2D1034B2B21034A044817F022FBFC
:101D900005B030BDFCB0010858B1010815B101080B
:101DA000F0B585B00E460020154601A9124F07F088
:101DB000B1F9019C74B1029B104A33601360039B1C
:101DC0000F4A2B60136000F095FE38600124204616
:101DD00005B0F0BD00F08EFE3B6878338342F6D943
:101DE000064B1A68002AF2DD054B1B68002BEEDD5E
:101DF00032602B60EAE700BF941400248C140024A6
:101E0000901400244068704741607047094A136885
:101E100043F080731360A2F54E42074B4C3A1168B1
:101E20000B431360A2F57B62136843F00103136058
:101E3000704700BFFCED00E055CEACC5521A02EB76
:101E40005302B2FBF3F07047014B1868704700BFB4
:101E5000041000E0704710B504460C2117F0AEFAEC
:101E6000204610BD10B5036804461B6931B1984780
:101E7000A26863689B1A1844606010BD9847A06010
:101E8000FBE77047FEE7FEE7FEE7FEE7704700006E
:101E9000014803F0E5BF00BFD46B0024014803F004
:101EA000D9B800BF8C6A0024014803F0C9BE00BF46
:101EB000386B00241849194810B5D1F8883043F41C
:101EC0007003C1F88830164B1A6842F001021A609C
:101ED00000221A611C68204018609A61DA611A6257
:101EE0009A62DA621A635A639A63DA631A645A640A
:101EF000186820F4802018601A660A4B1B681B0CB7
:101F00001B04B3F1005F02D2074B01221A604FF0AD
:101F100000638B6010BD00BF00ED00E07FEDF6EACE
:101F2000004402580010005C088100512DE9F04186
:101F3000CCB04C2200210AA817F0C1FA20220021BF
:101F400002A817F0BCFABC2200211DA817F0B7FAAE
:101F5000022001F089FB002301932F4BDA6A22F063
:101F60000102DA62DB6A03F0010301932B4B9A69E9
:101F700042F440429A619A6902F440420192019A05
:101F80009A699404FCD5264A022500244FF00808DB
:101F9000936A0527A0260AA823F0030343F002034F
:101FA000936201224FF4803317951C94CDE90A23E4
:101FB0000423CDE91355CDE91835CDE91576CDE9E2
:101FC0001A8401F039FC3F2103234FF480620DEBAA
:101FD0000800CDE9021340232946CDE90823CDE9C5
:101FE0000633CDE9044801F03FFF4FF00C532020A9
:101FF0001D934FF40063CDE92A031DA8CDE9267691
:10200000CDE92855CDE92C44CDE92E4400F080FEE1
:102010004CB0BDE8F08100BF0004005800480258F1
:10202000004402580124D64B10220021D54D1C2615
:102030002DE980481C6099B0A3F578334FF05047E4
:102040000BA81C6017F03BFA03F0F8F94FF0105C96
:10205000CD4B0BA80E95ADF82C40CDE90CC303F089
:102060000FFA40F201130BA80E94ADF82C30CDE915
:102070000C7603F005FA40F201230BA80C97ADF89B
:102080002C30C24BCDE90D3503F0FAF94FF0104575
:1020900040F201330BA80E94ADF82C30CDE90C566C
:1020A00003F0EEF940F20143DFF80CE30BA8ADF8C2
:1020B0002C304FF001130C95CDE90DE303F0E0F95E
:1020C000042003F0CBF9BFF34F8FBFF36F8FB04BFA
:1020D0000021C3F85012BFF34F8FBFF36F8F5A69BF
:1020E00042F400325A61BFF34F8FBFF36F8FC3F8D2
:1020F0008410BFF34F8FD3F8802043F6E076C2F30D
:10210000C904C2F34E32A507520102EA060C284662
:10211000214640EA0C07013900F14040C3F86072E3
:102120004F1CF6D1203A12F1200FEED1BFF34F8FA2
:102130005A6942F480325A61BFF34F8FBFF36F8FF9
:1021400000F09EFC0126FFF7F1FE142200210BA8EF
:1021500017F0B5F98F4B4FF480618F48D3F8E0202A
:1021600003274FF4806B002442F480724FF0020882
:102170004FF040094FF0100AC3F8E020D3F8E020F8
:10218000864D02F480720092009AD3F8E02042F06B
:102190000202C3F8E020D3F8E02002F0020201922C
:1021A000019AD3F8E02042F48062C3F8E020D3F82B
:1021B000E02002F480620292029AD3F8E02042F01A
:1021C0004002C3F8E020D3F8E02002F0400203927E
:1021D000039AD3F8E02042F01002C3F8E020D3F8CD
:1021E000E02002F010020492049AD3F8E02042F4B6
:1021F0000072C3F8E020D3F8E02002F400720592E8
:10220000059AD3F8E02042F00402C3F8E020D3F8A6
:10221000E02002F004020692069AD3F8E02042F091
:102220008002C3F8E020D3F8E02002F08002079299
:10223000079AD3F8E02042F00802C3F8E020D3F870
:10224000E02002F008020892089AD3F8E02042F059
:102250002002C3F8E020D3F8E02002F02002099227
:10226000099AD3F8E02042F00102C3F8E0200122ED
:10227000D3F8E03003F001030A930A9B03F05EFBFE
:1022800000220421464803F059FB01225021444812
:1022900003F054FB0BA940480D960E97CDE90BB601
:1022A00003F0B4F904230BA93D48CDE90B36CDE981
:1022B0000D4403F0ABF90BA93948CDF838800D94E3
:1022C000CDE90B9603F0A2F90BA93548CDE90BA691
:1022D000CDE90D6703F09AF93248334B84800360EF
:1022E0000662C0E9054401F083F9342221460BA8B7
:1022F00017F0E5F82D4B8F2240F20F3140F21F30DE
:102300002C61AC8685F83640C5E900341D23C5E94B
:1023100005382223C5E9072340F20223C5E9091342
:102320004FF40373C5E90244C5E90B03284602F0E4
:1023300015FEFF214FF0050C4FF4F0734FF420729F
:1023400028460B94CDF848B0ADF85C408DF85E405F
:10235000CDE910144FF05041CDE91523CDE913C15B
:10236000CDE90C240BA92246CDE90E3802F0D3FEAC
:102370000F48104B0BA98462CDF844A01EE000BFAB
:10238000086104510100010112000003180000035C
:1023900000ED00E000440258001402588C6A00244A
:1023A00000000258686A0024004C025800100050D7
:1023B000A06B0024404100521A000003C0E900361F
:1023C0002023C0E904348023C0E90244C0E9063474
:1023D000C0E90844CDE90BAACDE90DAACDE90FAAC1
:1023E00001F066F9254A2046136823F001031360C3
:1023F00006F08EFC204606F0D5FC2148DFF898E078
:102400004FF440334465C0E900E3C0E90284C0E909
:10241000064403F0E8FA1B481B4B4FF01A0884618E
:10242000C0F82090C0E900374FF44073C0E902645F
:10243000C0E9048302F09EFA204606F0EBF90BA9EE
:1024400020468DF82C708DF82D608DF82E9006F0BA
:1024500089FA204606F092F95C2002F0DBFF03F0D7
:1024600056FE05F071FD094A2146094805F0A6FD12
:10247000084B186005F082FDFEE700BF00400052E7
:10248000386B0024B06C002400500052BCB101082D
:1024900013610008346B0024001000520268034BE3
:1024A0009A4201D100F01ABB704700BF00100040F3
:1024B00010B501468AB00022362002F06BFF3620AC
:1024C00002F09AFF164B694602A8D3F8E820154C93
:1024D00042F01002C3F8E820D3F8E83003F010030C
:1024E0000193019B01F00CFE01F0F8FD0E4B400042
:1024F000236040F2E733E3600C4BB0FBF3F00138AC
:102500000023606020462361A36003F0C3FD20B96F
:10251000204603F08BFC0AB010BD0120FBE700BF92
:1025200000440258D46B00240010004040420F00C9
:102530000A4B82B00F216FF00100D3F8F42042F073
:102540000202C3F8F4200022D3F8F43003F00203AF
:102550000193019B02B002F01DBF00BF004402586E
:10256000026882B0094B9A420DD1A3F50063D3F8FB
:10257000E02042F40022C3F8E020D3F8E03003F476
:1025800000230193019B02B0704700BF004C02582A
:1025900007B50F4B02689A4217D10E4B05215A20FE
:1025A000D3F8D42042F01002C3F8D4200022D3F88C
:1025B000D43003F010030193019B02F0EBFE5A208C
:1025C00003B05DF804EB02F017BF03B05DF804FB45
:1025D00000100052004402580268074B9A4209D189
:1025E000064A5A20D2F8D43023F01003C2F8D4306F
:1025F00002F010BF704700BF0010005200440258A4
:10260000F0B514228BB0044600210DEB020016F049
:1026100056FF2268304B9A425BD1304B022703268B
:102620000E25D3F8E42005A92D48002442F0080225
:10263000C3F8E420D3F8E42002F008020192019AE2
:10264000D3F8E02042F48062C3F8E020D3F8E02021
:1026500002F480620292029AD3F8E02042F40072FF
:10266000C3F8E020D3F8E02002F400720392039A4A
:10267000D3F8E02042F48072C3F8E020D3F8E030D1
:1026800003F480730493049BFF23CDE90865CDE92F
:10269000053702F0BBFF4FF6FF7305A911480995F6
:1026A000CDE90537CDE9074602F0B0FF4FF470439E
:1026B00005A90D480995CDE90537CDE9074602F092
:1026C000A5FF582022460F2102F064FE582002F098
:1026D00093FE0BB0F0BD00BF001000500044025844
:1026E0000028025800240258002002582DE9F04129
:1026F0008CB004461422002107A816F0E0FE2268E0
:10270000504B9A4240F09A804F4B022503240926F1
:10271000D3F8D42007A94D48012742F480424FF056
:102720000A08C3F8D420D3F8D42002F480420192DE
:10273000019AD3F8E02042F04002C3F8E020D3F839
:10274000E02002F040020292029AD3F8E02042F028
:102750000402C3F8E020D3F8E02002F00402039260
:10276000039AD3F8E02042F02002C3F8E020D3F827
:10277000E02002F020020492049AD3F8E02042F014
:102780008002C3F8E020D3F8E02002F08002059236
:10279000059AD3F8E02042F00202C3F8E020D3F813
:1027A000E03003F002030693069B4FF48443CDE927
:1027B0000735CDE90A4602F029FF4FF4006307A967
:1027C00023480B96CDE90735CDE9097402F01EFFC9
:1027D000402307A91D48CDF82C80CDE90735CDE968
:1027E000097402F013FF0027C02307A919480B96AC
:1027F000CDE90735CDE9097402F008FF4FF44073C5
:1028000007A91448CDF82C80CDE90735CDE9097426
:1028100002F0FCFE0C2307A90F480B96CDE9073503
:10282000CDE9097402F0F2FE042307A90B480B96C8
:10283000CDE90735CDE9097402F0E8FE0CB0BDE83A
:10284000F08100BF005000520044025800180258A6
:102850000008025800140258001C025800040258D4
:1028600008B5124B02689A421FD1114A44F2402126
:102870001048D2F8D43023F48043C2F8D43002F0A8
:10288000B7FF4FF400610C4802F0B2FF4FF47071D3
:102890000A4802F0ADFF0C21094802F0A9FF04210B
:1028A0000848BDE8084002F0A3BF08BD0050005230
:1028B0000044025800180258000802580014025838
:1028C000001C0258000402582DE9F04186B0142281
:1028D000002101A816F0F3FD374B1E68002E67D1CA
:1028E0004FF00108022703250C24C3F8008001A93A
:1028F000324B3348D3F8D42042F48052C3F8D4206A
:10290000D3F8D43003F480530093009B40F2FF636C
:10291000CDE90454CDE9013702F078FE602301A926
:1029200028480594CDE90137CDE9036502F06EFE34
:102930004FF6837301A924480594CDE90137CDE909
:10294000036502F063FE4FF47F4301A91F4805941D
:10295000CDE90137CDE9036502F058FE48F21113C5
:1029600001A91B480594CDE90137CDE9036502F0C3
:102970004DFE4CF2037301A916480594CDE90137C9
:10298000CDE9036502F042FE4FF63F0301A912486C
:102990000594CDE90137CDE9036502F037FE01A9C1
:1029A0000E480594CDE90187CDE9036502F02EFEBE
:1029B00006B0BDE8F08100BF9C140024004402581A
:1029C000002002580004025800100258001C02584F
:1029D00000180258000C025800140258000802584F
:1029E0001A4B10B51A6882BB194A012440F2FF61E4
:1029F00018481C60D2F8D43023F48053C2F8D43085
:102A000002F0F6FE6021144802F0F2FE4FF68371E8
:102A1000124802F0EDFE4FF47F41114802F0E8FE4B
:102A200048F211110F4802F0E3FE4CF203710E4818
:102A300002F0DEFE4FF63F010C4802F0D9FE2146BF
:102A40000B48BDE8104002F0D3BE10BD981400241E
:102A50000044025800200258000402580010025896
:102A6000001C025800180258000C025800140258AA
:102A7000000802580149002004F06CBB511C0008FA
:102A800010B5032002F074FC01F052F90F49104A0E
:102A90008B69C3F30323D35C03F01F03D8400D4BB2
:102AA00018608B6903F00F03D35C03F01F03D84059
:102AB000094B18600020FFF7FBFC044618B9FFF72C
:102AC00037FD204610BD0124FBE700BF004402583B
:102AD000ACB101080C00002410000024034A044B90
:102AE00011681B780B441360704700BF146C0024FE
:102AF00014000024014B1868704700BF146C0024B8
:102B000038B50446FFF7F6FF0546631C1EBF044BAD
:102B10001B78E418FFF7EEFF401BA042FAD338BD44
:102B200014000024014B1868000C70470010005C72
:102B3000F8B53A4C06460D46A36A03F00303032B8F
:102B400069D0236823F080632360FFF7D3FF074633
:102B500023681A014BD4A36A326823F47C3343EA16
:102B60000233A362B368F268013B013A5B021204CC
:102B70009BB202F4FE0213437268013AC2F30802E8
:102B800013433269013A120602F0FE421343A36373
:102B9000E36A726923F0C0031343E362E36AB26934
:102BA00023F020031343E362E36A23F01003E3629C
:102BB000E36BF26923F47F4323F0F80343EAC20393
:102BC000E363E36A43F01003E362E36AB5B943F4F5
:102BD0000023E362114C236843F080632360FFF716
:102BE00089FF054623681B010FD5002005E0FFF78C
:102BF00081FFC01B0228ABD90320F8BD012D0CBFFB
:102C000043F4801343F40013E3E7FFF773FF401B23
:102C10000228E7D9F0E70120EFE700BF004402589F
:102C2000F8B53A4C06460D46A36A03F00303032B9E
:102C300069D0236823F080532360FFF75BFF0746CA
:102C400023689A004BD4A36A326823F07C7343EA6A
:102C50000253A362B368F268013B013A5B021204BB
:102C60009BB202F4FE0213437268013AC2F30802F7
:102C700013433269013A120602F0FE421343236401
:102C8000E36A726923F440631343E362E36AB2695F
:102C900023F400731343E362E36A23F48073E36273
:102CA000636CF26923F47F4323F0F80343EAC20321
:102CB0006364E36A43F48073E362E36AB5B943F49F
:102CC0008003E362114C236843F080532360FFF7D5
:102CD00011FF054623689B000FD5002005E0FFF794
:102CE00009FFC01B0228ABD90320F8BD012D0CBF82
:102CF00043F4000343F08073E3E7FFF7FBFE401B60
:102D00000228E7D9F0E70120EFE700BF00440258AE
:102D10002DE9F8430668044616F0006623D0436E9A
:102D2000B3F5801F18D002D883B101261BE0B3F59C
:102D3000001F23D0B3F5401FF7D19F4A0026616ED4
:102D4000136D23F440130B4313650CE09A4AD36AC6
:102D500043F40033D362F0E702210430FFF7E8FECA
:102D600006460028E9D02368D80534D5636D042BC6
:102D700030D8DFE803F0080F290D0D0002212430C0
:102D8000FFF74EFFECE78C4AD36A43F40033D3627B
:102D9000354604E00021201DFFF7CAFE0546E5B9CF
:102DA000854A616D136D23F007030B431365236898
:102DB000990521D5A36D802B3BD010D86BB3402B48
:102DC00031D00126354617E0002104F12400FFF739
:102DD00027FFE3E701263546E9E72E46E7E7C02B64
:102DE00002D0B3F5807FECD14DBB734AA16D136D5A
:102DF00023F4E0730B43136523685A0530D5D4F8E8
:102E0000A430B3F5800F47D01BD8002B38D0B3F5D2
:102E1000001F3BD00126354622E0674AD36A43F4BF
:102E20000033D362E0E70021201DFFF781FE054655
:102E3000DAE7002104F12400FFF7F2FEF7E72E465F
:102E4000DAE7B3F5C00F02D0B3F5000FE2D14DBB06
:102E5000594AD4F8A410936D23F460030B4393658F
:102E600023681B052FD5D4F8A830B3F1007F41D0DB
:102E70001AD89BB3B3F1807F36D00126354622E0C5
:102E80004D4AD36A43F40033D362E0E70021201DAA
:102E9000FFF74EFE0546DAE7002104F12400FFF7B4
:102EA000BFFEF7E72E46DBE7B3F1407F02D0B3F178
:102EB000806FE2D125BB404AD4F8A810936D23F06F
:102EC000E0630B43936523689F0127D5A36C102B08
:102ED00033D017D8D3B1012635461FE0364AD36A1E
:102EE00043F40033D362E5E70021201DFFF720FE05
:102EF0000546DFE7002104F12400FFF791FEF7E724
:102F00002E46E0E7202B1ED0302BE4D10DBB2A4A01
:102F1000A16CD36C23F030030B43D3642368D80433
:102F200027D5E36DB3F5005F3ED014D883B3B3F576
:102F3000805F33D0012635461BE01F4AD36A43F435
:102F40000033D362E2E70221201DFFF7F1FD0546C1
:102F5000DCE72E46E2E7B3F5405F02D0B3F5804FE1
:102F6000E8D13DBB144AE16D136D23F4E0430B43FC
:102F700013652368990432D5236EB3F5003F44D01E
:102F80001CD823B3B3F5803F39D00126354626E05F
:102F9000094AD36A43F40033D362E2E70021201DDB
:102FA000FFF7C6FD0546DCE7002104F12400FFF72A
:102FB00037FEF7E72E46DCE700440258B3F5802FD2
:102FC00005D0B3F5A02F02D0B3F5403FDDD115BB3E
:102FD0009F4A216E136D23F4E0230B43136523688E
:102FE0005A042DD5D4F8AC30B3F1005F4BD014D8CF
:102FF000E3B1B3F1805F40D00126354620E00121E6
:10300000201DFFF795FD0546E1E7012104F12400AD
:10301000FFF706FEF7E72E46E1E7B3F1804F05D054
:10302000B3F1A04F02D0B3F1405FE5D1002D30D114
:10303000874AD4F8AC10936D23F0E0430B439365BB
:1030400023681B040FD5E36EB3F1805F23D0B3F187
:10305000005F26D05BBB6DBB7D4AE16E136D23F034
:1030600040530B4313652368DF0133D5636C032B97
:1030700078D8DFE803F0262171260121201DFFF713
:1030800057FD0546D2E7012104F12400FFF7C8FDF2
:10309000F7E72E46D4E76E4AD36A43F40033D3628F
:1030A000D9E70121201DFFF743FD0546D3E701269F
:1030B0003546D8E72E46D6E7654AD36A43F400334F
:1030C000D362002D51D1624A616CD36C23F00303AB
:1030D0000B43D3642368580251D55E4F3B6843F4D9
:1030E00080733B60FFF706FD80463B68D9053ED5FF
:1030F000002D65D1564BD4F8B0101A6F4A4012F427
:10310000407F0BD01A6F196F22F4407241F4803166
:103110001967196F21F4803119671A67D4F8B03034
:10312000B3F5807F38D0D4F8B000494A00F440733A
:10313000B3F5407F40D11169474B21F47C5103EA3C
:1031400010130B431361424AD4F8B030116FC3F32C
:103150000B030B43136712E00221201DFFF7E8FC6D
:103160000546AEE701263546B4E72E46B2E7FFF73F
:10317000C1FCA0EB08006428B7D9032635462368B4
:10318000DB072DD5A36F102B3BD01BD803B3082B27
:1031900031D00126354623E0FFF7ACFC2C4F8046AA
:1031A00041F288393B6F9A07BDD4FFF7A3FCA0EB2F
:1031B00008004845F6D9E0E7136923F47C53C1E7DA
:1031C0002E46DCE7202B03D0282B01D0182BE0D192
:1031D000EDB91F4AA16F536D23F038030B435365BC
:1031E00023689F0722D5636F052B37D8DFE803F0EC
:1031F00016112A1616160121201DFFF799FC054607
:10320000E6E7012104F12400FFF70AFDF7E72E4667
:10321000E6E70121201DFFF78BFC05460DBB0C4A9C
:10322000616F536D23F007030B4353652368580701
:1032300027D5D4F89030052B39D8DFE803F01914DE
:1032400032191919012104F12400FFF7E9FCE4E720
:103250000044025800480258CFFFFF0001263546BF
:10326000E4E72E46E2E70121201DFFF761FC054659
:1032700005BB984AD4F89010936D23F007030B43D5
:1032800093652368990629D5D4F88C30B3F1005F93
:103290003AD011D8CBB1B3F1805F2FD0012635469B
:1032A0001CE0012104F12400FFF7BAFCDFE701264E
:1032B0003546E6E72E46E4E7B3F1804F05D0B3F19B
:1032C000A04F02D0B3F1405FE8D11DBB814AD4F8D2
:1032D0008C10536D23F0E0430B43536523685A066B
:1032E0002CD5D4F89830B3F5006F3FD014D8E3B1A3
:1032F000B3F5806F34D0012635461FE00021201D34
:10330000FFF716FC0546E0E7022104F12400FFF771
:1033100087FCF7E72E46E1E7B3F5805F05D0B3F50C
:10332000A05F02D0B3F5406FE5D12DBB694AD4F858
:103330009810936D23F4E0530B43936523681B06A9
:1033400030D5D4F89C30B3F5804F00F0A48015D868
:10335000EBB1B3F5005F00F098800126354621E01F
:103360000021201DFFF7E4FB0546DEE7022104F102
:103370002400FFF755FCF7E72E46DFE7B3F5004FD3
:1033800005D0B3F5204F02D0B3F5C04FE5D1002DE5
:1033900040F087804F4AD4F89C10936D23F460432B
:1033A0000B43936523681F0714D5D4F88030B3F519
:1033B000805F07D1022104F12400FFF731FC0028CF
:1033C00018BF0126434AD4F88010536D23F44053AC
:1033D0000B4353652368D80614D5D4F89430B3F55D
:1033E000807F07D1022104F12400FFF719FC002897
:1033F00018BF0126374AD4F89410936D23F4407314
:103400000B4393652368190317D5D4F8A010B1F5C1
:10341000803F48D0B1F5003F05D0002949D1201D9B
:10342000FFF786FB0546002D46D12A4AD4F8A010A6
:10343000936D23F440330B43936523685A0318D5E7
:10344000D4F88430B3F5001F38D0B3F5401F07D04F
:10345000B3F5801F39D11F4AD36A43F40033D362D6
:10346000B5BB1C4AD4F88410536D23F440130B43AE
:1034700053652368DB033DD5E36C6BB3B3F5803F45
:1034800000F086800126354634E00021201DFFF73C
:103490004FFB05467BE7022104F12400FFF7C0FB48
:1034A000F7E72E467EE7022104F12400FFF7B8FB80
:1034B000B8E701263546C0E72E46BEE7012104F1F4
:1034C0002400FFF7ADFB0546CAE701263546D0E7E5
:1034D0002E46CEE700440258394AD36A43F40033FB
:1034E000D362002D5AD1364AE16CD36C23F4803379
:1034F0000B43D36423689F0007D5022104F1240005
:10350000FFF78EFB002818BF0126236898030FD50C
:10351000E36FB3F5807F4BD042D8002B46D1002D0E
:103520004CD1274AE16F536D23F440730B4353652D
:103530002368D90206D5224A216F136D23F0004378
:103540000B43136523689A0206D51D4AA16E136DBD
:1035500023F080730B43136523685B0009D5184B78
:103560001A6922F400421A611A69D4F8B8100A43A1
:103570001A612368002B06DA114A216DD36C23F0FF
:1035800040530B43D364301C18BF0120BDE8F883BF
:103590000221201DFFF7CCFA0546A2E72E46A9E737
:1035A000B3F5007FBBD0B3F5407FB8D00126BFE7AD
:1035B000034AD36A43F40033D362B0E72E46B7E739
:1035C0000044025808B500F0B3FB064B064A9B695D
:1035D000C3F30323D35C03F01F03D840034B1860ED
:1035E00008BD00BF00440258ACB101080C00002423
:1035F00010B5044608B9012010BD437F03F0FF0257
:1036000013B90277FEF7ACFF022363772379FBB986
:103610002368144A5A612268936823F01803936060
:1036200062792368E2B94FF0FF321A610020226804
:103630006169936823F060030B4393602268A1697A
:10364000936823F080030B43936001236377D3E7F0
:10365000D4E90212204602F037FD0028E0D0CAE784
:103660002269E2E7B71DC10438B5104CE36813F0D6
:10367000040FE36805D103F00703181A18BF0120EF
:1036800038BD23F007031843E060FFF733FA05461F
:1036900063689B0401D50020F2E7FFF72BFA401B7B
:1036A000B0F57A7FF4D90120EAE700BF004802585C
:1036B00038B50D460446F0B190F82C3003F0FF0207
:1036C0001BB980F82D20FFF7FFF80223211D206889
:1036D00084F82C3001F0FAFE62682946206801F077
:1036E00029FF064A0020136843F0004313600123BA
:1036F00084F82C3038BD0120FCE700BF00400052A8
:1037000010B50446FFF76CF9D4E9000101F054FF4D
:10371000002084F82C0084F82D0010BD70B50546FB
:1037200090F82C000E46C0B2022810D000F0FB0426
:10373000012C10D10223286885F82C3001F04BFFB2
:103740003368022B04D1052385F82C30002070BD8E
:1037500085F82C40FAE70120F9E738B5044690F8DF
:103760002C00C0B202280DD094F82C50EDB2012DDF
:1037700009D10223206884F82C3001F03CFF00209E
:1037800084F82C5038BD0120FCE710B590F841308A
:10379000DBB2202B23D190F84020012A1FD0012238
:1037A000046880F84020242280F84120226822F01A
:1037B000010222600468226822F4805222600468B8
:1037C00022681143216001680A6842F001020A6020
:1037D00080F84130002380F84030184610BD0220A8
:1037E000FCE710B590F84120D2B2202A21D190F800
:1037F0004030012B1DD00123046880F84030242381
:1038000080F84130236823F00103236004682368B3
:1038100023F4706343EA0121216001680B6843F0DF
:1038200001030B60002380F8412080F840301846E7
:1038300010BD0220FCE70000F8B5044608B90120DD
:103840008EE00368D8075ED42368990700F1A8804A
:103850002368DA0623D5A94B1A69996A02F038025F
:10386000082A07D0182A40F0FC8001F00302012A40
:1038700040F0F7801B68DB0502D5E369802BDED1C1
:10388000FFF750F941F203039C4A9842216A00F283
:10389000E180536823F0F84343EA8163536023686F
:1038A000190700F1178123689A0600F13C8123680B
:1038B0005D0722D5924D2B6843F480732B60FFF790
:1038C00019F906462B68DA0540F15281A2688B4B44
:1038D000012A40F054811A6F42F001021A67A3686E
:1038E000002B00F06381FFF705F9844D064641F295
:1038F00088372B6F9B0740F15281606A002840F0A7
:10390000658100202CE07D4B1A69996A02F038022B
:10391000102A05D0182A0AD101F00302022A06D182
:103920001B689A0390D56368002B8DD187E7626886
:10393000724BB2F5803F14D11A6842F480321A609B
:103940006368FBB1FFF7D6F86C4D06462B689B0306
:103950003FF57AAFFFF7CEF8801B6428F6D9032035
:10396000F8BD3AB91A6822F480321A601A6822F453
:103970008022E4E7B2F5A02F1A68F4D142F4802245
:103980001A60D9E7FFF7B6F85C4D06462B689F032F
:103990007FF55AAFFFF7AEF8801B6428F6D9DEE753
:1039A000564B1A69996A12F0380203D0182A1BD1B3
:1039B0008E0719D11B685D0703D5E368002B3FF420
:1039C0003EAFFFF7AFF841F203034C4A984221693A
:1039D000536895BF23F47C3323F0FE4343EA01335D
:1039E00043EA0163536033E7444DE2682B680AB34E
:1039F00023F0190313432B60FFF77CF806462B686E
:103A0000580711D5FFF78EF841F203032269984257
:103A10006B6895BF23F47C3323F0FE4343EA023303
:103A200043EA02636B6013E7FFF764F8801B022828
:103A3000E5D994E723F001032B60FFF75BF8064616
:103A40002B6859077FF504AFFFF754F8801B022855
:103A5000F6D984E7D36823F07C5343EA0163D3604B
:103A60001DE7E369254D23B32B6843F080032B60EA
:103A7000FFF740F806462B68DF050DD5FFF752F833
:103A800041F20303226A98420CD86B6823F0F84392
:103A900043EA82636B6002E7FFF72CF8801B022881
:103AA000E9D95CE7EB6823F07C5343EA0263EB60FF
:103AB000F5E62B6823F080032B60FFF71BF8064622
:103AC0002B68D8057FF5EBAEFFF714F8801B0228B2
:103AD000F6D944E76369094DA3B16B6F43F0010365
:103AE0006B67FFF707F806466B6F9B073FF5DBAE8A
:103AF000FFF700F8801B0228F6D930E7004402588F
:103B0000004802586B6F23F001036B67FEF7F2FF6A
:103B100006466B6F9F077FF5C6AEFEF7EBFF801B77
:103B20000228F6D91BE7A369804D83B12B6843F4C3
:103B300080532B60FEF7DEFF06462B6898043FF5A6
:103B4000B6AEFEF7D7FF801B0228F6D907E72B6831
:103B500023F480532B60FEF7CDFF06462B689904B3
:103B60007FF5A5AEFEF7C6FF801B0228F6D9F6E664
:103B7000FEF7C0FF801B64287FF6A4AEEFE63AB9DB
:103B80001A6F22F001021A671A6F22F00402A5E6EA
:103B9000052A1A6FF5D142F004021A679BE6FEF778
:103BA000A9FF801BB8427FF6A4AED8E6FEF7A2FFBD
:103BB0005E4D064641F288372B6F98077FF59DAE24
:103BC000FEF798FF801BB842F6D9C8E6574D2B691F
:103BD00003F03803182B7AD02B68022823F0807367
:103BE0002B6067D1FEF786FF06462B6899015BD4F0
:103BF000AB6AA26A23F47C7323F003031343E26AE3
:103C000043EA0213AB62636BA26B013B013A5B02B6
:103C100012049BB202F4FE021343226B013AC2F378
:103C200008021343E26B013A120602F0FE4213430C
:103C30002B63EB6A23F00103EB626B6BA26C23F442
:103C40007F4323F0F80343EAC2036B63EB6A226C01
:103C500023F00C031343EB62EB6A626C23F0020364
:103C6000324C1343EB62EB6A43F48033EB62EB6A52
:103C700043F40033EB62EB6A43F48023EB62EB6ABC
:103C800043F00103EB622B6843F080732B60FEF777
:103C900031FF054623689A013FF533AEFEF72AFF50
:103CA000401B0228F6D95AE6FEF724FF801B0228A3
:103CB0009BD954E6FEF71EFF04462B689B017FF557
:103CC00020AEFEF717FF001B0228F6D947E60128B1
:103CD000AA6A2B6B3FF444AE02F00301A06A814252
:103CE0007FF4ADADC2F30512E16A8A427FF4A7AD5D
:103CF000226BC3F30801013A91427FF4A0AD626BDD
:103D0000C3F34621013A91427FF499ADA26BC3F30C
:103D10000641013A91427FF492ADE06BC3F3066332
:103D20000138181A18BF01201AE600BF00440258D3
:103D3000464B10B51A6902F03802102A00F0848050
:103D4000182A0CD00AB1424810BD1A68414812F036
:103D5000200FF9D01B68C3F3C103D840F4E7996A78
:103D6000986ADA6AC0F305105C6B0028ECD007EEA5
:103D7000900A02F00102C4F3CC00B7EE006AF8EE3C
:103D8000E76A424307EE902A01F00302012AFAEEA5
:103D9000E97A02D00FD3022A48D01B6BC3F3080381
:103DA00007EE103AB8EEC77A77EE277A77EE867A82
:103DB0009FED296A37E01A68920627D51968254AC7
:103DC000C1F3C1011B6BCA40C3F3080307EE102AFD
:103DD000F8EEC75A85EEA67A06EE903AF8EEE66A55
:103DE00076EEA77A77EE867A184B67EE877A1B6BAA
:103DF000C3F34623013307EE103AF8EEC76A87EEA5
:103E0000A67AFCEEC77A17EE900A9DE71B6BC3F308
:103E1000080307EE103AB8EEC77A77EE277A77EE06
:103E2000867A9FED0E6A86EE267ADDE71B6BC3F37A
:103E3000080307EE103AB8EEC77A77EE277A77EEE6
:103E4000867A9FED076AEEE706487DE70044025850
:103E500000093D000090D0030024744A0024744CF3
:103E600020BCBE4B40787D012DE9F0410D46044653
:103E700010B90120BDE8F081884A136803F00F03F0
:103E80008B42C0F0928023685E0700F19A8023681D
:103E900018070BD5824A6069D16901F07001884228
:103EA00004D9D36923F070030343D3612368D9068F
:103EB0000BD57B4AA069D16901F4E061884204D93D
:103EC000D36923F4E0630343D36123689A060BD5D7
:103ED000734AE069116A01F07001884204D9136ADB
:103EE00023F070030343136223689B070BD56C4ACE
:103EF000E068916901F00F01884204D9936923F0C9
:103F00000F03034393612368DF0768D423689E0788
:103F100000F19B80614A136803F00F03AB4200F28B
:103F2000A2802368580700F1AA80236819070BD5DF
:103F30005B4A6069D16901F07001884204D2D3699B
:103F400023F070030343D3612368DA060BD5544A88
:103F5000A069D16901F4E061884204D2D36923F4F5
:103F6000E0630343D36123689B060BD54C4AE069A9
:103F7000116A01F07001884204D2136A23F07003C1
:103F800003431362FFF7D4FE454B464A9B69C3F3D4
:103F90000323D35C03F01F03D840434B1860434B0B
:103FA000BDE8F0411868FEF783BA136823F00F03E9
:103FB0000B431360136803F00F038B427FF459AF78
:103FC00061E7374A2069916901F0700188427FF604
:103FD0005EAF936923F070030343936157E7304B5F
:103FE000A1689A6922F470620A439A6161681A684A
:103FF00002291DD112F4003F3FF43BAF1A6941F290
:104000008838274E22F007020A431A61FEF772FD34
:1040100007463369626803F03803B3EBC20F3FF41D
:1040200075AFFEF767FDC01B4045F2D9032021E7BD
:10403000032902D112F0007FDEE7012902D112F438
:10404000807FD9E712F0040FD6E7154AE06891693E
:1040500001F00F018842BFF45DAF936923F00F03B5
:104060000343936156E7136823F00F032B43136058
:10407000136803F00F03AB427FF4FBAE51E7084A2D
:104080002069916901F070018842BFF44EAF9369D5
:1040900023F070030343936147E700BF0020005201
:1040A00000440258ACB101080C00002418000024A0
:1040B00008B5FFF787FA064B064A9B6903F00F0322
:1040C000D35C03F01F03D840034B186008BD00BF4A
:1040D00000440258ACB101081000002408B5FFF7F5
:1040E000E7FF054B054ADB69C3F30213D35C03F01A
:1040F0001F03D84008BD00BF00440258ACB10108FE
:104100003F230360114B1A6902F0070242609A696B
:1041100002F4706282609A6902F00F02C2609A69CA
:1041200002F070020261DA6902F070024261DA693B
:1041300002F4E06282611B6A03F07003C361044B06
:104140001B6803F00F030B60704700BF0044025868
:104150000020005203689A69910701D500229A62F3
:1041600003689A69D20703D49A6942F001029A61FE
:104170007047000030B5039D046845EA024260685C
:104180001343C1F309021A43034B43EA555320EA90
:1041900003000243626030BDFF63FF0370B5036834
:1041A00004460D461646986910F0100016D170BDF1
:1041B000691C14D0FEF79EFC801BA84200D86DB984
:1041C000636C43F020036364202384F841300023B0
:1041D000012084F8423084F84030E8E72368996988
:1041E0008A06E5D5102220252046DA612368DD61A4
:1041F000FFF7B0FF2268536823F0FF7323F48B337B
:1042000023F4FF7323F001035360636C43F0040352
:10421000636484F84150DAE770B504460D461646EB
:1042200023689B699B0601D5002070BD3246294654
:104230002046FFF7B3FF90B9FEF75CFC801BA84255
:1042400001D8002DECD1636C43F02003636420237C
:1042500084F84130002384F8423084F84030012053
:10426000E3E72DE9F041069F0446884616461D46C1
:104270002268936938EA03030CBF01230023B34289
:1042800001D0002015E06B1CF3D0FEF733FCC01BFF
:10429000A84201D8002DEBD1636C012043F020032C
:1042A0006364202384F84130002384F8423084F88A
:1042B0004030BDE8F08170B504460D4616462368CF
:1042C0009B699B0701D5002070BD324629462046D8
:1042D000FFF764FFA0B96A1CF1D0FEF70BFC801B4E
:1042E000A84201D8002DEAD1636C43F02003636437
:1042F000202384F84130002384F8423084F8403091
:104300000120E1E7F7B51F46164B0546099E0093CD
:1043100014464FF08073FAB2FFF72CFF324608992B
:104320002846FFF7C8FF10B1012003B0F0BD012FF0
:104330002B680CD1E4B20022802128469C62089BA5
:104340000096FFF78EFF003018BF0120EDE7220A2C
:10435000089928469A623246FFF7ADFF0028E3D15C
:104360002B68E7E700200080F7B51F46164B05468F
:10437000099E009314460023FAB2FFF7FBFE324673
:1043800008992846FFF797FF10B1012003B0F0BD50
:10439000012F2B680CD1E4B20022402128469C62F8
:1043A000089B0096FFF75DFF003018BF0120EDE786
:1043B000220A089928469A623246FFF77CFF0028B5
:1043C000E3D12B68E7E700BF00200080704710B5FD
:1043D0000446002852D090F8413003F0FF021BB988
:1043E00080F84020FFF7F2FF2268242384F8413050
:1043F000136823F001031360D4E9002323F07063F2
:1044000013612268936823F400439360E368226891
:10441000012BA3680CBF43F4004343F404439360AF
:10442000E368022B03D123684FF400625A602268CC
:104430000020536843F0007343F400435360226844
:10444000D36823F40043D3602268D4E904310B43DA
:10445000A16943EA0123D3602268D4E907310B4301
:1044600013602268136843F0010313602023606423
:1044700084F84130206384F8420010BD0120FCE73D
:10448000704710B5044698B10268242380F8413083
:10449000136823F001031360FFF7F2FF002060644C
:1044A00084F8400084F84100206384F8420010BD85
:1044B0000120FCE72DE9F04F9B4690F8413085B094
:1044C0000446202B0F460392BDF83CA0DDF8408047
:1044D00040F0A4800E9B13B1BAF1000F06D14FF447
:1044E00000736364012005B0BDE8F08F90F84030A0
:1044F000012B00F09380012580F84050FEF7FAFA76
:104500001923009006462A464FF400412046FFF743
:10451000A8FE81460028E5D121236063039A39462D
:1045200084F84130402384F842300E9B606420467A
:1045300063625B46A4F82AA0CDE90086FFF7E2FE9D
:1045400010B184F84090CDE7638DFF2B56D9FF2240
:104550004FF080730090228539462046FFF70AFE0F
:10456000324641462046FFF7A6FE0028BAD1626ACD
:10457000236812789A62636A228D0133013A63627A
:10458000638D92B2013B22859BB26385638D9BB2A2
:10459000A3B19AB90096434680212046FFF761FEF9
:1045A00000289FD1638DFF2B30D9FF224FF08073FD
:1045B0000090228539462046FFF7DCFD638D9BB2D3
:1045C000002BCDD1324641462046FFF725FE00287C
:1045D00088D123682022DA6121684B6823F0FF73B9
:1045E00023F48B3323F4FF7323F001034B6084F82F
:1045F000412084F8400084F8420074E7628D4FF057
:104600000073009092B22285D2B2A5E7628D4FF07E
:104610000073009092B22285D2B2CBE7022062E70B
:104620002DE9F04F9B4690F8413085B00446202B91
:104630000F460392BDF83CA0DDF8408040F0A78013
:104640000E9B13B1BAF1000F06D14FF400736364EF
:10465000012005B0BDE8F08F90F84030012B00F04C
:104660009680012580F84050FEF744FA1923009007
:1046700006462A464FF400412046FFF7F2FD8146E8
:104680000028E5D122236063039A394684F841303B
:10469000402384F842300E9B6064204663625B4690
:1046A000A4F82AA0CDE90086FFF75EFE10B184F8D9
:1046B0004090CDE7638DFF2B364B58D9FF220093F6
:1046C0004FF08073228539462046FFF753FD009650
:1046D0004346002204212046FFF7C3FD0028B7D13E
:1046E00023685A6A636A1A70636A228D0133013A39
:1046F0006362638D92B2013B22859BB26385638DB9
:104700009BB2A3B19AB90096434680212046FFF799
:10471000A8FD00289CD1638DFF2B30D9FF224FF0DC
:1047200080730090228539462046FFF723FD638D74
:104730009BB2002BCBD1324641462046FFF76CFDA1
:10474000002885D123682022DA6121684B6823F094
:10475000FF7323F48B3323F4FF7323F001034B60C7
:1047600084F8412084F8400084F8420071E7628DAB
:1047700000934FF0007392B22285D2B2A3E7628D0C
:104780004FF00073009092B22285D2B2CBE70220A4
:104790005FE700BF0024008090F841007047406C44
:1047A00070474B6A2DE9F04733B1B2F1406F03D047
:1047B0008B6A0468013B23618B690C6A002B67D00C
:1047C0000568002C35D08B68EB61CC694B6A0568B5
:1047D0008F69D1F820C0D1F83480D1F810E00E688C
:1047E000D1E90BA9A4B144EA0A04144344EA090438
:1047F00044EA08042343CC6843EA0E0343EA0C036B
:1048000023433B434C69334343EA84436B612AE0CF
:104810004AEA0904144344EA0804234343EA0E0322
:1048200043EA0C033B4333434E6943EA86466E61D9
:104830002CE04E69CC69D1F80090B604D1F8248000
:104840004F6BD1E90BECACB11C43CB68144344EA89
:10485000090444EA080444EA0E0444EA0C043C4314
:104860001C4334436C61B2F1406F0FD003684A6857
:104870009A610BE043EA0903134343EA080343EA5E
:104880000E0343EA0C033B4333436B61BDE8F087FF
:1048900044B303688C68DC61CC69D1F82480056876
:1048A0008E69D1F820C04B6BD1F810E0D1E90B79BB
:1048B0006CB13C43144344EA09042343CC6843EA03
:1048C000080343EA0E0343EA0C0323439AE747EA4B
:1048D00009042243134343EA080343EA0E0343EA6D
:1048E0000C03A0E7CD694B6A7DB12B43CD6A046808
:1048F00013432B430D6B2B434D6B2B43CD682B4345
:104900004D6943EA85436361ADE7002BBED0CC6AB5
:104910000068234313430A6B13434A6B13434A69EA
:1049200043EA82434361B1E72DE9F041069D044625
:104930000F461646984621688A683A4214BF0122FB
:104940000022B24201D1002011E06B1CF4D0FEF72E
:10495000D1F8A0EB0800A84201D8002DEBD1042328
:10496000012084F84130636C43F001036364BDE8C7
:10497000F081000037B50446FEF7BCF80546002C70
:104980004FD094F84030012B4DD0012384F84030B3
:1049900094F8412002F0FF033AB984F840302046F1
:1049A000FDF7A4FE41F28833A3642068A168026881
:1049B000013922F4706242EA0122202102600022C1
:1049C000A36C204600932B46FFF7AEFF20BB216867
:1049D000E569E3680A682B43256A22F07F422B438E
:1049E000656822F0D00243EA056313430B60216837
:1049F000D4E905324D681343226943EA02430B4A66
:104A00002A4013434B602268136843F0010313608C
:104A10000123606484F84130002384F8403003B0FF
:104A200030BD0120FBE70220F9E700BFFEF8E0FF00
:104A300010B50446A0B190F84030012B12D00268A6
:104A4000012380F84030136823F001031360FDF761
:104A500007FF0020606484F8410084F8400010BD26
:104A60000120FCE70220FAE72DE9F34704468A46D5
:104A70009146FEF73FF894F840308046012B34D041
:104A80000123022784F8403094F84160F6B29E4238
:104A900029D100220346CDF80090202162642046EF
:104AA00084F84170FFF740FF0546A8B90246514619
:104AB0002046FFF776FEDAF824305BB9CDF8009097
:104AC0004346324639462046FFF72EFF054618B9C1
:104AD0002368DF6084F84160002384F84030284672
:104AE00002B0BDE8F0873D46F6E70225F7E72DE97D
:104AF000F341044688461746FDF7FCFF94F8403022
:104B00000646012B4DD00123256884F8403094F8E7
:104B10004100C0B2984242D100236364B8F1000F53
:104B200038D0122384F841302B690133E3622B69BA
:104B3000C4F824800133A3626B6923F040636B6186
:104B4000E36A9BB900973346012202212046FFF712
:104B5000EBFE10B923680222DA60012384F84130A9
:104B6000002384F8403002B0BDE8F081009733465E
:104B7000012204212046FFF7D7FE0028EDD1636A09
:104B80001B7885F82030636A01336362E36A013B76
:104B9000E362D5E7636C43F008036364E0E7022057
:104BA000DEE70220DFE72DE9F34104461746884699
:104BB000FDF7A0FF25680646AA6994F84030012B4E
:104BC00050D0012384F8403094F84100C0B298429C
:104BD00046D100236364B8F1000F3CD0222384F84F
:104BE00041302B690133A3632B69C4F83080013352
:104BF00063636B6923F0406343F080636B612368F8
:104C00009A61A36B9BB9009733460122022120468B
:104C1000FFF78AFE10B923680222DA60012384F8C4
:104C20004130002384F8403002B0BDE8F0810097A5
:104C30003346012206212046FFF776FE0028EDD1FB
:104C400095F82020236B1A70236B01332363A36B29
:104C5000013BA363D5E7636C43F008036364E0E7BB
:104C60000220DEE70220DFE72DE9F74304469846FD
:104C700089461646FDF73EFF94F840300746012B63
:104C800045D0012384F8403094F84150EDB29D4264
:104C90003BD142230022CDF800802021626484F8B9
:104CA000413003462046FFF73FFE40BB23682046C5
:104CB00032689A62236872685A622368B268DA625C
:104CC000216833690A6843F4800322F440021343E5
:104CD0004FF000620B604946F368C9F82830FFF7CF
:104CE00060FDCDF800803B462A4608212046FFF7AC
:104CF0001BFE20B923680822DA6084F841500023A3
:104D000084F8403003B0BDE8F0830220F7E70220CA
:104D1000F8E7F7B5044617460E46FDF7EBFE94F8A4
:104D200040200346012A36D0012284F8402094F81E
:104D30004120012A2DD1002282212046626484F87C
:104D40004110A16C00912021FFF7EEFD0546D0B97E
:104D500022687968136823F008030B4313607B68AB
:104D6000082B0AD123683A681A6310222368DA6094
:104D70002268136843F4801313604FF04062314699
:104D80002046FFF70EFD002384F84030284603B08C
:104D9000F0BD0225F7E70225F8E737B50446FDF731
:104DA000A9FE054694F8410010F002002FD0002320
:104DB00084F8403023681A6852070BD51A6822F02D
:104DC00004021A60E06B00F097FA18B1636C43F0CC
:104DD00004036364226802212046136843F002033F
:104DE00013600122A36C00932B46FFF79DFD70B961
:104DF000236802222021DA600246A36C2046009339
:104E00002B46FFF791FD10B9012384F8413003B020
:104E100030BDF0B5D20105684C68EB688432C3F34D
:104E20000B4315441C446B6803F470436B600568C6
:104E30000E68EB6815440136C3F30B43334443EA71
:104E400004436B600568CC68EB68C3F30A031C4439
:104E5000AB189D6805F470459D6005688B68EE6829
:104E600015440133C6F30A06334443EA0443AB60F6
:104E70000025036813441C6924F007041C610368BF
:104E80000C6913441C61046891F83260144491F871
:104E90003170D1F818C0A369A561046891F8303069
:104EA000144443EA0C6343EA072343EA0643A3613D
:104EB000036813445C6924F0FF045C6103684C6977
:104EC00013445C6104681444E36923F4E06323F051
:104ED0000703E3610368D1E9074613443443DC6107
:104EE000036813449C6A9D6203684C6A13449C6285
:104EF0000B6963B3012B2CD09C1E022C2BD9072BE2
:104F000014BF0124022403681344DD6A05F0E02580
:104F1000DD6203689D18D1E900639B1B8E6A6343C1
:104F20007443073343EA0443EB6204681444236B7D
:104F300023F4FF6323F0070323630368C96A134460
:104F4000196301688B5843F001038B50F0BD0424B2
:104F5000D9E70324D7E70224D5E7000038B5044693
:104F6000002870D090F8A13003F0FF021BB980F840
:104F7000A020FDF745FB2268022384F8A130936945
:104F800023F0704393612268D4E9013091690343AF
:104F9000E0680343206903430B43936121682B4A74
:104FA0008B6813408B60216860698B6843EA00431B
:104FB000A06903438B602168CB681340CB602168F4
:104FC000E069CB6843EA0043206A0343CB60216871
:104FD0000B6913400B6121680B69606A43EA004367
:104FE000A06A03430B6121684B691A404A61226839
:104FF000E16A536943EA0143216B0B435361216822
:1050000094F83600CA6A94F8355002F07F42CA62BA
:10501000226894F83430D16A0B4343EA052343EA0B
:1050200000430020D3622268536B43F006035363AE
:105030002268936943F0010393610123C4F8A4003B
:1050400084F8A13038BD0120FCE700BF00F800F073
:105050007047704770B5036804469E6B5D6B7207BE
:1050600015D5690713D55A6B22F004025A6304223E
:105070000368DA63D0F8A43043F00103C0F8A43029
:10508000002380F8A12080F8A030FFF7E1FFB207ED
:1050900017D5AB0715D522682046536B23F00203C2
:1050A000536302222368DA63D4F8A4301343C4F8AC
:1050B000A430042384F8A130002384F8A030FFF743
:1050C000C7FFF00711D5E9070FD522682046536BBB
:1050D00023F00103536301232268D36384F8A130D2
:1050E000002384F8A030FCF7C7F8320712D52B074D
:1050F00010D522682046536B23F00803536308221F
:105100002368DA63012384F8A130002384F8A030F7
:10511000FFF79FFF70BDF8B590F8A03006468C46AB
:105120009646012B4FF002001DD0342401270D4676
:1051300086F8A10004FB026486F8A07038340FCD15
:105140000FC40FCD0FC40FCD0FC42B68304672466D
:1051500061462360FFF75DFE336800205F6286F8DA
:10516000A17086F8A000F8BD10B590F8A030012B12
:105170004FF0020314D00468012280F8A13080F8B7
:10518000A020636B23F001036363064B196401687D
:105190004B6B13434B63002380F8A12080F8A030B1
:1051A000184610BD0010005038B50446FDF7A2FCAB
:1051B0000546002C6CD00023226884F83C30022382
:1051C00084F83D30D36823F00103D3602268D368AC
:1051D000DB0753D4D4E903310B43D3602268D4E90D
:1051E00005310B43E1690B43216A0B43616A0B43B1
:1051F000E16A0B43216B0B43A1680B43A16A0139A0
:1052000043EA814313616368B3F1804F04D122689C
:10521000136943F040431361002223685A61636BB2
:105220009342226806DA536943F480235361636B27
:1052300022685B429BB21362A16B2368002929DAC2
:105240005A6942F400225A612168A26B0B6A5242E9
:1052500043EA02430B620023D4E90012B2F1804F0B
:105260001DD0D2B28A62226800205362A3666366B0
:10527000C4E91733012384F83D3038BDFDF73AFC0B
:10528000401B0528A2D94023A366032384F83D30A0
:105290000120F2E71A6A42EA01421A62DBE78B62F6
:1052A000E1E7002826D002681F21D36823F001031C
:1052B000D36000230268D3600268136102685361FF
:1052C000026893610268D3610268136202685362E4
:1052D0000268936202681363026853630268516054
:1052E0008366436680F83D3080F83C30C0E9173370
:1052F000184670470120704738B50446FDF7FAFBA1
:10530000054644B194F83D30022B06D08023A366B5
:10531000002384F83C30012015E02268D36823F094
:105320003E03D3602268D36823F00103D36023686F
:10533000D86810F0010007D11F225A60012384F8B9
:105340003C0084F83D3038BDFDF7D4FB401B0528F8
:10535000EDD9A36E43F04003A366002384F83C30EC
:10536000032384F83D30D6E770477047704700004C
:10537000074A0002D36800F4E06023F4E0631B04F2
:105380001B0C43F0BF6343F400330343D360704707
:1053900000ED00E0164B70B5DC684FF0FF36C4F34B
:1053A0000224C4F10705231D042D28BF0425062B64
:1053B00006FA05F38CBF033C0024002821EA03030E
:1053C00003FA04F306FA04F422EA040443EA0403A9
:1053D0004FEA0313DBB206DB00F1604000F56140E9
:1053E00080F8003370BD00F00F00024A1354F9E753
:1053F00000ED00E014ED00E0002808DB4209012385
:1054000000F01F0003FA00F0014B43F82200704740
:1054100000E100E000280DDB4309012200F01F003D
:10542000203302FA00F0044A42F82300BFF34F8F02
:10543000BFF36F8F704700BF00E100E0BFF35F8FE5
:10544000044A536A23F4803353620022024B5A60A9
:10545000704700BF00ED00E090ED00E0064A40F02C
:105460000100064B5860536A43F480335362BFF324
:105470004F8FBFF36F8F704700ED00E090ED00E0BD
:105480004378114A93600378E3B14368D360C37AE9
:10549000017B1B0643EA017301780B43817A43EADF
:1054A000C143417B43EA8143817B43EA4143C17B62
:1054B00043EA0143417A43EA0123017A43EA410383
:1054C00013617047D360FBE790ED00E030B50A68E8
:1054D0004D6AD1E907342343154C92B902682B4336
:1054E000224013434A6813438A681343CA6813432C
:1054F0000A6913434A6913438A691343036000200E
:1055000030BD02682B4322F4F84213430360436822
:105510004A68234013438A681343CA6813430A69DD
:1055200013434A6913438A6913434360E7E700BFA3
:105530000080FFFF30B5CB684D695C1E6B1E1B05FC
:1055400043EA0434CAB90B688268013B02F0704236
:10555000234313434A68013A43EA02138A68013A33
:1055600043EA02230A69013A43EA02438A69013A9B
:1055700043EA02638360002030BD836823F4700334
:1055800023F4704323438360C3684A6803F0704385
:10559000013A43EA02130A68013A13438A68013A5E
:1055A00043EA02230A69013A43EA02438A69013A5B
:1055B00043EA0263C360DEE7034600EB81024FF477
:1055C000347043F8210000206FF070419160186141
:1055D00058619861704710B5D1E9003402692343DE
:1055E0001343CA6843EA42238A68013A43EA4213F2
:1055F0000361002010BD436923F47F5323F03E0371
:1056000043EA410141610020704700004FF0B04C77
:1056100000232DE9F74F724EE246DFF8D0B10A6859
:1056200032FA03F402D103B0BDE8F08F4FF0010E5F
:105630000EFA03FE1EEA020200F0BD804C6824F060
:105640001004022C14D14FEAD30803F007090F25E8
:1056500000EB88084FEA8909D8F8204005FA09F5D7
:1056600024EA05050C6904FA09F42C43C8F8204023
:105670004FEA43084FF003094C6809FA08F9056836
:1056800004F003046FEA090904FA08F409EA0505BD
:105690002C4304604D6825F01005013D012D11D803
:1056A0008468CD6809EA040405FA08F52543856095
:1056B000446824EA0E0E4C68C4F300149C4044EA8B
:1056C0000E044460C46809EA04098C6804FA08F40A
:1056D00044EA0904C4604C68E4006CD5414D03F011
:1056E000030E4FF00F08D5F8F4404FEA8E0E44F049
:1056F0000204C5F8F440D5F8F44023F0030505F1A1
:10570000B04504F0020405F580650194019C08FA97
:105710000EF4D5F8089029EA0408334CA0424CD086
:1057200004F58064A0424AD004F58064A04248D0C9
:10573000584548D004F50064A04246D004F5806482
:10574000A04244D004F58064A04242D004F58064B5
:10575000A04240D004F58064A0423ED004F58064AD
:10576000A0420CBF09240A2404FA0EF444EA0804F7
:10577000AC60D5434F683468FF034CBF14432C40E2
:1057800034604F687468BF034CBF14432C4074608E
:105790004F68DCF80040FF024CBF14432C40CAF8AD
:1057A00000404F68DAF80440BF0254BF05EA040223
:1057B0002243CCF80420013331E70024D4E701244C
:1057C000D2E70224D0E70324CEE70424CCE7052463
:1057D000CAE70624C8E70724C6E70824C4E700BFD1
:1057E000800000580044025800000258000C025883
:1057F0002DE9F04F0022494EDFF82891DFF828A16B
:10580000DFF828B131FA02F301D1BDE8F08F0123AE
:1058100003FA02FE1EEA01046BD022F0030502F037
:10582000030C0F273E4B05F1B0454FEA8C0C984214
:1058300005F5806507FA0CF7D5F8088007EA08082F
:1058400059D003F58063984257D003F5806398429E
:1058500055D003F58063984253D003F58063984296
:1058600051D0484551D0504551D0584551D003F5FD
:10587000805398424FD003F5806398420CBF0923B0
:105880000A2303FA0CF3434512D1AB68E44323EA3D
:105890000707AF6033682340336073682340736049
:1058A0004FF0B0431D6825401D605D682C405C6072
:1058B00003255300046802F0070C05FA03F30F27D1
:1058C0004FEA8C0C1C43DB4307FA0CF7046022FA06
:1058D00005F400EB8404256A25EA0707276284683B
:1058E0001C408460446824EA0E044460C468234079
:1058F000C360013286E70023C3E70123C1E7022327
:10590000BFE70323BDE70423BBE70523B9E706236D
:10591000B7E70723B5E70823B3E700BF80000058C7
:10592000000002580014025800180258001C0258C7
:105930000369194214BF0120002070470AB1816138
:1059400070470904FBE7436931EA030308BF090410
:105950008161704770B50668049C756C44EA034326
:1059600005F040452B4373640368DA6343680268BB
:10597000B3F5403F30D186681EB1012E03D121F02E
:105980007F41916370BD022E01F47F0301F47F45D6
:10599000CCB207D1D90CAD0AC90241EA451141EA9E
:1059A000D401EEE7032E01F07F400AD1DB0CED0AB3
:1059B0009B02C10F43EA451343EAD40343EAC131D2
:1059C000DFE7190D2D0B0902030F41EA051141EA2A
:1059D000141141EA0331D4E7B3F5802F01D15161AD
:1059E000D0E7D160CEE710B50446002839D090F852
:1059F000613003F0FF021BB980F86020FCF7C8FD9E
:105A000021680223E06984F861300A68636822F43F
:105A1000E022034322F0400213430B602168A06997
:105A20004A6BA36822F48372034322F001021343FA
:105A30004B632268E168136C1B0C1B040B4313645B
:105A40002168D4E904034A6B5B0522F4401243EA5F
:105A50000053002013434B630123606684F86130D8
:105A600010BD0120FCE773B590F860400546012C9D
:105A70004FF0020414D080F861400126069C80F8A3
:105A800060600094FFF766FF2A680020136843F403
:105A90000C5313602A6813683343136002B070BD5F
:105AA0002046FBE7F7B516461A4690F860300446E4
:105AB000099D012B4FF0020325D0012780F86130AA
:105AC00080F86070D0E90037B7F5802F12D11962E5
:105AD0003146089B0095FFF73DFF226800201368C0
